:100000000C94E4020C942B030C942B030C94E30348
:100010000C942B030C942B030C942B030C942B03A8
:100020000C942B030C942B030C9496260C946A27A7
:100030000C94D31A0C942B030C942B030C942B03C9
:100040000C942B030C942B030C942B030C942B0378
:100050000C942B030C941E1B0C942B030C942B035D
:100060000C942B030C942B030C942B030C942B0358
:100070000C942B030C942B030C942B030C942B0348
:100080000C942B030C942B030C942B030C942B0338
:100090000C942B030C942B030C942B030C942B0328
:1000A0000C942B030C942B030C942B0317001500BA
:1000B00008001A0014002B0029000A00090007009C
:1000C00016000400010049000500190006001B008D
:1000D0001D0001008B002A5D2C000258E0004A0040
:1000E000010001001C0018000C00120013002F007A
:1000F0002A000B000D000E000F0033003400280012
:100100001100100036003700380087008A002B5D90
:100110002A0028002C5D4D000100010001000100B3
:10012000010001000100010029000100010001009F
:10013000010001000100490001000100010001006F
:10014000010001008B002A5D2C000258E0004A00EB
:100150000100010001000100010001000100010097
:100160002A00010001000100010001000100280037
:100170000100010001000100010001008A002B5D67
:100180002A0028002C5D4D00010001001702150215
:1001900008021A0214022B0229020A0209020702AB
:1001A00016020402010049020502190206021B029E
:1001B0001D0201008B022A5D2C020100E0024A02AE
:1001C000010001001C0218020C02120213022F028D
:1001D0002A000B020D020E020F0233023402280025
:1001E0001102100236023702380287028A002B5DA4
:1001F0002A02280201004D0201000100170015002B
:1002000008001A0014002B0029000A00090007004A
:1002100016000400010049000500190006001B003B
:100220001D0001008B002A5D2C000258E0004A00EE
:10023000010001001C0018000C00120013002F0028
:100240002A000B000D000E000F00330034002800C0
:100250001100100036003700380087008A002B5D3F
:100260002A0028002C5D4D00010001001702150234
:1002700008021A0214022B0229020A0209020702CA
:1002800016020402010049020502190206021B02BD
:100290001D0201008B022A5D2C020100E0024A02CD
:1002A000010001001C0218020C02120213022F02AC
:1002B0002A000B020D020E020F0233023402280044
:1002C0001102100236023702380287028A002B5DC3
:1002D0002A0228024C024D02010001003F003E00AC
:1002E0003D003C003B003A002900DE5C285D010037
:1002F0000100010001004900005C295D01000100CE
:10030000010001008B0001002C000258E0004A00AF
:10031000010001004000410042004300440045004C
:100320002A005000510052004F0001000100280037
:100330000100010001000100010001008A002B5DA5
:100340002A0028002C5D4D00010001000100010081
:1003500001000100010001002900DE5C285D0100B0
:100360000100010001004900005C295D010001005D
:10037000010001008B002A5D2C000258E0004A00B9
:10038000010001000100F400F600F500F900010091
:100390002A00F200F100F000F300FA00010028004A
:1003A0000100010001000100010001008A000100BC
:1003B0002A0028002C5D4D00010001002F022402BC
:1003C0001F0287022E022B00290034002D02340266
:1003D0002D003302010049002202210220023802CE
:1003E0001E0201008B00E2002C00E100E0004A0048
:1003F00001000100230225023602300230002F00E6
:100400002A00890226023702320232003400280014
:1004100001002F002E003600870001008A00E30053
:100420002A0028004C004D000100010004033000A8
:10043000000008036C003500360000000A03780055
:1004400063006400300000000403090409029F00F7
:10045000040100A032090400000103010100092188
:10046000110100012240000705810308000A090468
:1004700001000103000000092111010001228A008E
:100480000705820320000A080B020201010000098F
:10049000040200000101000009240100010900011B
:1004A00003090403000201030000072401000141C5
:1004B00000062402010100062402020200092403AE
:1004C00001030102010009240302040101010009E2
:1004D000050402400005000005250101010905830E
:1004E0000240000500000525010103120110010072
:1004F0000000086632000001000102030105010945
:1005000002A10185020901A10005091901290515AA
:10051000002501950575018102950175038101058D
:1005200001093009311581257F9502750881060979
:10053000381581257F950175088106050C0A38025A
:100540001581257F950175088106C0C00501090642
:10055000A1018505050719E029E715002501950882
:10056000750181020507190029EF1500250195F095
:10057000750181020508190129059505750191028A
:10058000950175039101C005010906A1010507192F
:10059000E029E7150025019508750181029501758F
:1005A0000881010507190029FF150026FF0095069F
:1005B0007508810005081901290595057501910245
:1005C000950175039101C00011241FBECFEFDAE041
:1005D000DEBFCDBF04B603FE27C080919D0390917E
:1005E0009E03A0919F03B091A0038730904BA7403A
:1005F000B04BD1F410929D0310929E0310929F0372
:100600001092A00314BE84B7877F84BF0FB6F894FE
:10061000A8958091600088618093600010926000CE
:100620000FBEE0E0F8E3099511E0A0E0B1E0EEEAEA
:10063000F3E502C005900D92AC35B107D9F723E080
:10064000ACE5B1E001C01D92AD39B207E1F70E94FF
:1006500081230C9499290C9400008EE14A9B02C0DE
:100660008150E1F74A9BFECF08955A9880E28A951F
:10067000F1F75A9A0895FC013BE03A95F1F720E032
:1006800090E080E031E040E14A95F1F7880F4A9B25
:1006900002C08160232742E04A95F1F7000040E163
:1006A0004A95F1F79F5F6913EECF90E19A95F1F7C4
:1006B00099B132E03A95F1F7000040E14A95F1F73F
:1006C00092FB992790F992272081920F90830895A9
:1006D000EF92FF920F931F93CF93DF930F92CDB7BB
:1006E000DEB719828C017C01E60EF11C0E151F0588
:1006F00061F481E09981911180E00F90DF91CF91B9
:100700001F910F91FF90EF9008950E942D0368E0D4
:10071000CE0101960E943B03F80181938F01E6CF41
:1007200090935E0180935D0160935C01529A5A9AA6
:10073000089590935E0180935D0160935C015298EF
:100740005A9AEA9AE9E6F0E080818F7C80830895E6
:100750006150770B91E001C0990F6A95EAF720E0AC
:1007600031E0911108C0222391F05A9A80E28A95D3
:10077000F1F75A980895492F482339F05A9A2327B8
:1007800040E24A95F1F79695ECCF5A98F9CF5A98EE
:10079000EDCFFF920F931F93CF93DF93EC018C016A
:1007A000060F111DC017D10731F4DF91CF911F91B2
:1007B0000F91FF900895F9900E94350368E08F2D06
:1007C0000E94A803EFCF1F920F920FB60F92112431
:1007D0000F931F932F933F934F935F936F937F9349
:1007E0008F939F93AF93BF93EF93FF93CF93DF9339
:1007F0000F92CDB7DEB719820E942D0367E0CE01BC
:1008000001960E943B03082F069506950695982FA2
:1008100092959570202F2570920F292F2370969511
:1008200096958770920F891344C08981811141C0C8
:1008300080915C018017E8F120E12A95F1F75A9A3E
:10084000529A82E08A95F1F700C0A8E00A9FC001A1
:10085000112400915D0110915E01080F191F5A9833
:10086000F8016581662321F0868197810E94C90382
:100870000E943503F0E1FA95F1F75A9852985A9A86
:1008800020E12A95F1F7D80112966C911297662310
:1008900031F113968D919C910E946803D801ED91DE
:1008A000FC91882311F088E001C082E080830E94DF
:1008B0002D030F90DF91CF91FF91EF91BF91AF91F9
:1008C0009F918F917F916F915F914F913F912F9168
:1008D0001F910F910F900FBE0F901F901895ED91E3
:1008E000FC91E1CF0F931F93CF93DF9320915C0195
:1008F000281719060CF471C08C0193E0000F111F2A
:100900009A95E1F7C0915D01D0915E01C00FD11FB2
:10091000F894529A5A9825E02A95F1F70000982FFA
:10092000969595708570980F892F837096959695FA
:10093000980F092B0E94350300C067E0802F0E94AA
:10094000A80380E18A95F1F752985A9A4A9B17C0FA
:1009500087E090E04A9915C06D81662321F18E8170
:100960009F810E94680381111EC0529A5A9AE881A1
:10097000F98182E08083789482E090E00DC000C02D
:10098000E5CF019771F4529A5A9AE881F98181E092
:100990008083789481E090E0DF91CF911F910F9157
:1009A000089500C0D7CF0E942D0320E22A95F1F7C9
:1009B0005A98529A80E18A95F1F76A81662321F06C
:1009C0008B819C810E94C9030E943503E881F981D3
:1009D0001082789490E080E0DFCF84E090E0DCCF7C
:1009E000CF93DF93A4E4B1E048E451E0C1E0D0E06C
:1009F0008D91E82FE295EF70F0E061A18F709E017C
:100A000001C0220F8A95EAF7922F9095962391A321
:100A100082A1822B82A34A175B0751F7DF91CF9106
:100A2000089508950C9411050E94A7060E94F004F1
:100A3000ADE3B1E061E070E08D91E82FE295EF70F9
:100A4000F0E041A18F709B0101C0220F8A95EAF767
:100A5000922F9095942391A382A1822B82A381E06F
:100A6000A434B80749F7209A559A289A5D9AE7E680
:100A7000F1E0AFE5B1E011921D9281E0EF36F807A9
:100A8000D1F70C94F0079F92AF92BF92CF92DF9272
:100A9000EF92FF920F931F93CF93DF938091010109
:100AA000C4E0D0E0882311F0D0E0C0E084E4C82E98
:100AB00081E0D82EAE01415A5E4F7A018A01AA2404
:100AC000A394B12C25E0922EF60181916F01E82FBD
:100AD000E295EF70F0E021A18F70A50102C0440FF4
:100AE000551F8A95E2F7CA01922F982B91A392A1E4
:100AF0008095892382A350EA5A95F1F7EDE3F1E05E
:100B000020E050E040E03191A32FA295AF70B0E01B
:100B100090968C9190E03F7002C0959587953A959C
:100B2000E2F780FD39C0C501042E01C0880F0A9488
:100B3000EAF7282B4F5F5F4F4730510521F7F80147
:100B40008081821719F02083909200010E94F004A6
:100B50000F5F1F4FF8E4CF16F1E0DF0609F0B4CFC6
:100B600080910001882359F08150809300018823EF
:100B7000A9F08FE99FE00197F1F700C0000081E044
:100B8000DF91CF911F910F91FF90EF90DF90CF9069
:100B9000BF90AF909F90089580E0CBCFC959DE4FB2
:100BA000F70191917F0199938F5F8430C9F7E7CF67
:100BB000CF93DF9320910101D0E0C0E0222311F018
:100BC000C4E0D0E00E94C206009731F0029709F419
:100BD000289881E090E00FC0289AC959DE4F4091D3
:100BE0007A0150917B0160917C0170917D01488375
:100BF00059836A837B83DF91CF9108950E944305D7
:100C000080910101E4E0F0E0882311F0F0E0E0E001
:100C1000E959FE4F90E080E020E0DC01A658BE4F8D
:100C20004C913191431321E03C930196843091051E
:100C3000A1F780917301820F809373010895CF9380
:100C4000DF930E948B06882309F443C00E9443056A
:100C500080910101C4E0D0E0882311F0D0E0C0E031
:100C6000C959DE4F44E050E0BE0186E791E00E94A2
:100C70004A29488159816A817B814093760150934A
:100C8000770160937801709379010E94D805892BD0
:100C9000E1F05D9880916F018F5F80936F018630E6
:100CA00070F080910101F0E0E0E0882311F0E4E0D1
:100CB000F0E0E959FE4F10821182128213820E94E5
:100CC000F80781E0DF91CF9108955D9A10926F014E
:100CD000F6CF0E94FE0580910101811112C090E0C3
:100CE00080E089599E4F4091760150917701609143
:100CF000780170917901FC01408351836283738391
:100D0000DECF84E090E0EDCFE82FF0E0E959FE4F30
:100D100080810895089580917001811111C08091A2
:100D2000D80080618093D8008AE18A95F1F700C0ED
:100D30009091D900892F817090FF82E0809370019B
:100D400081E090917001913009F080E008950E9457
:100D50008B06809301010E948B06882321F00E945C
:100D6000B606789408950E94BC06FBCF63E070E05D
:100D700082E091E00C94900363E070E082E091E007
:100D80000C9499030F931F93CF93DF938C01909151
:100D90001B0180911A01D0E0C0E0981759F082E061
:100DA00090E00E947204EC01892B21F480911A01D9
:100DB00080931B018091710190917201082B192B76
:100DC00090E080E0012B11F081E090E00E9472043D
:100DD000892B71F48091730180931A011092720132
:100DE00010927101CE01DF91CF911F910F91089563
:100DF00081E090E09093720180937101F3CF0E94A3
:100E0000390F80937E010C94A1070C94320FCF937D
:100E1000DF93EC010E942D19BE0190E080E0DF918C
:100E2000CF910C946416CF93DF93D62FC42F0E94DA
:100E3000C616882351F08D2F0E94C616882329F0EC
:100E40008C2FDF91CF910C94E6168C2FDF91CF91F0
:100E50000C940717CF93DB01FC01E852FD45E43108
:100E6000F10508F06CC0E556F64D0C944429129635
:100E7000CC9181E090E0C11109C08C2FCF910895F1
:100E80001296CC91CC23C9F388E090E00E9407072A
:100E9000C0E0F3CF1296CC9187E0CC23C9F10E9439
:100EA000E616F6CF1296CC91CC2381F080917F018B
:100EB000811103C081E080937F0185E00E94E616E6
:100EC00041E066E085E00E941307E2CF10927F01C7
:100ED00085E00E94071741E066E085E00E94130765
:100EE000CCCF1296CC91CC2349F080917F01811117
:100EF00003C081E080937F0186E0E0CF86E00E941E
:100F0000071710927F01E7CF1296CC9181E0C5CFF1
:100F10000E940717B2CF1296CC9140ED480FCC2318
:100F200039F02FE760E083EA92E00E94551EB0CFCF
:100F300020E060E083EA92E00E94651E9ECFC1E05F
:100F40009CCF089581E008950C942A0708950C948D
:100F5000A6071F93CF93DF9300D000D00F92CDB799
:100F6000DEB749835A836B833091DF0189819A818F
:100F700031111DC06623B9F02223A9F00E94D617B3
:100F8000182F682F89819A810E94821769817A813E
:100F9000812F0F900F900F900F900F90DF91CF91B6
:100FA0001F910C945F080E94AE17182FEFCF0E947C
:100FB000D61769817A81EDCFFC01262F40815181BE
:100FC0006281738184810C94A907CF93DF93EC0134
:100FD00060E00E94DC07BE01DF91CF910C94A7076F
:100FE0000E941A19811102C00E94BC190C94FF06BC
:100FF0000C94120508950C94FA0781E008950C945E
:10100000FD07CF93C82F0E94FB078C2FCF910C9424
:10101000FF0708950E94DB120E9409082FEF84E366
:101020009CE0215080409040E1F700C000000C940B
:10103000421B0F931F93CF93DF93EC0161E00E945B
:10104000DC078C01BE010E94A407882359F1BE0170
:10105000C8010E94780A882329F1BE01C8010E94B4
:10106000230D8823F9F0BE01C8010E94750D882365
:10107000C9F0BE01C8010E94980E882399F08A81A8
:10108000882339F001158CE5180751F00E3D1C45F9
:1010900079F0CE01DF91CF911F910F910C94A207AF
:1010A0000E940A0880E0DF91CF911F910F9108956F
:1010B0000E94BC19F7CF90E080E008950895972F23
:1010C00070E027E0929F600D711D1124FB0198E3F1
:1010D000899FE00DF11D1124EE0FFF1FE455FF4F16
:1010E000859194910895FC01EE0FFF1FE45DFB4F85
:1010F000859194910895CF93DF930E945F080E9499
:101100007209EC01811521E59207E8F5811530E5BA
:10111000930708F09BC08F3F910509F0F0F4803FE2
:10112000910508F085C0803E910580F4803C9105D2
:1011300008F080C08130910561F0009751F004976C
:10114000813A910530F0D0E0C0E003C0883E9105BF
:10115000D0F7CE01DF91CF9108958115904338F4F7
:10116000C11580E2D807A8F3CE019F7065C0C115F4
:1011700090E4D90708F067C0CE019927D3FF60C07B
:10118000EC01D86CE6CF811525E5920700F58115B5
:1011900034E5930708F08EC0811543E5940708F005
:1011A00076C0C11582E5D80708F46CC0CE01837003
:1011B000992721E030E002C0220F331F8A95E2F721
:1011C000C695C69580E2C89FE001112457C0C1159D
:1011D00099E5D907A8F4C11528E5D20708F06FC032
:1011E000C11536E5D30708F0AECF8C2F0E94090A4F
:1011F000C82FD0E0DC2FCC27CC27DF71D062A9CF5D
:10120000C1154AE5D40708F45FC0CE019056811598
:10121000904208F098CF8D2F8F710E94090A90E0BC
:10122000982F882788279F719C012C2BE901E6CFF6
:10123000D0658FCF805C91090E947308EC0189CF43
:10124000EC01D06C86CFDF70D06A83CFE4E0969556
:101250008795EA95E1F783702C2F269526952370C4
:1012600040E2249F90011124382B8C2F8370C1E021
:10127000D0E002C0CC0FDD1F8A95E2F7C22BD32B42
:10128000DC6867CFDC2FCC27C16FD06A62CF837058
:10129000992721E030E002C0220F331F8A95E2F740
:1012A000C695C69590E2C99FE0011124C22BD32BAD
:1012B000DA684FCFD82FCC27C46FD06A4ACFDC2F43
:1012C000CC27C06FD06A45CF8C2F8F700E94090A3F
:1012D00034E0D695C7953A95E1F7CF709C2FEC0195
:1012E000D06937CF82389105B1F1B0F481339105DF
:1012F00009F475C048F48932910509F469C08A324D
:10130000910509F473C008958533910509F459C016
:101310008933910501F10895833E9105A9F138F4CF
:10132000803E9105F9F0823E910549F10895863E8F
:101330009105A9F1873E9105C9F1843E910519F502
:101340002091A20221FF1FC08091A10284FD14C040
:1013500087EE90E008952091A1022370A1F080EE25
:1013600090E008952091A10220FD47C03091A20293
:1013700030FF09C024FF44C090E080E004C0209109
:10138000A10222FDF7CF08952091A10222FD3BC0CA
:101390003091A20230FDE3CF24FFF5CFEDCF2091B5
:1013A000A10223FFF0CF24FDE7CFD2CF2091A102ED
:1013B00023FD2CC03091A20231FFEECF84EE90E0ED
:1013C00008952091A10225FFDECF89E290E00895E3
:1013D0002091A10225FFD7CF85E390E008952091C9
:1013E000A10226FFD0CF8AE290E008952091A102C9
:1013F00026FFC9CF81E390E0089589E390E0089546
:1014000083EE90E0089582EE90E0089586EE90E0FD
:1014100008959091A10292FF06C0282F28712830CC
:10142000F9F4877F846093FF06C0282F2871283144
:10143000F1F4877E84612091A20220FF06C0382F3C
:1014400038713830D9F4877F816021FF06C0282F9A
:1014500028712831D1F4877E816194FD877E0895BB
:10146000282F24712430F9F68B7F8860DCCF282F59
:101470002471243101F78B7E8861DDCF382F3171E3
:10148000313019F78E7F8860E0CF282F217121310C
:1014900021F78E7E8861E1CF84E08093990289E014
:1014A00080939A0280919B02807F886080939B0248
:1014B000E4E8F1E08FEF819391E0EC3CF907D9F794
:1014C000109283011092820110928101109280018A
:1014D000089590919902292F2F709595959595953E
:1014E00095959F523CE0239F900D1124890F0895FC
:1014F000FF920F931F93CF93DF93FB018E3A2CE55E
:10150000920708F07DC08E393CE5930708F05BC177
:1015100080392CE5920750F583383CE5930708F0B5
:101520001BC181382CE5920760F487373CE59307AF
:1015300008F0FAC08F322CE5920708F0C0C0C1E075
:10154000ECC081383CE5930709F4FBC082389C4528
:10155000B1F78281882309F4D1C080919902982F34
:101560009F70993008F0CAC09F5FF4C08C393CE589
:101570009307A0F582392CE5920708F009C180395C
:101580003CE5930709F4F3C081399C45C1F682819B
:10159000882309F4B3C020919902822F85958595FF
:1015A0008595859586300CF0A9C091E0980F9295AD
:1015B000907F9595959595959595392F3295307F96
:1015C0002F70232B2093990218160CF097C097FFC9
:1015D00095C08295807F922F9F70AFC08C393CE57B
:1015E000930709F4E3C08D399C4509F0A8CF8281A7
:1015F000882309F483C080919A0291E0980FE1C09A
:10160000843B3CE5930709F40FC148F5803B3CE57A
:10161000930709F4EEC098F48E3A3CE5930709F479
:10162000DDC08F3A9C4509F08ACF8281882309F476
:1016300065C080919A02982F907F905FD8C060918A
:101640009A022281823B3CE5930709F4E7C008F443
:10165000DFC021112FE762956F7042E4D4C0873B51
:101660002CE5920709F4ECC080F4853B2CE5920749
:1016700009F4DAC0863B9C4509F061CF8281811173
:10168000DDC08FEF8093820139C0893B2CE5920742
:1016900009F4FDC008F4ECC08A3B9C4509F04FCF2B
:1016A000C28160919A0262956F70CC2309F4F8C0F0
:1016B0004FEF5FE183EA92E00E94751E1FC0209108
:1016C0009A02F22EF2943FE0F3222F70DCE02D9F7D
:1016D000D00D1124C28101ED080F10E00C571E4FF0
:1016E000CC2371F00E94690AC82F2D2F482F6F2D2F
:1016F00083EA92E00E94551EF801C083C0E00DC04D
:10170000F80140814F3F31F02D2F6F2D83EA92E099
:101710000E94651E8FEFF80180838C2FDF91CF919F
:101720001F910F91FF9008952281222339F387574B
:10173000982F9F7080919902807F892B80939902C6
:10174000DDCF82818823D1F280919902982F9F70FA
:10175000A9F2915F9F70F0CF2281222379F28958FC
:10176000982F9295907F809199028F70E6CF828119
:10177000882321F280919902982F959595959595BA
:1017800095959B3F0CF4BACF915F9295907FEDCFEA
:101790002281222309F4B2CF8259982F9F70809121
:1017A0009A02807F892B80939A02A8CF8281882316
:1017B00009F4A4CF80919A02982F9F7009F49ECFCC
:1017C000915F9F70EECF2281222309F497CF8E592B
:1017D0008295807F90919A029F70E4CF82818823C6
:1017E00009F48CCF80919A02982F907F90518F703E
:1017F000D9CF8281882309F481CF60919A026295C2
:101800006F7020E04BE783EA92E00E94451E76CF9E
:1018100021112FE762956F7040E4F5CF21112FE77A
:1018200062956F7041E4EFCF828120E081112FE754
:1018300060919A0262956F7043E4E5CF81E022CF18
:101840008281882309F45ACF90919B02292F2F700F
:1018500081E0820F8F70907F892B80939B02982F5D
:101860009F70807F822B911149CF80939B0246CF3E
:101870008281882309F442CF80919B02982F9F7028
:1018800009F43CCF915F9F70807F892BEECFC2819E
:1018900060919A0262956F7040E050EEC1110ACFDC
:1018A00050E040E083EA92E00E94751E36CF83EA62
:1018B00092E00E94772080918001909181010E94A6
:1018C0000F1B20919B022F702817190609F068F54D
:1018D0000E94031B9093810180938001809182017B
:1018E000882319F160919A0262956F7020918301AB
:1018F00041E083EA92E00E94451E8091820190912E
:10190000830187FF0DC0482F552741950CF4509552
:10191000941715062CF410928301109282010895F9
:10192000890F87FD03C08093830108958FE7FBCF64
:10193000AF92BF92CF92DF92EF92FF920F931F93DD
:10194000CF93DF937C015B01C42FD22FFC018281F6
:101950008823F9F04093CE010E94031B9093CD01A0
:101960008093CC0180E28C0F883008F061C0C77092
:1019700081E001C0880FCA95EAF7DF91CF911F91EE
:101980000F91FF90EF90DF90CF90BF90AF900C94AD
:1019900083101091CE01141340C08091CC0190911E
:1019A000CD010E940F1B6C01B701C5010E943F15BC
:1019B000C816D90690F5C0E2CD0F1D17B9F080E228
:1019C000810F883040F4177081E001C0880F1A95AC
:1019D000EAF70E948A10C83048F481E09D2F977082
:1019E00001C0880F9A95EAF70E948310802F0E9409
:1019F0007010C830E8F4D77081E001C0880FDA9524
:101A0000EAF7DF91CF911F910F91FF90EF90DF9058
:101A1000CF90BF90AF900C948A1080E28C0F8830EA
:101A200038F4C77081E001C0880FCA95EAF7E9CFA2
:101A3000DF91CF911F910F91FF90EF90DF90CF90AA
:101A4000BF90AF9008950F939C01CB01233F4CE5CD
:101A5000340759F1A8F4283DFCE53F0701F1293D81
:101A60004CE53407D1F1273D3C4591F406E221EEE7
:101A700041EE67ED7CE50E94980C80E00F9108959F
:101A8000253FFCE53F07E9F0B0F0263F3C45F9F083
:101A9000FC018281882339F11092CE01EFCF07E259
:101AA00025EE45EE68ED7CE5E6CF06E221EE40EE60
:101AB00063EF7CE5E0CF07E225EE44EE64EF7CE5E2
:101AC000DACF06E221EE42EE65EF7CE5D4CF07E205
:101AD00025EE46EE66EF7CE5CECF08E221E045EE4E
:101AE00069ED7CE5C8CF81E0C9CFCF93DF93EC01EE
:101AF000FB018281882309F419C1C230FCE5DF07AC
:101B0000C0F1C6319CE5D90730F09E012A5F3C4503
:101B10002930310570F50E9432199093A20280930A
:101B2000A102C031ECE5DE0709F4CFC008F05BC0CC
:101B3000C8308CE5D80709F4B6C088F5C430ECE5A8
:101B4000DE0709F4A8C0C0F4C2308CE5D80709F458
:101B50009CC08091A1028260C330DC4509F498C02A
:101B60008091A1029091A2020E9440190E94DB1272
:101B700080E0DF91CF9108958091A1028061C6300D
:101B8000ECE5DE0709F484C08091A1028860C730CB
:101B9000DC4508F47DC08091A102806279C0CC3020
:101BA0008CE5D80709F489C070F48091A1028C609B
:101BB000CA30ECE5DE0709F46BC008F478C0809108
:101BC000A1028E7F65C0CE308CE5D80709F479C0BC
:101BD0008091A1028B7FCF30DC4508F459C0809101
:101BE000A1028F7E55C0CB3FECE5DE0709F457C05C
:101BF00030F5C3318CE5D80709F46FC078F4C131F2
:101C0000ECE5DE0709F465C0C231DC4509F0A8CF78
:101C10000E94DB128091A1028F773AC0C5318CE51A
:101C2000D80709F462C008F476C08091A2028160EE
:101C3000CA3FDC4509F094CF8093A20291CFCF3FF9
:101C4000FCE5DF0709F44DC088F48091A2028D7F86
:101C5000CD3F9CE5D90781F38091A2028E7FCE3FD4
:101C6000DC4550F38091A2028360E6CFC130FDE5F0
:101C7000DF0709F459C008F444C080E0C230DD45F4
:101C800009F06ECF0E94BE196BCF8091A1028160D6
:101C90008093A10265CF8091A1028460F9CF8091E9
:101CA000A2028260C9CF8091A1028064F1CF0E941C
:101CB000DB128091A1028068EBCF8091A1028D7F21
:101CC000E7CF8091A102877FE3CF8091A1028F7D32
:101CD000DFCF8091A1028F7BDBCF8091A102837F38
:101CE000D7CF8091A2028C7FA7CF8091A10282FBE7
:101CF000992790F921E0922790FB82F990FB83F9D4
:101D0000C7CF8091A202982F909591708E7F892BDA
:101D100090FB81F991CF0E94DB129091A102892F53
:101D200097FB87F98058B4CF81E0ACCF81E021CF19
:101D3000CF93DF93EB0186319C4511F50E946B1820
:101D40009A81992399F08A7A91E009F490E090932E
:101D5000CF01811109C089E20E9446180E94B7187C
:101D600080E0DF91CF91089585E3F6CF8091CF0198
:101D7000811104C089E20E944D18F0CF85E3FBCFAA
:101D800081E0EFCF9093D5018093D4010895E09145
:101D9000D401F091D501309721F00190F081E02D30
:101DA000099480E00895E091D401F091D501309735
:101DB00099F020913C01222359F02091A10227FFA4
:101DC00007C0DC012C9111962C93119725E02C93E0
:101DD0000280F381E02D09940895E091D401F091FF
:101DE000D501309739F022E0DC012C930480F58195
:101DF000E02D099408952091D2013091D301281744
:101E0000390771F09093D3018093D201E091D4010E
:101E1000F091D501309721F00680F781E02D0994EB
:101E200008952091D0013091D1012817390771F020
:101E30009093D1018093D001E091D401F091D5012C
:101E4000309721F00084F185E02D0994089585B73D
:101E5000806885BF85B7806885BF08950895089517
:101E60000C942E0F08950E94270F0E942F0F0C94A0
:101E7000300F81E008950C94390F0E94FA1A0E94E5
:101E800014050E94531B0C940507BF92CF92DF925A
:101E9000EF92FF920F931F93CF93DF93CDB7DEB7EF
:101EA0002A970FB6F894DEBF0FBECDBF0E941F0663
:101EB0000E943B0F882309F461C087EDC82E81E0A2
:101EC000D82E10E000E0B02E802F0E948406E82E6D
:101ED000F601F1906F01F81609F44AC0809168028A
:101EE00081FD0E948A069F2D9E2580E0FF24F394A9
:101EF000292F2F21C1F18E83BF82EF2081E009F4C9
:101F000080E088870E94031B8160782F9A878987E9
:101F10004E815F8168858A850E94DF0FF801E95252
:101F2000FE4F8081F826F0820E94FE1C0E94570C12
:101F30000E94C70E9091D601891789F10E94C70EA1
:101F40008093D6012A960FB6F894DEBF0FBECDBFA0
:101F5000DF91CF911F910F91FF90EF90DF90CF9085
:101F6000BF900C9401088F5FFF0C873009F0C0CF41
:101F70000F5F1F4F0830110509F0A5CF8FEF898340
:101F80008A831B820E94031B8160782F9D838C8330
:101F900049815A816B818D810E94DF0FC5CF2A96BE
:101FA0000FB6F894DEBF0FBECDBFDF91CF911F916A
:101FB0000F91FF90EF90DF90CF90BF900895CF9357
:101FC000DF93CDB7DEB72B970FB6F894DEBF0FBE09
:101FD000CDBF4F83588769877A878B871E821D8282
:101FE00085E0FE013796DE01119601900D928A95EB
:101FF000E1F749815A816B817C818D819E812B968D
:102000000FB6F894DEBF0FBECDBFDF91CF910C9419
:102010004215FC01808191810C941818CF93C82F30
:10202000882369F18CEF8C0F813AA0F46C2F80919A
:102030001C0190911D010E94D719882329F08C2F33
:102040000E944D180E94B7188C2F0E944618CF91FD
:102050000C94B71880E28C0F883048F4C77081E088
:1020600001C0880FCA95EAF70E946E18F0CFC03FF2
:1020700030F08C2F0E94F81BCF910C94E31CCF9171
:102080000895882361F19CEF980F913A20F40E9403
:102090004D180C94B71890E2980F983050F4877050
:1020A00091E001C0990F8A95EAF7892F0E94741870
:1020B000F0CF9BE5980F933020F490E080E00C94F3
:1020C000FB0E98E5980F973120F490E080E00C9497
:1020D000110F803F20F00E94601C0C94E31C0895B7
:1020E000CF93C82F0E940E10C93349F42FEF87EE0B
:1020F00093E0215080409040E1F700C000008C2F19
:10210000CF910C944110882321F00E946E180C94FA
:10211000B7180895882321F00E9474180C94B718FA
:102120000895BF92CF92DF92EF92FF920F931F9389
:10213000CF93DF936C01D62FC72FFC010581029549
:102140000F70128111110E948B180E946418E82EE2
:10215000882391F01123D1F08C2F807F803421F0DF
:1021600080E28D0F883090F082E00E9402190E9478
:10217000641891E0E82EE926BC2EB2949FE0B922C3
:10218000EB2DF0E0E155F64D0C944429E12CF4CF11
:102190000C2F0F70C07F11F00295007F1123A9F062
:1021A000002359F080E28D0F883010F0D11109C062
:1021B000802F0E946E180E94B7188D2F0E940E105B
:1021C00014C0802F0E947E18F6CF8D2F0E944110E0
:1021D000002359F080E28D0F883010F0D1112CC00F
:1021E000802F0E9474180E94B7182B2D2850330B93
:1021F0002430310520F40E94C70E0E940108EE2011
:1022000009F482C10E94601880FD7EC1F60112822D
:102210000E945A180E94E616C6010E94A5120E944A
:102220005A18DF91CF911F910F91FF90EF90DF909F
:10223000CF90BF900C940717802F0E948418D3CFA3
:10224000FC2FFF70FF2EC07FC03219F0F29480EF98
:10225000F822DD2369F0D13049F1112391F10023F7
:1022600051F1F601858180FFA8CF8F70858323C04F
:10227000112381F0011106C00E949E188F290E942F
:102280008310B3CF0130C1F70E949E188F290E949E
:10229000A418ABCF011106C00E94AD188F2D0E946B
:1022A0008A10A3CF013009F4A0CFF6CF112329F073
:1022B000063008F09ACF8F2DE2CF053008F095CF89
:1022C000EDCF002359F3D93349F4FFEF27EE33E084
:1022D000F15020403040E1F700C000008D2F0E94F7
:1022E000411083CF8D2F112329F00E94F81B0E94EB
:1022F000E31C7BCF0E94601CFACF8C2F837009F007
:1023000041C0111172CF4D2F429546954770440F31
:10231000440F0D2F0F7010E030E020E0042E04C0B9
:10232000000F111F221F331F0A94D2F760E070E0E4
:10233000CB01D4FF0FC06FE070E080E090E004C0FC
:10234000660F771F881F991F4A95D2F76095709581
:1023500080959095C695C695C370602B712B822B86
:10236000932BC23049F058F4C13019F00E9478160E
:102370003CCF0E94661639CF0E948A1636CF0E9443
:10238000641633CF8695112311F08C2F817088232A
:1023900009F42BCF4D2F429546954770440F440FBB
:1023A0000D2F0F7010E030E020E0042E04C0000F6D
:1023B000111F221F331F0A94D2F760E070E0CB0197
:1023C000D4FF0FC06FE070E080E090E004C0660FC3
:1023D000771F881F991F4A95D2F760957095809551
:1023E0009095C695C695C370602B712B822B932B4D
:1023F000C23049F058F4C13019F00E945D17F5CE93
:102400000E944B17F2CE0E946F17EFCE0E94A016CB
:10241000ECCECF70112329F08C2F0E94E6168D2F61
:102420002ECF8D2F0E948A108C2F0E940717DDCE91
:10243000D23F89F160F4D03FC9F0D13F29F1112397
:1024400009F442C00111B9CE8C2F8F7121C0D33F46
:1024500039F1D43FA1F7112369F1CF718C2F0E947C
:10246000E61663E08C2F0E94ED18BFCE112341F0D9
:10247000053008F0BACE8C2F8F710E942A17B5CE86
:10248000063008F0B2CEF7CF8C2F8F71112369F28E
:102490000E94E616AACE8C2F8F711123C9F3C5CFE7
:1024A000112329F08C2F8F710E94D1169ECE0E948D
:1024B000AC169BCE81E00E940219023008F495CE42
:1024C00082E00E94021991CE002359F0D93309F01D
:1024D00005CF8FEF97EEE3E081509040E040E1F7C9
:1024E000FBCE8C2F8F71A1CF4C2F4F706D2FC6015B
:1024F0000E945B080E94DC1578CE4C2F4F706D2F28
:10250000C6010E945E0871CEDF91CF911F910F919D
:10251000FF90EF90DF90CF90BF9008950F931F939F
:10252000CF93DF93EC01688179818A810E94221820
:102530008C010E9481170E946316B801CE01DF91C1
:10254000CF911F910F910C949110CF93DF93EC01D9
:102550008B819C81892B29F08881998189238F3FE8
:1025600059F4DF91CF910895CE010E948E12CE01D1
:10257000DF91CF910C94E507CE010E9419088111DB
:10258000F3CF0E946418882361F38A81882349F37A
:1025900082E0DF91CF910C9402190E948B180E9467
:1025A0009B180E94B7180E940A1E0C94E31C0E94FC
:1025B00054180C94CD120E947B180C94D712E92F5A
:1025C000E295EF70E250EE3070F4F0E0E154F64D39
:1025D0000C944429803F19F020F4883E20F481E0D7
:1025E0000895843FE1F380E00895883EC0F3813F81
:1025F000D1F7F5CF93FB882780F908950E9418182A
:102600000C94DF12CF93DF9300D000D00F92CDB7A0
:10261000DEB70F900F900F900F900F90DF91CF913A
:102620000895CF93DF9300D000D000D0CDB7DEB7B0
:1026300026960FB6F894DEBF0FBECDBFDF91CF91C7
:1026400008951F93CF93DF93C091E00116E080912E
:10265000E1018C1304C0DF91CF911F910895D0E068
:102660001C9FF0011D9FF00D1124EE51FE4F408183
:10267000518162817381848195810E941113219619
:10268000C770E5CF4091120250911302609114027D
:102690007091150280911602909117020C941113FB
:1026A0001F93CF93DF9380911702807FA9F48091CD
:1026B0001402882389F08091E001C091E1016091CA
:1026C000120270911302A0911502B0911602D62F3A
:1026D000D72316E0C81304C0DF91CF911F9108954E
:1026E00090E0109711F0DF3F19F401968770F2CF58
:1026F000189F9001199F300D1124F901EE51FE4FE2
:1027000041814713F2CF40814613EFCF42814111FF
:10271000ECCF438154814A1B5B0B4436510528F7AB
:10272000809117028F70806180931702F901E9513F
:10273000FE4F80818F708061808382E192E00E94F1
:10274000A512DF91CF911F910C942113AF92BF92EC
:10275000CF92DF92EF92FF920F931F93CF93DF936D
:10276000CDB7DEB761970FB6F894DEBF0FBECDBF11
:102770008C0185E0F801DE011D9601900D928A958D
:10278000E1F7F80140815181E28082E1C82E82E0C8
:10279000D82E60911502709116026115710509F429
:1027A0004FC19091120220911302892F82238F3FF3
:1027B00009F446C1A380B480F0901402F501E61B31
:1027C000F70BFF2009F40AC180911702382F307FE0
:1027D000E436F10508F0C0C0311179C0FE2C251394
:1027E00023C0941321C0E1101FC08F7080618093BB
:1027F00017020E944213C6010E94A512809117027F
:10280000F80185838F2D61960FB6F894DEBF0FBE59
:10281000CDBFDF91CF911F910F91FF90EF90DF908F
:10282000CF90BF90AF900895AB2829F0842F8523D7
:102830008F3F09F021C180E0F82FF170DF2E80FF7B
:102840003CC08091E0012091E10136E0821315C087
:102850004D875E878D859E850E941818292F2295A9
:102860002F702230F0F0243018F59F70F1F0F8014D
:102870009581907FD1F4D12C1EC090E0389FF0015B
:10288000399FF00D1124EE51FE4F6181651306C092
:102890006081641303C062816E110FC0019687705E
:1028A000D5CF9F7011F0882331F3805E883018F304
:1028B000C8010E94A512FD2CA5CFEE2009F4A2CFDD
:1028C00080911702816080931702F12C9BCF251312
:1028D00014C0941312C0E11010C0F8018583C80120
:1028E0000E94A51286E0F801A2E1B2E001900D92EB
:1028F0008A95E1F70E94421385CF4D875E878D85CB
:102900009E850E94FE12882319F1EE2009F1809124
:102910001702803270F02091120230911302388732
:102920002F831986BB86AA868C87CE0107960E94C4
:10293000A51286E0F801A2E1B2E001900D928A951D
:10294000E1F70E9450130E944213FF24F3945ACFE0
:10295000C8010E94A512F9CF311113C07A2DB98A8E
:10296000A88A6E2D89890E94021382E192E00E945A
:10297000A51286E0F60111928A95E9F70E944213AA
:10298000A4CF25130FC094130DC0E1100BC0F801A4
:102990008583C8010E94A51286E0F60111928A95EE
:1029A000E9F730CF4D875E878D859E850E94FE12A8
:1029B000882371F2EE2061F280911702803208F4D0
:1029C000B8CF20911202309113023A8329831B82DF
:1029D000BD82AC828E83CE010196A9CFE436F1058B
:1029E00010F5FE2CEE2009F4B3CF25130BC0941381
:1029F00009C086E0F801A2E1B2E001900D928A954B
:102A0000E1F700CF4D875E878D859E850E94FE127F
:102A100081118FCF80911702816080931702C801C6
:102A20000E94A512EFCE7A2DB98AA88A6E2D8989C7
:102A30000E94021386E0F60111928A95E9F75ACFB7
:102A4000EE2009F485CF4D875E878D859E850E9497
:102A5000FE12F82E882309F47BCF86E0F801A2E16C
:102A6000B2E001900D928A95E1F782E192E00E9436
:102A700009100E9450133ECF81E08E25DDCE84E602
:102A800090E008951F93CF93DF93CDB7DEB72C97D7
:102A90000FB6F894DEBF0FBECDBF4F83588769874E
:102AA0007A878B879C87CE0107960E94A61388237E
:102AB00069F08A859B85892B39F04F815885842F51
:102AC00085238F3F09F071C016E05FC086E0FE01EC
:102AD0003796DE01119601900D928A95E1F78A856D
:102AE0009B85892B89F38F81988589238F3F61F39B
:102AF0002091E10130E0C90101968770992740914A
:102B0000E0014817190671F40E94DB121092E101EE
:102B10001092E00186E0E2E1F2E0DF011D928A9589
:102B2000E9F7D2CF96E0929FD001939FB00D112488
:102B3000AE51BE4FFE01319601900D929A95E1F78C
:102B40008093E1010E942113BFCF819FC001112416
:102B50008E519E4F0E94A6138823E9F0E091E00178
:102B60001E9FF0011124EE51FE4F40815181628180
:102B70007381848195810E9411138091E00190E01E
:102B80000196877099278093E0018091E0019091F0
:102B9000E1018913DACF2C960FB6F894DEBF0FBE91
:102BA000CDBFDF91CF911F91089569857A858B857F
:102BB0009C850E94111388CFEF92FF920F931F9371
:102BC000CF93DF938C01892B81F0F12CEE24E394D9
:102BD000E8012196F8018491843770F4843008F07C
:102BE0005FC08130B1F08230A1F1DF91CF911F91B0
:102BF0000F91FF90EF900895853709F44CC008F4C9
:102C00003DC09CE7980F903780F78F770E94411066
:102C100049C00E5F1F4FFE01849190E2980F9830DB
:102C200060F48770FE2D01C0FF0F8A95EAF78F2FA1
:102C30000E948E180E94B71802C00E940E108F2D9D
:102C4000815030F2EFE9FFE03197F1F700C000006A
:102C5000F7CF0E5F1F4FFE01849190E2980F9830DE
:102C600050F48770FE2D01C0FF0F8A95EAF78F2F71
:102C70000E949418DFCF0E944110E1CF0E5F1F4FDA
:102C8000FE01C491C150D8F28FE99FE00197F1F79E
:102C900000C00000F7CF0E5F1F4FFE01F490CFCFB2
:102CA0000E940E108E01CBCF08950C9454160E94F2
:102CB000551660933F0270934002809341029093B7
:102CC00042020C94CD1208950C9457160F931F9343
:102CD00000913F0210914002209141023091420246
:102CE000602B712B822B932B1F910F910C945716F5
:102CF0000F931F9300913F021091400220914102D7
:102D00003091420260237123822393231F910F91FC
:102D10000C9457160F931F9300913F02109140029D
:102D20002091410230914202602771278227932728
:102D30001F910F910C9457160C9454160C949C16DA
:102D40000E949E1660933B0270933C0280933D026A
:102D500090933E020C94CD1260E070E0CB010C9495
:102D6000A016611571058105910529F481E04423C0
:102D700061F080E00895DC01CB0104C0B695A79511
:102D8000979587954A95D2F781700895482F60915D
:102D90003B0270913C0280913D0290913E020C9466
:102DA000B1160F931F9341E050E060E070E08A019C
:102DB0009B0104C0000F111F221F331F8A95D2F7F9
:102DC000C901B8011F910F910C94A0160F931F9386
:102DD00041E050E060E070E004C0440F551F661F02
:102DE000771F8A95D2F780913B0290913C02A09187
:102DF0003D02B0913E028A019B01082B192B2A2B20
:102E00003B2BC901B8011F910F910C94A0160F9391
:102E10001F9341E050E060E070E004C0440F551F94
:102E2000661F771F8A95D2F7CB01BA01609570951E
:102E30008095909500913B0210913C0220913D02BB
:102E400030913E0260237123822393231F910F91BF
:102E50000C94A0160F931F9341E050E060E070E0E7
:102E600004C0440F551F661F771F8A95D2F78091C3
:102E70003B0290913C02A0913D02B0913E028A013A
:102E80009B01082719272A273B27C901B8011F9151
:102E90000F910C94A0160F931F9300913B02109179
:102EA0003C0220913D0230913E02602B712B822B1F
:102EB000932B1F910F910C94A0160F931F930091C9
:102EC0003B0210913C0220913D0230913E02602372
:102ED0007123822393231F910F910C94A0160F93BB
:102EE0001F9300913B0210913C0220913D023091D2
:102EF0003E0260277127822793271F910F910C9420
:102F0000A016089527E0929F800D1124982F9770A6
:102F100041E001C0440F9A95EAF78695869586951B
:102F200095E0899FF0011124E85EFD4F90E080E07C
:102F300070E05191DF0111979B01082E02C0369578
:102F400027950A94E2F72170219525272423252728
:102F50002C9301968530910561F7089527E0929FA3
:102F6000800D1124982F977086958695869525E07B
:102F7000829FF0011124E85EFD4F50E040E080E0C8
:102F8000219130E0092E02C0369527950A94E2F788
:102F900021703327042E01C0220F0A94EAF7822BF6
:102FA0004F5F5F4F4530510559F70895BF92CF925B
:102FB000DF92EF92FF920F931F93CF93DF938C01D9
:102FC000C0903B02D0903C02E0903D02F0903E0267
:102FD00080913F0290914002A0914102B091420243
:102FE000C82AD92AEA2AFB2ACFE1D0E0BC2ED70191
:102FF000C6010C2E04C0B695A795979587950A949F
:10300000D2F780FD0EC0219788F7B12C8B2DDF9170
:10301000CF911F910F91FF90EF90DF90CF90BF90D5
:103020000895B8018C2F0E947B08019761F3EECFC1
:10303000CF93DF93EC010E94D617BE01DF91CF91B1
:103040000C947B081F93CF93DF93EB019091DF01EA
:10305000992331F0CB01DF91CF911F910C94181877
:10306000882379F0CB010E94D617182F682FCE0144
:103070000E948217BE01812FDF91CF911F910C9486
:103080007B08CB010E94AE17182FF4CF682F8091D8
:103090001C0190911D010C94571A682F80911C01FE
:1030A00090911D010C94621A80911C0190911D0158
:1030B0000C946D1A809143028595859585950895A8
:1030C000809143028770089590914302977081E048
:1030D00009F480E008958091670208959091670255
:1030E000892B8093670208958095909167029823B9
:1030F0009093670208951092670208959091660276
:10310000892B80936602089580959091660298239A
:103110009093660208951092660208959091650258
:10312000892B80936502089580959091650298237C
:10313000909365020895109265020895809144026B
:10314000089508950C94A11890914402981721F0C5
:10315000809344020C94A21808958091440288231D
:1031600029F01092440280E00C94A2180895E09196
:103170001C01F0911D01809167028083E0911C0188
:10318000F0911D01808190916602892B8083E091EE
:103190001C01F0911D01808190916502892B808333
:1031A00090914402992381F0E0911C01F0911D015E
:1031B0008081892B808380911C0190911D010E9448
:1031C000C31981110E94AD1880911C0190911D01BD
:1031D0000C94D30E08950C94EA1898E0899F9001FE
:1031E0001124622B609343020E94E61680914302F1
:1031F0008595859585950C94EB181092430280E097
:103200000C94EB189091430280958923809343029C
:10321000282F277071F4282F082E000C330B9217DB
:10322000130639F08595859585950E9407170C94AE
:10323000FD18089590E080E00E945F2921E08C3E17
:103240009E4F09F020E0822F089582E090E00C94D8
:10325000572983E090E00C945729682F83E090E091
:103260000C946529CF9384E090E00E945729C82FE1
:1032700081E290E00E945729982F8C2FCF910895DA
:10328000CF93C92F682F84E090E00E9465296C2FAE
:1032900081E290E0CF910C946529AB01BC018FE0F5
:1032A00090E00C947729AB01BC0183E190E00C9491
:1032B000772960E070E0CB010C94531960E070E076
:1032C000CB010E944D190C9459196CEE7EEF90E0E1
:1032D00080E00E94832960E082E090E00E946529FE
:1032E00060E083E090E00E94652910923F02109216
:1032F0004002109241021092420260E084E090E0AD
:103300000E94652960E081E290E00E94652960E00A
:1033100085E090E00E94652960E086E090E00E94F0
:1033200065296FEF87E090E00E94652940E050E05A
:10333000BA0188E090E00E94772960E08DE090E09B
:103340000E94652940E050E0BA0188E190E00E94C7
:10335000772960E087E190E00E94652940E050E035
:10336000BA018CE190E00E94772960E080E290E071
:103370000E9465290C945E190C946519682F8EE0E3
:1033800090E00C946529FC01329680913C018823E1
:1033900021F08091A1029EE187FF96E080E09150AC
:1033A00008F4089521912223D1F38F5FF8CF66238B
:1033B00001F120913C012223F1F02091A10227FF8D
:1033C0001AC0462F4695469546954E3190F4677043
:1033D00021E030E002C0220F331F6A95E2F7840F2C
:1033E000911DFC01828190E02823392381E0232B69
:1033F00069F480E00895FC01329608962191261721
:1034000021F0E817F907D1F7F4CF81E008959C0186
:10341000FC0132969FEF80E04191461751F09F3FAB
:1034200019F4411101C0982F8F5F8630A9F79F3F93
:1034300009F40895290F311D97FD3A95F90162832A
:103440000895FC01329608962191261303C0DF01EE
:1034500011971C92E817F907B9F70895E62FE6953A
:10346000E695E695EE3168F4E80FF92FF11D6770E7
:1034700021E030E001C0220F6A95EAF78281822BB9
:1034800082830895E62FE695E695E695EE3170F491
:10349000E80FF92FF11D677021E030E001C0220F25
:1034A0006A95EAF720958281282322830895209146
:1034B0003C01222329F02091A10227FD0C942E1A11
:1034C0000C94071A20913C01222329F02091A1029B
:1034D00027FD0C94421A0C94211AFC01329680911B
:1034E0003C01882351F08091A10287FF06C08EE144
:1034F000DF011D928A95E9F7089586E0F9CF0895D6
:1035000008950C94801A0E94811A8091940384304B
:1035100049F11092690288E190E020E40FB6F89436
:10352000A895809360000FBE2093600080E00E9409
:1035300001080E94811A83B7817F846083BF83B7AB
:10354000816083BF7894889583B78E7F83BF0FB6E1
:10355000F894A89580916000886180936000109233
:1035600060000FBE08950895CF930E947F1A0E94B5
:103570001F060E94B31AC0E08C2F0E94840681119E
:1035800005C0CF5FC830C1F7CF91089581E0FCCF6F
:1035900008950C94C81A0E94DB120E94C70E0E9464
:1035A00001080C94C91A1F921FB61F9211248F9301
:1035B0009F93AF93BF9380916902811113C0809153
:1035C0009D0290919E02A0919F02B091A00241960F
:1035D000A11DB11D80939D0290939E02A0939F0216
:1035E000B093A002BF91AF919F918F911F901FBE8A
:1035F0001F90189582E084BD93E095BD9AEF97BD2A
:1036000080936E0008952FB7F89480919D02909159
:103610009E02A0919F02B091A0022FBF08959C012D
:103620004FB7F89480919D0290919E02A0919F02C5
:10363000B091A0024FBF821B930B089578941F9204
:103640001FB61F9211248F939F93AF93BF938091C6
:103650009D0290919E02A0919F02B091A0020196BE
:10366000A11DB11D80939D0290939E02A0939F0285
:10367000B093A002BF91AF919F918F911F901FBEF9
:103680001F90189587E797E79093010880930008AB
:1036900088E19AE00FB6F894A895809360000FBE79
:1036A00090936000FFCF0E941A19811102C00E94FE
:1036B000BC190E942519809368020E9432199093C8
:1036C000A2028093A1020E942919682F70E090E065
:1036D00080E00E94641660913B0270913C028091F0
:1036E0003D0290913E020C949E168091700280FFE4
:1036F00012C06091230185E0689FB0011124759587
:1037000067957595679560387105A8F56115710520
:10371000A1F1862F089581FF09C06091230185E002
:10372000689FB001112475956795EDCF60912301D5
:1037300082FD0AC080916F028823D1F0909122010E
:1037400060912301891728F085E0689FB00111245A
:10375000DACF869FB001112485E0869F9001879F74
:10376000300D1124692F70E0C9010E943029CBCFA0
:1037700065E070E0CECF8FE7089581E008958091F5
:10378000700280FF0CC060911F0170E07595679515
:10379000759567956115710549F1862F089581FF2B
:1037A00006C060911F0170E075956795F3CF609139
:1037B0001F0182FD0BC090916E029923A1F06091D0
:1037C0001E0180911F01961738F0682F70E0603855
:1037D000710500F38FE70895899FC001112470E0FF
:1037E0000E943029F4CF61E070E0D7CF81E00895E6
:1037F000803F31F40E94751B819580937402089577
:10380000813F19F40E94751BF8CF823F31F40E946A
:10381000751B8195809373020895833F19F40E946C
:10382000751BF8CF893F29F40E94BF1B8093750256
:1038300008958A3F21F40E94BF1B8195F7CF8B3FEB
:1038400031F40E94BF1B81958093760208958C3FCE
:1038500019F40E94BF1BF8CF843F31F480917202AB
:103860008160809372020895853F21F480917202F5
:103870008260F7CF863F21F4809172028460F1CF9D
:10388000873F21F4809172028860EBCF883F21F45A
:10389000809172028061E5CF8D3F31F4809170029A
:1038A00081608093700208958E3F21F480917002B0
:1038B0008260F7CF8F3FB9F7809170028460F1CFBB
:1038C00090917302803F59F48091740287FF0DC07C
:1038D0001092740291110BC010926F0208C0813FC8
:1038E00081F48091740218169CF3992381F08091E1
:1038F000750290917602892B09F064C010926E02D5
:103900000895823F49F497FFF0CF1092730280919F
:1039100074028111ECCFE0CF833F19F41916ACF398
:10392000E4CF20917502893F29F41216F4F6109223
:103930007502DBCF8A3F19F427FFD7CFF8CF20914C
:1039400076028B3F29F427FFD0CF10927602CDCF9D
:103950008C3F19F41216CCF3C8CF843F31F4809118
:1039600072028E7F80937202C0CF853F21F48091D6
:1039700072028D7FF7CF863F21F4809172028B7F98
:10398000F1CF873F21F480917202877FEBCF883F90
:1039900021F4809172028F7EE5CF8D3F31F48091CA
:1039A00070028E7F80937002A0CF8E3F21F48091B1
:1039B00070028D7FF7CF8F3F09F097CF8091700213
:1039C0008B7FF0CF08950E94031B9C01909173029E
:1039D00080917402982B21F030936D0220936C0239
:1039E0009091750280917602982B21F030936B02B2
:1039F00020936A0281E792E00C94ED0EEF92FF9221
:103A00000F931F93CF93DF9300D000D000D0CDB79A
:103A1000DEB786E0E1E7F2E0DE01119601900D925B
:103A20008A95E1F7E0907302F090740200917502BC
:103A30001091760210927302109274021092750225
:103A4000109276028E2D8F2991F080916C029091C8
:103A50006D020E940F1BAC0190916F02992309F433
:103A60003FC0809124018417150608F447C0802FB9
:103A7000812B91F080916A0290916B020E940F1B42
:103A8000AC0190916E02992309F477C080912001D6
:103A90008417150608F47FC0809173029091740218
:103AA000892B90917502892B90917602892B11F0C8
:103AB0000E94E31C86E0FE013196A1E7B2E001908E
:103AC0000D928A95E1F726960FB6F894DEBF0FBEE9
:103AD000CDBFDF91CF911F910F91FF90EF9008958F
:103AE000209125018AE0289F900111242417350791
:103AF00008F0BDCF9F5F90936F0202C09F3FD1F748
:103B0000EE2059F00E94751B9FEF1E140CF491E0FB
:103B1000899F802D112480937302FF2059F00E9409
:103B2000751B9FEF1F140CF491E0899F802D1124C9
:103B30008093740230917302332309F498CF20915B
:103B40007402222309F493CF45EB3403C0011124FE
:103B5000992359F09093730245EB240390011124AB
:103B6000332339F03093740282CF81E08093730263
:103B7000F3CF81E0809374027ACF209121018AE013
:103B8000289F900111242417350708F085CF9F5FE7
:103B900090936E0202C09F3FD1F7002359F00E941C
:103BA000BF1B9FEF10160CF491E0899F802D11240C
:103BB00080937502112359F00E94BF1B9FEF1116CD
:103BC0000CF491E0899F802D11248093760230912E
:103BD0007502332309F460CF20917602222309F481
:103BE0005BCF45EB3403C0011124992359F0909326
:103BF000750245EB240390011124332339F03093EF
:103C000076024ACF81E080937502F3CF81E0809302
:103C1000760242CF86E0E1E7F2E0DF011D928A956D
:103C2000E9F710926F0210926E02109270020895DE
:103C3000881F8827881F089591E0883F08F490E046
:103C4000892F0895982F907F903BE9F040F49039A8
:103C5000D1F0903AC1F09038B1F080E00895903DF5
:103C600019F020F4903CC9F782E00895903E59F095
:103C7000903F99F7815F8F3080F7E82FF0E0E45BA9
:103C8000FE4F8081089583E008950F93022F0F77F0
:103C9000242F2F776F70462F406BDC01ED91FC9144
:103CA00063E070E009950F9108950F93022F0F774D
:103CB000242F2F776F70462F4069DC01ED91FC9126
:103CC00063E070E009950F9108950F93022F0F772D
:103CD000242F2F776F70462F4068DC01ED91FC9107
:103CE00063E070E009950F9108950F931F934115BC
:103CF00020E2520744F49A01305E4115504E2CF4F4
:103D000030E020E002C02FEF3FE38901000F012FD8
:103D1000001F110B11952F776F70462F406EDC013D
:103D2000ED91FC9163E070E009951F910F9108956A
:103D3000FC01738362830895FC01758F648F08957D
:103D4000CF93DF93EC011DA21FA21EA2BC01685DF0
:103D50007F4F40EC88519F4F0E94AB201B821A82FC
:103D60001D821C821F821E82198618861B861A8657
:103D70001D861C861F861E86198A188A1B8A1A8A27
:103D80001D8A1C8A1F8A1E8A198E188E1B8E1A8EF7
:103D90001D8E1C8E1F8E1E8E19A218A2DF91CF9130
:103DA0000895EF92FF920F931F93CF93DF93EA0151
:103DB0008A01060F111D88519F4F7C01C017D10742
:103DC00039F4DF91CF911F910F91FF90EF900895FB
:103DD0006991C7010E94B220F1CFFC017183608319
:103DE0000895FC0171A360A30895AF92BF92CF9292
:103DF000DF92EF92FF920F931F93CF93DF9300D048
:103E00000F92CDB7DEB77C016B01142FB22EA02E1E
:103E1000DC0195968C9195978430A9F55A96ED9191
:103E2000FC913097E9F1CB01019763E070E00E94CB
:103E30001C29CB01880F991F860F971F4983BA82CF
:103E40000B834C2D481B9E012F5F3F4FBC01C701C8
:103E50000995D7015E96ED91FC91309731F00A2DCE
:103E60002B2D412FB601C70109950F900F900F9090
:103E7000DF91CF911F910F91FF90EF90DF90CF9046
:103E8000BF90AF9008956230710509F455C063305A
:103E9000710599F06130710509F481C0D12CC12CF4
:103EA000D7015C96ED91FC91309799F20A2D2B2D5C
:103EB000412FB601C7010995CCCF842F807F803A6E
:103EC00011F148F48038D1F0803951F7D7011496B8
:103ED000ED91FC910AC0803ED9F0803FF1F0803B2B
:103EE000F9F6D7011296ED91FC913097C9F2123F85
:103EF000E9F02A2D4B2D612F6F701BC0D70116964C
:103F0000ED91FC91F2CFD7011896ED91FC91EDCF98
:103F1000D7011A96ED91FC91E8CF423F09F6D701FF
:103F20001C96ED91FC91309709F4BACF2A2D4B2DB8
:103F300062EFC70109958DCF842F807F803DB1F05E
:103F4000803FC9F0803C09F0ABCFD7011E96ED91C0
:103F5000FC91309709F4A4CF812F8D7F4B2D612FD9
:103F60006F70813F89F0C701099573CFD7015096D3
:103F7000ED91FC91EECF433F51F4D7015296ED9174
:103F8000FC91309709F48CCF4B2D612FECCF413F42
:103F900009F086CFD7015496ED91FC91F2CF842F92
:103FA0000E941C1E882359F0D7015696ED91FC9172
:103FB000309709F475CF612FC70109954ACF163F95
:103FC00009F06ECFD7015896ED91FC91F1CFFF9299
:103FD0000F931F93CF93DF93EC01162F862F0E9430
:103FE0001C1E882391F0FDA081E08DA300E020E05D
:103FF000412F61E070E0CE010E94F51EFDA2DF912D
:10400000CF911F910F91FF900895812F0E94181E4C
:104010004DA1882309F443C0443029F01AA381E05C
:1040200090E09FA38EA3812F0E94221E813051F029
:104030008823A9F0823089F0833079F01DA21FA275
:104040001EA2DDCF8DA300E020E0412F61E070E0F3
:10405000CE010E94F51E1DA2D2CF8DA3D0CF103F5E
:10406000B1F0173F59F72EA13FA1C90163E070E0FD
:104070000E941C29FE01E80FF91F12A3B9016F5F0E
:104080007F4F7FA36EA30CA12BA14AA1E1CF84E0B7
:104090008DA31AA381E090E09FA38EA3B0CF442309
:1040A00009F4ADCF2EA13FA1C90163E070E00E94E9
:1040B0001C29FE01E80FF91F12A3B9016F5F7F4FA2
:1040C0007FA36EA38130910569F0029709F097CF25
:1040D0000CA12BA14AA1CE010E94F51E8DA1843016
:1040E000C9F68DCF00E0423009F089CFF2CFCF92F0
:1040F000DF92EF92FF920F931F93CF93DF93EC0128
:10410000E8A1F9A1309709F009956E0188EEC80E73
:10411000D11CC6010E94E12010E000E0E82EF12C45
:104120000E151F0548F0DF91CF911F910F91FF9061
:10413000EF90DF90CF90089560E0C6010E94F520D7
:10414000682FCE010E94E71F61E0C6010E94052191
:104150000F5F1F4FE5CFFC0142837483638311829D
:10416000108208951F93CF93DF93EC01162F0E94C6
:104170001C21482F298130E0C90101966A8170E035
:104180000E94302958815817190641F4842F0E9443
:104190001F2180E0DF91CF911F9108958B819C8139
:1041A000280F391FF9011083898190E001966A81F7
:1041B00070E00E9430298983842F0E941F2181E0B2
:1041C000E9CFCF93DF93EC010E941C2199812881D4
:1041D000921740F0C92FC21B0E941F218C2FDF9124
:1041E000CF910895CA819C0FF5CFFC018081860F85
:1041F0009927991F628170E00E94302923813481C0
:10420000280F391FF901808108951F93CF93DF9301
:10421000EC01162F0E941C21282F8881810F9927DD
:10422000991F6A8170E00E9430298883822FDF9174
:10423000CF911F910C941F218FB7F89408958FBFD1
:104240000895089508950F931F93CF93DF9300D09F
:1042500000D000D00F92CDB7DEB78C01CE01019611
:104260000E947C2381110BC027960FB6F894DEBF05
:104270000FBECDBFDF91CF911F910F9108958A811D
:104280000E94221E9A819D839B819E839C819F8395
:1042900081110AC08981843079F0873069F08630D5
:1042A00069F08530D9F681E0AE014B5F5F4F682F32
:1042B000C8010E94D11ED2CF83E0F6CF82E0F4CFB6
:1042C000DF92EF92FF920F931F93CF93DF9300D073
:1042D00000D0CDB7DEB77B01142FD22E4A832B83BB
:1042E0000C83842F0E94221E811129C082E0E816CF
:1042F000F10401F183E0E816F10439F0EA94EF28C3
:1043000069F485E0173F21F404C087E0073F09F016
:1043100084E08983CE0101960E9477230F900F904D
:104320000F900F90DF91CF911F910F91FF90EF9021
:10433000DF90089587EFD812EBCF86E0EACF129591
:104340001F701983E7CF0E944C0A83EA92E00E9413
:10435000A01E60E671E283EA92E00E94ED1E63E235
:1043600071E283EA92E00E94F11E61E271E283EA67
:1043700092E00E949C1E62E271E283EA92E00C9459
:10438000981E9B01409194034430C1F4FC0191813B
:104390009F709093E90050E040E064E070E0C90154
:1043A0000E943C2481110BC09091E80095FD07C04C
:1043B0009091E8009E779093E800089582E0089538
:1043C00020919403243091F4FC0181818F708093BB
:1043D000E9009091F3008091F200892B49F08091DF
:1043E000E8008E778093E8000C94EA2582E0089537
:1043F00080E00895FC0180919403843059F4918108
:104400009F709093E9008091E80080FF03C0CF0186
:104410000C94E02108959B0140919403443011F0E5
:1044200080E00895FC0196819F709093E90080914F
:10443000E80082FFF5CF8091E80085FFF1CF50E0E2
:1044400040E064E070E0C9010E948B248091E800A4
:1044500085FD05C08091E8008B778093E80081E0BE
:10446000089580919702089508959C0182E08093B9
:10447000E9009FEF8091E800915085FD06C085ED31
:104480008A95F1F700009111F5CF8091E80085FF42
:104490000CC050E040E066E070E0C9010E943C249E
:1044A0008091E8008E778093E8000895CF93DF93A2
:1044B000EC0180913C018823B1F18091A10287FF3A
:1044C00032C060E282E08093E9008FEF9091E800D3
:1044D000815095FD06C095ED9A95F1F70000811188
:1044E000F5CF8091E80085FF1BC080913C0170E012
:1044F00050E040E0811104C050E040E068E070E02E
:10450000CE010E943C248091E8008E778093E800E1
:1045100080E2FE01A7E7B2E001900D928A95E1F7F3
:10452000DF91CF91089568E081E0CDCF089580912B
:104530009303811109C00E941B260E947826809156
:10454000E20084608093E20008951092930308953E
:10455000089508950C94CB1A42E061EC81E00E942A
:10456000972542E261EC82E00E94972542E361E8F0
:1045700083E00E94972542E361E884E00C9497254C
:1045800080919603833009F45FC030F48130C1F12B
:10459000823009F49BC008958A3009F487C08B30BB
:1045A00009F46DC0893009F04EC0809195038132C5
:1045B00009F049C08091990390919A03029708F0FD
:1045C00042C08091E800877F8093E8008091E800F6
:1045D00082FF35C09091F3008091F200029729F498
:1045E0008091F1008B7F813021F48091F1008093E4
:1045F00097028091E8008B778093E8000C94CB259C
:1046000080919503813AF9F48091E800877F809347
:10461000E8008091990390919A03892B61F460E2FC
:1046200087E792E070E00E94DA248091E8008B77BF
:104630008093E800089560E090E080E0F3CF8091FF
:1046400094038111C3CF089580919503813AD9F7DE
:104650008091990390919A03892BA9F78091E800A2
:10466000877F8093E8008091E80080FFFCCF8091F5
:104670003C018093F1008091E8008E77BDCF80915E
:104680009503813201F78091990390919A03892BC8
:10469000D1F68091E800877F8093E8000E94CB25C7
:1046A0008091970380933C010C94DB1280919503D9
:1046B000813249F68091E800877F8093E8000E946C
:1046C000CB2580919803809398020895809195035B
:1046D000813A09F0B8CF8091E800877F8093E800A5
:1046E0008091E80080FFFCCF80919802C2CFBC018E
:1046F00086E291E00C94C121BC0186E291E00C9429
:104700000B220E94A32184B7877F84BF0FB6F89441
:10471000A89580916000886180936000109260008D
:104720000FBE80E890E00FB6F894809361009093FC
:1047300061000FBE0E94330F0E941B260E94782644
:104740008091E20084608093E20078940E940129C5
:104750000E943D0F82E391E00E94C20E809194037B
:10476000853039F00E94450F86E291E00E94FA21DF
:10477000F5CF0E94831A80919203882379F30E94D7
:10478000B41A882359F30E942624E8CF0C94C82336
:10479000292F33272330310519F168F421303105F1
:1047A00009F44AC02230310509F44BC090E080E0A2
:1047B00030E020E028C02132310579F12232310584
:1047C000A9F780E490E027E835E061157105D9F09C
:1047D0008AE890E02DEF34E061307105A1F0E6CF7A
:1047E00099278130910599F0009741F08230910529
:1047F00089F00397D9F6ECE2F4E002C0E8E4F4E0D3
:10480000849190E09F01FA01318320830895ECE3C5
:10481000F4E0F6CFE2E3F4E0F3CF89E090E02EE5B8
:1048200034E06115710579F389E090E027E734E021
:104830006130710541F3BACF82E190E02BEE34E0B4
:10484000E2CF8FE990E02CE434E0DDCF80E189BD58
:1048500082E189BD09B400FEFDCF8091D8008F7D33
:104860008093D8008091E00082608093E000809186
:10487000E00081FDFCCF0895AF92BF92CF92DF920E
:10488000FF920F931F93CF93DF936C01EB018A018B
:104890000E94EA25F82E811123C00115110539F077
:1048A000F80180819181C81BD90BC80ED91EB12C8B
:1048B000A12C2097A9F08091E80085FD22C080916D
:1048C000E8008E778093E80001151105A1F0F8014A
:1048D00080819181A80EB91EB182A08285E0F82E58
:1048E0008F2DDF91CF911F910F91FF90DF90CF908F
:1048F000BF90AF9008950E94EA258823D1F2F82E48
:10490000EFCFF60181916F018093F1002197FFEFC6
:10491000AF1ABF0ACECFAF92BF92CF92DF92FF9273
:104920000F931F93CF93DF936C01EB018A010E94D9
:10493000EA25F82E811123C00115110539F0F8017F
:1049400080819181C81BD90BC80ED91EB12CA12C16
:104950002097A9F08091E80085FD22C08091E800B1
:104960008B778093E80001151105A1F0F801808193
:104970009181A80EB91EB182A08285E0F82E8F2DFC
:10498000DF91CF911F910F91FF90DF90CF90BF905B
:10499000AF9008950E94EA258823D1F2F82EEFCF38
:1049A0008091F100F60181936F012197FFEFAF1A1B
:1049B000BF0ACECFFC0180919B0390919C03861788
:1049C0009707A0F06115710529F49091E8009E7792
:1049D0009093E80090E06115710551F4911108C0C1
:1049E0008091E80082FF34C080E00895BC01F2CFDE
:1049F000809194038823C1F18530C1F18091E80052
:104A000083FD30C08091E80082FDEACF8091E8000C
:104A100080FFE1CF8091F3002091F200382F6115E3
:104A2000710519F02830310558F091E02830310532
:104A300009F090E02091E8002E772093E800CBCF9A
:104A400081918093F100615071092F5F3F4FE7CF53
:104A500080919403882341F0853041F08091E800F3
:104A600083FFBECF81E0089582E0089583E008953A
:104A7000FC0180919B0390919C0386179707A0F0FF
:104A80006115710529F48091E8008E778093E80024
:104A900090E06115710551F4911108C08091E80012
:104AA00082FF35C080E00895BC01F2CF809194036D
:104AB0008823C9F18530C9F18091E80083FD31C0B8
:104AC0008091E80082FDEACF8091E80080FFE1CF8D
:104AD0008091F3002091F200382F6115710519F0D3
:104AE0002830310558F091E02830310509F090E088
:104AF0008091E8008E778093E800CBCF84918093FB
:104B0000F1003196615071092F5F3F4FE6CF8091E0
:104B10009403882341F0853041F08091E80083FFC1
:104B2000BDCF81E0089582E0089583E00895982F35
:104B3000973028F08F708093E90081E0089590937A
:104B4000E900242F762F50E0981731F07091EC0097
:104B50002091ED005091F00021FD02C09F5FE8CF51
:104B60003091EB003E7F3093EB003091ED003D7FC4
:104B70003093ED003091EB0031603093EB00709397
:104B8000EC002093ED005093F0002091EE0027FD03
:104B9000E5CF80E008958091950387FF13C0809151
:104BA000E80082FF06C08091E8008B778093E800E0
:104BB00004C0809194038111F2CF089580919403F1
:104BC0008823D9F38091E80080FFF8CF8091E80036
:104BD0008E77ECCF2091E4003091E50095E6A901B5
:104BE0002091EC00822F817020FF06C08091E800A8
:104BF00080FF06C080E008952091E80022FD1AC0E1
:104C000080919403882389F0853089F08091EB00AE
:104C100085FD0FC02091E4003091E5004217530755
:104C2000F9F29150E1F684E0089582E0089583E07E
:104C3000089581E008950E9489260E949126E0EE61
:104C4000F0E0808181608083E8EDF0E080818F7703
:104C5000808319BCA7EDB0E08C918E7F8C9380810E
:104C60008F7E80831092930308950F931F93CF93A9
:104C7000DF930E9489260E949126C8EDD0E08881AA
:104C80008F77888388818068888388818F7D8883F7
:104C900019BC1092940310929003109292031092F8
:104CA000910300EE10E0F80180818B7F8083888182
:104CB0008160888342E060E080E00E949725E1EE19
:104CC000F0E080818E7F8083E2EEF0E08081816081
:104CD0008083808188608083F80180818E7F8083DB
:104CE000888180618883DF91CF911F910F91089512
:104CF000E8EDF0E080818F7E8083E7EDF0E0808159
:104D00008160808384E082BF81E0809393030C9470
:104D10003526E8EDF0E080818E7F80831092E200FE
:104D200008951092DA001092E10008951F920F92F8
:104D30000FB60F9211242F933F934F935F936F936E
:104D40007F938F939F93AF93BF93EF93FF93809144
:104D5000E10082FF0BC08091E20082FF07C08091DA
:104D6000E1008B7F8093E1000E9400298091DA00AE
:104D700080FF19C08091D80080FF15C08091DA00B3
:104D80008E7F8093DA008091D90080FF96C080E109
:104D900089BD82E189BD09B400FEFDCF81E0809329
:104DA00094030E9497228091E10080FF19C08091B6
:104DB000E20080FF15C08091E2008E7F8093E200C8
:104DC0008091E20080618093E2008091D80080624F
:104DD0008093D80019BC85E0809394030E94A92297
:104DE0008091E10084FF2BC08091E20084FF27C006
:104DF00080E189BD82E189BD89B5982F917080FFDE
:104E0000FBCF8091D8008F7D8093D8008091E10006
:104E10008F7E8093E1008091E2008F7E8093E2009C
:104E20008091E20081608093E2008091900388236A
:104E300009F449C084E0809394030E94AA228091DF
:104E4000E10083FF29C08091E20083FF25C08091AB
:104E5000E100877F8093E10082E0809394031092C9
:104E600090038091E1008E7F8093E1008091E200C9
:104E70008E7F8093E2008091E20080618093E20067
:104E800042E060E080E00E9497258091F000886019
:104E90008093F0000E94A822FF91EF91BF91AF9103
:104EA0009F918F917F916F915F914F913F912F9142
:104EB0000F900FBE0F901F90189519BC109294037D
:104EC0000E94A52270CF8091E30087FD93E090932C
:104ED0009403B3CF1F920F920FB60F9211242F930A
:104EE0003F934F935F936F937F938F939F93AF9372
:104EF000BF93CF93DF93EF93FF93D091E900DF70DF
:104F00008091EC00C82FC17080FDC0E81092E900CC
:104F10008091F000877F8093F00078940E94AE2704
:104F20001092E9008091F00088608093F000CD2B12
:104F3000CF70C093E900FF91EF91DF91CF91BF91C6
:104F4000AF919F918F917F916F915F914F913F9121
:104F50002F910F900FBE0F901F9018951F93CF9316
:104F6000DF93CDB7DEB7AA970FB6F894DEBF0FBEBA
:104F7000CDBF85E993E02091F100FC012193CF01A1
:104F8000F3E08D399F07B9F70E94C0228091E800B5
:104F900083FF1EC180919503909196039A3008F08B
:104FA00017C1E92FF0E0E353F64D0C944429803803
:104FB00099F0823809F00CC1809199038F70873085
:104FC00008F006C18093E9008091EB0085FB8827FB
:104FD00080F91092E90006C08091910390919203AC
:104FE000911182609091E800977F9093E800809300
:104FF000F1001092F1008091E8008E77E5C08823DF
:1050000009F4D3C0823009F0E3C080919703811185
:10501000D6C0809199038F702FEF280F263008F0AB
:10502000D7C08093E9002091EB0020FFC8C09330E7
:1050300031F48091EB0080628093EB00C0C09091CE
:10504000EB0090619093EB0021E030E001C0220F73
:105050008A95EAF72093EA001092EA008091EB002B
:105060008860EACF8111B4C0109197031F778091B7
:10507000E3008078812B8093E3008091E800877FB4
:105080008093E8000E94CB258091E80080FFFCCF50
:105090008091E30080688093E30082E0111183E057
:1050A0008093940395C08058823008F091C080911D
:1050B0009703909198038C3D23E09207A1F583E03C
:1050C0008A838AE289834FB7F894DE01139620E041
:1050D0003EE051E2E32FF0E050935700E49120FFCF
:1050E00003C0E295EF703F5FEF708E2F90E0EA30E3
:1050F000C0F0C7968D939D932F5F243159F74FBF12
:105100008091E800877F8093E8006AE270E0CE013A
:1051100001960E94DA248091E8008B778093E80062
:1051200057C0C096E7CF6091990370919A03AE0182
:105130004F5F5F4F0E94C623BC01892B09F448C012
:105140009091E800977F9093E80089819A810E946E
:105150003825E1CF8038E1F58091E800877F8093A2
:10516000E800809190038093F10045CF811130C019
:1051700090919703923060F58091E800877F80934B
:10518000E800909390030E94CB25809190038823A0
:1051900011F084E005C08091E30087FDFACF81E043
:1051A000809394030E94AC2213C0809197038130B6
:1051B00079F481E0933009F080E0809392031092BB
:1051C000E9008091E800877F8093E8000E94CB256A
:1051D0008091E80083FF0AC08091E800877F809378
:1051E000E8008091EB0080628093EB00AA960FB6F6
:1051F000F894DEBF0FBECDBFDF91CF911F91089510
:105200000895CF93809194038823A1F0C091E90081
:10521000CF709091EC00892F817090FD80E8C82BB1
:105220001092E9008091E80083FD0E94AE27CF70C4
:10523000C093E900CF910895AA1BBB1B51E107C0A1
:10524000AA1FBB1FA617B70710F0A61BB70B881F16
:10525000991F5A95A9F780959095BC01CD010895A5
:1052600097FB072E16F4009407D077FD09D00E9413
:105270001C2907FC05D03EF4909581959F4F089519
:10528000709561957F4F0895EE0FFF1F0590F49183
:10529000E02D0994FB01DC0104C08D91019080197F
:1052A00021F441505040C8F7881B990B0895F99993
:1052B000FECF92BD81BDF89A992780B50895A8E1E7
:1052C000B0E042E050E00C948B29262FF999FECFF4
:1052D00092BD81BDF89A019700B4021639F01FBA49
:1052E00020BD0FB6F894FA9AF99A0FBE0895039666
:1052F000272F0E9466290E946529252F0E94662972
:10530000242F0C9466290196272F0E9466290C945D
:105310006529DC01CB01FC01F999FECF06C0F2BD85
:10532000E1BDF89A319600B40D9241505040B8F763
:105330000895F894FFCF37074007520771074A07CF
:1053400084079F079F078B078B078B078B078B07AC
:105350008B078B078B078B078B078B078B07C81077
:10536000C81020112011F5107211F510F5107D11E3
:105370000912181218127412F510F5107D12EA12A3
:10538000EA12F312F312F512F312F312F312EA1205
:10539000EA12FA12F312F312FA12D727FF27E828BB
:0E53A000FF27E82832285328E828AA28B62834
:1053AE00050175010000000173017501047601010C
:1053BE0073017401000000047A01FFFF4502280802
:1053CE00641E140A321E03834000000104400000D4
:1053DE0001003122562235223422962201F4F5F6AE
:1053EE00F7313332946697C60000000002030200C4
:0C53FE000001000101010101000101009B
:00000001FF
