:100000000C9492030C94D9030C94D9030C9491048E
:100010000C94D9030C94D9030C94D9030C94D903F0
:100020000C94D9030C94D9030C945C200C943021CB
:100030000C941B190C94D9030C94D9030C94D90378
:100040000C94D9030C94D9030C94D9030C94D903C0
:100050000C94D9030C9466190C94D9030C94D9030D
:100060000C94D9030C94D9030C94D9030C94D903A0
:100070000C94D9030C94D9030C94D9030C94D90390
:100080000C94D9030C94D9030C94D9030C94D90380
:100090000C94D9030C94D9030C94D9030C94D90370
:1000A0000C94D9030C94D9030C94D90317001500B0
:1000B00008001A0014002B0029000A00090007009C
:1000C00016000400010049000500190006001B008D
:1000D0001D0001008B002A5D2C000658E0004A003C
:1000E000010001001C0018000C00120013002F007A
:1000F0002A000B000D000E000F0033003400280012
:100100001100100036003700380087008A002B5D90
:100110002A0028002C5D4D000100010000000000B5
:1001200000000000000000000000000000000000CF
:1001300000000000000000000000000000000000BF
:1001400000000000000000000000000000000000AF
:10015000000000000000000000000000000000009F
:10016000000000000000000000000000000000008F
:10017000000000000000000000000000000000007F
:10018000000000000000000000000000000000006F
:10019000000000000000000000000000000000005F
:1001A000000000000000000000000000000000004F
:1001B000000000000000000000000000000000003F
:1001C000000000000000000000000000000000002F
:1001D000000000000000000000000000000000001F
:1001E000000000000000000000000000000000000F
:1001F00000000000000000000000000000000000FF
:1002000000000000000000000000000000000000EE
:1002100000000000000000000000000000000000DE
:1002200000000000000000000000000000000000CE
:1002300000000000000000000000000000000000BE
:1002400000000000000000000000000000000000AE
:10025000000000000000000000000000000000009E
:10026000000000000000000000000000000000008E
:10027000000000000000000000000000000000007E
:10028000000000000000000000000000000000006E
:10029000000000000000000000000000000000005E
:1002A000000000000000000000000000000000004E
:1002B000000000000000000000000000000000003E
:1002C000000000000000000000000000000000002E
:1002D000000000000000000000000000010001001C
:1002E00001000100010001002900010001000100DE
:1002F00001000100010049000100010001000100AE
:10030000010001008B002A5D2C000658E0004A0025
:1003100001000100010001000100010001000100D5
:100320002A00010001000100010001000100280075
:100330000100010001000100010001008A002B5DA5
:100340002A0028002C5D4D00010001001702150253
:1003500008021A0214022B0229020A0209020702E9
:1003600016020402010049020502190206021B02DC
:100370001D0201008B022A5D2C020100E0024A02EC
:10038000010001001C0218020C02120213022F02CB
:100390002A000B020D020E020F0233023402280063
:1003A0001102100236023702380287028A002B5DE2
:1003B0002A02280201004D02010001001700150069
:1003C00008001A0014002B0029000A000900070089
:1003D00016000400010049000500190006001B007A
:1003E0001D0001008B002A5D2C000658E0004A0029
:1003F000010001001C0018000C00120013002F0067
:100400002A000B000D000E000F00330034002800FE
:100410001100100036003700380087008A002B5D7D
:100420002A0028002C5D4D00010001001702150272
:1004300008021A0214022B0229020A020902070208
:1004400016020402010049020502190206021B02FB
:100450001D0201008B022A5D2C020100E0024A020B
:10046000010001001C0218020C02120213022F02EA
:100470002A000B020D020E020F0233023402280082
:100480001102100236023702380287028A002B5D01
:100490002A0228024C024D02010001003F003E00EA
:1004A0003D003C003B003A002900DE5C285D010075
:1004B0000100010001004900005C295D010001000C
:1004C000010001008B0001002C000658E0004A00EA
:1004D000010001004000410042004300440045008B
:1004E0002A005000510052004F0001000100280076
:1004F0000100010001000100010001008A002B5DE4
:100500002A0028002C5D4D000100010001000100BF
:1005100001000100010001002900DE5C285D0100EE
:100520000100010001004900005C295D010001009B
:10053000010001008B002A5D2C000658E0004A00F3
:10054000010001000100F400F600F500F9000100CF
:100550002A00F200F100F000F300FA000100280088
:100560000100010001000100010001008A000100FA
:100570002A0028002C5D4D00010001002F022402FA
:100580001F0287022E022B00290034002D023402A4
:100590002D0033020100490022022102200238020C
:1005A0001E0201008B00E2002C00E100E0004A0086
:1005B00001000100230225023602300230002F0024
:1005C0002A00890226023702320232003400280053
:1005D00001002F002E003600870001008A00E30092
:1005E0002A0028004C004D000100010004033000E7
:1005F000000008036C003500360000000A03780094
:1006000063006400300000000403090409023B0099
:10061000020100A0320904000001030101000921C8
:10062000110100012240000705810308000A0904A6
:1006300001000103000000092111010001228A00CC
:100640000705820320000A1201100100000008665D
:1006500032000001000102030105010902A1018528
:10066000020901A1000509190129051500250195B7
:1006700005750181029501750381010501093009A4
:10068000311581257F950275088106093815812568
:100690007F950175088106050C0A38021581257FB2
:1006A000950175088106C0C005010906A1018505EF
:1006B000050719E029E71500250195087501810254
:1006C0000507190029EF1500250195F07501810234
:1006D0000508190129059505750191029501750314
:1006E0009101C005010906A101050719E029E715D7
:1006F00000250195087501810295017508810105A4
:1007000007190029FF150026FF00950675088100CE
:1007100005081901290595057501910295017503D3
:100720009101C00011241FBECFEFDAE0DEBFCDBFC4
:1007300004B603FE27C08091440290914502A09127
:100740004602B09147028730904BA740B04BD1F49E
:1007500010924402109245021092460210924702F3
:1007600014BE84B7877F84BF0FB6F894A895809194
:100770006000886180936000109260000FBEE0E02E
:10078000F8E3099511E0A0E0B1E0E2E1F7E402C08E
:1007900005900D92A034B107D9F722E0A0E4B1E0B2
:1007A00001C01D92A434B207E1F70E949C1D0C9475
:1007B0005F230C9400008EE14A9B02C08150E1F758
:1007C0004A9BFECF08955A9880E28A95F1F75A9A8B
:1007D0000895FC013BE03A95F1F720E090E080E0DD
:1007E00031E040E14A95F1F7880F4A9B02C08160F1
:1007F000232742E04A95F1F7000040E14A95F1F7DE
:100800009F5F6913EECF90E19A95F1F799B132E0CD
:100810003A95F1F7000040E14A95F1F792FB9927EC
:1008200090F992272081920F90830895EF92FF9282
:100830000F931F93CF93DF930F92CDB7DEB719823B
:100840008C017C01E60EF11C0E151F0561F481E0A0
:100850009981911180E00F90DF91CF911F910F91BD
:10086000FF90EF9008950E94DB0368E0CE010196AF
:100870000E94E903F80181938F01E6CF9093420132
:100880008093410160934001529A5A9A089590933F
:100890004201809341016093400152985A9AEA9A2A
:1008A000E9E6F0E080818F7C808308956150770BCA
:1008B00091E001C0990F6A95EAF720E031E09111CB
:1008C00008C0222391F05A9A80E28A95F1F75A984B
:1008D0000895492F482339F05A9A232740E24A9530
:1008E000F1F79695ECCF5A98F9CF5A98EDCFFF9241
:1008F0000F931F93CF93DF93EC018C01060F111D13
:10090000C017D10731F4DF91CF911F910F91FF9064
:100910000895F9900E94E30368E08F2D0E94560429
:10092000EFCF1F920F920FB60F9211240F931F93C8
:100930002F933F934F935F936F937F938F939F93E7
:10094000AF93BF93EF93FF93CF93DF930F92CDB706
:10095000DEB719820E94DB0367E0CE0101960E9498
:10096000E903082F069506950695982F92959570A0
:10097000202F2570920F292F2370969596958770BA
:10098000920F891344C08981811141C08091400137
:100990008017E8F120E12A95F1F75A9A529A82E0FD
:1009A0008A95F1F700C0A8E00A9FC00111240091C8
:1009B000410110914201080F191F5A98F8016581F1
:1009C000662321F0868197810E9477040E94E303C9
:1009D000F0E1FA95F1F75A9852985A9A20E12A953F
:1009E000F1F7D80112966C911297662331F11396A4
:1009F0008D919C910E941604D801ED91FC91882361
:100A000011F088E001C082E080830E94DB030F9038
:100A1000DF91CF91FF91EF91BF91AF919F918F9116
:100A20007F916F915F914F913F912F911F910F9106
:100A30000F900FBE0F901F901895ED91FC91E1CF94
:100A40000F931F93CF93DF9320914001281719062E
:100A50000CF471C08C0193E0000F111F9A95E1F71F
:100A6000C0914101D0914201C00FD11FF894529A18
:100A70005A9825E02A95F1F70000982F96959570E1
:100A80008570980F892F837096959695980F092BEE
:100A90000E94E30300C067E0802F0E94560480E1BB
:100AA0008A95F1F752985A9A4A9B17C087E090E0CE
:100AB0004A9915C06D81662321F18E819F810E9424
:100AC000160481111EC0529A5A9AE881F98182E077
:100AD0008083789482E090E00DC000C0E5CF01975C
:100AE00071F4529A5A9AE881F98181E0808378946E
:100AF00081E090E0DF91CF911F910F91089500C0A8
:100B0000D7CF0E94DB0320E22A95F1F75A98529A38
:100B100080E18A95F1F76A81662321F08B819C81BF
:100B20000E9477040E94E303E881F981108278949F
:100B300090E080E0DFCF84E090E0DCCFCF93DF93E4
:100B4000A8E3B1E04CE351E0C1E0D0E08D91E82FA3
:100B5000E295EF70F0E061A18F709E0101C0220F5D
:100B60008A95EAF7922F9095962391A382A1822BE2
:100B700082A34A175B0751F7DF91CF91089508953B
:100B80000C94BF050E9455070E949E05A1E3B1E0A9
:100B900061E070E08D91E82FE295EF70F0E041A107
:100BA0008F709B0101C0220F8A95EAF7922F9095D2
:100BB000942391A382A1822B82A381E0A833B8075A
:100BC00049F7209A559A289A5D9AEBE4F1E0A3E45C
:100BD000B1E011921D9281E0E335F807D1F70C9452
:100BE0008D089F92AF92BF92CF92DF92EF92FF92C9
:100BF0000F931F93CF93DF9380910101C4E0D0E066
:100C0000882311F0D0E0C0E088E3C82E81E0D82E20
:100C1000AE014D5B5E4F7A018A01AA24A394B12CE8
:100C200025E0922EF60181916F01E82FE295EF7099
:100C3000F0E021A18F70A50102C0440F551F8A95D5
:100C4000E2F7CA01922F982B91A392A18095892354
:100C500082A350EA5A95F1F7E1E3F1E020E050E099
:100C600040E03191A32FA295AF70B0E090968C91A7
:100C700090E03F7002C0959587953A95E2F780FD28
:100C800039C0C501042E01C0880F0A94EAF7282B49
:100C90004F5F5F4F4730510521F7F8018081821780
:100CA00019F02083909200010E949E050F5F1F4F54
:100CB000FCE3CF16F1E0DF0609F0B4CF809100012C
:100CC000882359F08150809300018823A9F08FE98F
:100CD0009FE00197F1F700C0000081E0DF91CF9124
:100CE0001F910F91FF90EF90DF90CF90BF90AF904A
:100CF0009F90089580E0CBCFC55BDE4FF7019191C7
:100D00007F0199938F5F8430C9F7E7CFCF93DF934B
:100D100020910101D0E0C0E0222311F0C4E0D0E036
:100D20000E947007009731F0029709F4289881E03B
:100D300090E00FC0289AC55BDE4F40915E01509154
:100D40005F016091600170916101488359836A83FA
:100D50007B83DF91CF9108950E94F105809101017D
:100D6000E4E0F0E0882311F0F0E0E0E0E55BFE4F26
:100D700090E080E020E0DC01A25ABE4F4C9131911E
:100D8000431321E03C93019684309105A1F78091B3
:100D90005701820F809357010895CF93DF930E94EC
:100DA0003907882309F443C00E94F10580910101AD
:100DB000C4E0D0E0882311F0D0E0C0E0C55BDE4F96
:100DC00044E050E0BE018AE591E00E941023488192
:100DD00059816A817B8140935A0150935B016093F2
:100DE0005C0170935D010E948606892BE1F05D989D
:100DF000809153018F5F80935301863070F0809112
:100E00000101F0E0E0E0882311F0E4E0F0E0E55BD0
:100E1000FE4F10821182128213820E94950881E097
:100E2000DF91CF9108955D9A10925301F6CF0E9401
:100E3000AC0680910101811112C090E080E0855BD9
:100E40009E4F40915A0150915B0160915C017091FD
:100E50005D01FC014083518362837383DECF84E0B4
:100E600090E0EDCFE82FF0E0E55BFE4F8081089544
:100E7000089580915401811111C08091D800806142
:100E80008093D8008AE18A95F1F700C09091D9004B
:100E9000892F817090FF82E08093540181E09091CE
:100EA0005401913009F080E008950E943907809341
:100EB00001010E943907882321F00E946407789479
:100EC00008950E946A07FBCF63E070E082E091E042
:100ED0000C943E0463E070E082E091E00C944704DF
:100EE0000F931F93CF93DF938C0190911B018091FF
:100EF0001A01D0E0C0E0981759F082E090E00E941B
:100F00002005EC01892B21F480911A0180931B01AB
:100F10008091550190915601082B192B90E080E0AB
:100F2000012B11F081E090E00E942005892B71F4E3
:100F30008091570180931A01109256011092550129
:100F4000CE01DF91CF911F910F91089581E090E044
:100F50009093560180935501F3CF0E94840D8093A6
:100F600062010C943E080C947D0DCF93DF93EC014D
:100F70000E947517BE0190E080E0DF91CF910C9444
:100F8000AC14CF93DF93D62FC42F0E940E15882365
:100F900051F08D2F0E940E15882329F08C2FDF91A0
:100FA000CF910C942E158C2FDF91CF910C944F156F
:100FB000CF93FB018A322DE5920769F158F488320C
:100FC0002DE5920791F089329D45C1F0C1E08C2F4B
:100FD000CF9108958C322DE59207B1F0D0F18D328A
:100FE0009D45A1F7C28185E011C0C28181E090E0FA
:100FF000CC2369F30E94B507C0E0E9CFC281CC23BE
:1010000031F380E890E0F6CFC2818BE0CC2399F1F8
:101010000E942E15F1CFC281CC2381F08091630113
:10102000811103C081E08093630189E00E942E1545
:1010300045E06AE089E00E94C107DECF10926301BB
:1010400089E00E944F1545E06AE089E00E94C107EF
:10105000BECFC281CC2349F080916301811103C0CE
:1010600081E0809363018AE0E1CF8AE00E944F151E
:1010700010926301E8CF0E944F15A9CF089581E037
:1010800008950C94D80708950C9443081F93CF93A8
:10109000DF9300D000D00F92CDB7DEB749835A83DB
:1010A0006B833091770189819A8131111DC066234C
:1010B000B9F02223A9F00E941E16182F682F8981EB
:1010C0009A810E94CA1569817A81812F0F900F90B1
:1010D0000F900F900F90DF91CF911F910C94F60815
:1010E0000E94F615182FEFCF0E941E1669817A8193
:1010F000EDCFFC01262F4081518162817381848173
:101100000C944608CF93DF93EC0160E00E947908CD
:10111000BE01DF91CF910C9444080E9462178111A7
:1011200002C00E9404180C94AD070C94C0050895E9
:101130000C94970881E008950C949A08CF93C82FD7
:101140000E9498088C2FCF910C949C0808950E94BF
:1011500023110E94A6082FEF84E39CE021508040D9
:101160009040E1F700C000000C948A190F931F9380
:10117000CF93DF93EC0161E00E9479088C01BE01FE
:101180000E944108882329F1BE01C8010E946E0B0C
:101190008823F9F0BE01C8010E94C00B8823C9F062
:1011A000BE01C8010E94E30C882399F08A8188233C
:1011B00039F001158CE5180751F00E3D1C4579F00A
:1011C000CE01DF91CF911F910F910C943F080E94A7
:1011D000A70880E0DF91CF911F910F9108950E94A1
:1011E0000418F7CF90E080E008950895972F70E0FD
:1011F00027E0929F600D711D1124FB0198E3899FE8
:10120000E00DF11D1124EE0FFF1FE455FF4F8591F6
:1012100094910895FC01EE0FFF1FE451FA4F859160
:1012200094910895CF93DF930E94F6080E94090AD3
:10123000EC01811521E59207E8F5811530E593076A
:1012400008F09BC08F3F910509F0F0F4803F9105B5
:1012500008F085C0803E910580F4803C910508F03F
:1012600080C08130910561F0009751F00497813A78
:10127000910530F0D0E0C0E003C0883E9105D0F782
:10128000CE01DF91CF9108958115904338F4C115B7
:1012900080E2D807A8F3CE019F7065C0C11590E425
:1012A000D90708F067C0CE019927D3FF60C0EC01D1
:1012B000D86CE6CF811525E5920700F5811534E558
:1012C000930708F08EC0811543E5940708F076C0B7
:1012D000C11582E5D80708F46CC0CE018370992748
:1012E00021E030E002C0220F331F8A95E2F7C69555
:1012F000C69580E2C89FE001112457C0C11599E549
:10130000D907A8F4C11528E5D20708F06FC0C115A8
:1013100036E5D30708F0AECF8C2F0E94A00AC82F65
:10132000D0E0DC2FCC27CC27DF71D062A9CFC1154C
:101330004AE5D40708F45FC0CE019056811590426B
:1013400008F098CF8D2F8F710E94A00A90E0982FFF
:10135000882788279F719C012C2BE901E6CFD06557
:101360008FCF805C91090E940A09EC0189CFEC01C2
:10137000D06C86CFDF70D06A83CFE4E096958795F6
:10138000EA95E1F783702C2F26952695237040E28D
:10139000249F90011124382B8C2F8370C1E0D0E062
:1013A00002C0CC0FDD1F8A95E2F7C22BD32BDC687D
:1013B00067CFDC2FCC27C16FD06A62CF83709927AB
:1013C00021E030E002C0220F331F8A95E2F7C69574
:1013D000C69590E2C99FE0011124C22BD32BDA6895
:1013E0004FCFD82FCC27C46FD06A4ACFDC2FCC2761
:1013F000C06FD06A45CF8C2F8F700E94A00A34E056
:10140000D695C7953A95E1F7CF709C2FEC01D0693E
:1014100037CF82389105B1F1B0F48133910509F4E9
:1014200075C048F48932910509F469C08A32910582
:1014300009F473C008958533910509F459C08933BF
:10144000910501F10895833E9105A9F138F4803E9C
:101450009105F9F0823E910549F10895863E910586
:10146000A9F1873E9105C9F1843E910519F52091B6
:10147000360221FF1FC08091350284FD14C087EE23
:1014800090E00895209135022370A1F080EE90E065
:1014900008952091350220FD47C03091360230FF7B
:1014A00009C024FF44C090E080E004C020913502D0
:1014B00022FDF7CF08952091350222FD3BC03091E7
:1014C000360230FDE3CF24FFF5CFEDCF209135027A
:1014D00023FFF0CF24FDE7CFD2CF2091350223FDAB
:1014E0002CC03091360231FFEECF84EE90E00895AB
:1014F0002091350225FFDECF89E290E0089520910A
:10150000350225FFD7CF85E390E00895209135027D
:1015100026FFD0CF8AE290E008952091350226FF81
:10152000C9CF81E390E0089589E390E0089583EEC8
:1015300090E0089582EE90E0089586EE90E00895A0
:101540009091350292FF06C0282F28712830F9F4B7
:10155000877F846093FF06C0282F28712831F1F41B
:10156000877E84612091360220FF06C0382F3871B3
:101570003830D9F4877F816021FF06C0282F287179
:101580002831D1F4877E816194FD877E0895282FCC
:1015900024712430F9F68B7F8860DCCF282F2471EA
:1015A000243101F78B7E8861DDCF382F31713130E6
:1015B00019F78E7F8860E0CF282F2171213121F724
:1015C0008E7E8861E1CFAF92BF92CF92DF92EF9291
:1015D000FF920F931F93CF93DF937C015B01C42F86
:1015E000D22FFC0182818823F9F0409366010E948A
:1015F0004B19909365018093640180E28C0F8830D1
:1016000008F061C0C77081E001C0880FCA95EAF791
:10161000DF91CF911F910F91FF90EF90DF90CF90CE
:10162000BF90AF900C94CB0E10916601141340C084
:1016300080916401909165010E9457196C01B70176
:10164000C5010E948713C816D90690F5C0E2CD0FD8
:101650001D17B9F080E2810F883040F4177081E0E7
:1016600001C0880F1A95EAF70E94D20EC83048F4DC
:1016700081E09D2F977001C0880F9A95EAF70E942C
:10168000CB0E802F0E94B80EC830E8F4D77081E0EE
:1016900001C0880FDA95EAF7DF91CF911F910F9182
:1016A000FF90EF90DF90CF90BF90AF900C94D20E50
:1016B00080E28C0F883038F4C77081E001C0880F59
:1016C000CA95EAF7E9CFDF91CF911F910F91FF9073
:1016D000EF90DF90CF90BF90AF9008950F939C0153
:1016E000CB01233F4CE5340759F1A8F4283DFCE534
:1016F0003F0701F1293D4CE53407D1F1273D3C4539
:1017000091F406E221EE41EE67ED7CE50E94E30AEA
:1017100080E00F910895253FFCE53F07E9F0B0F028
:10172000263F3C45F9F0FC018281882339F1109273
:101730006601EFCF07E225EE45EE68ED7CE5E6CFEA
:1017400006E221EE40EE63EF7CE5E0CF07E225EE16
:1017500044EE64EF7CE5DACF06E221EE42EE65EF7F
:101760007CE5D4CF07E225EE46EE66EF7CE5CECFF2
:1017700008E221E045EE69ED7CE5C8CF81E0C9CF04
:10178000CF93DF93EC01FB018281882309F419C117
:10179000C230FCE5DF07C0F1C6319CE5D90730F067
:1017A0009E012A5F3C452930310570F50E947A1769
:1017B0009093360280933502C031ECE5DE0709F4E0
:1017C000CFC008F05BC0C8308CE5D80709F4B6C0BC
:1017D00088F5C430ECE5DE0709F4A8C0C0F4C230D7
:1017E0008CE5D80709F49CC0809135028260C33033
:1017F000DC4509F498C080913502909136020E9430
:1018000088170E94231180E0DF91CF910895809185
:1018100035028061C630ECE5DE0709F484C08091B2
:1018200035028860C730DC4508F47DC08091350200
:10183000806279C0CC308CE5D80709F489C070F497
:10184000809135028C60CA30ECE5DE0709F46BC08C
:1018500008F478C0809135028E7F65C0CE308CE56B
:10186000D80709F479C0809135028B7FCF30DC45F1
:1018700008F459C0809135028F7E55C0CB3FECE50E
:10188000DE0709F457C030F5C3318CE5D80709F4F9
:101890006FC078F4C131ECE5DE0709F465C0C231F0
:1018A000DC4509F0A8CF0E942311809135028F7783
:1018B0003AC0C5318CE5D80709F462C008F476C097
:1018C000809136028160CA3FDC4509F094CF809355
:1018D000360291CFCF3FFCE5DF0709F44DC088F415
:1018E000809136028D7FCD3F9CE5D90781F38091B1
:1018F00036028E7FCE3FDC4550F380913602836006
:10190000E6CFC130FDE5DF0709F459C008F444C053
:1019100080E0C230DD4509F06ECF0E9406186BCF23
:101920008091350281608093350265CF80913502C8
:101930008460F9CF809136028260C9CF80913502F0
:101940008064F1CF0E942311809135028068EBCF33
:10195000809135028D7FE7CF80913502877FE3CF7D
:10196000809135028F7DDFCF809135028F7BDBCF79
:1019700080913502837FD7CF809136028C7FA7CFAD
:101980008091350282FB992790F921E0922790FB04
:1019900082F990FB83F9C7CF80913602982F9095FA
:1019A00091708E7F892B90FB81F991CF0E9423113A
:1019B00090913502892F97FB87F98058B4CF81E049
:1019C000ACCF81E021CFCF93DF93EB0186319C45F3
:1019D00011F50E94B3169A81992399F08A7A91E0C1
:1019E00009F490E090936701811109C089E20E9497
:1019F0008E160E94FF1680E0DF91CF91089585E357
:101A0000F6CF80916701811104C089E20E9495168A
:101A1000F0CF85E3FBCF81E0EFCF90936D01809312
:101A20006C010895E0916C01F0916D01309721F007
:101A30000190F081E02D099480E00895E0916C011F
:101A4000F0916D01309799F020913001222359F0E7
:101A50002091350227FF07C0DC012C9111962C93B1
:101A6000119725E02C930280F381E02D09940895CD
:101A7000E0916C01F0916D01309739F022E0DC01CA
:101A80002C930480F581E02D0994089520916A013A
:101A900030916B012817390771F090936B01809397
:101AA0006A01E0916C01F0916D01309721F00680A0
:101AB000F781E02D09940895209168013091690122
:101AC0002817390771F09093690180936801E091BC
:101AD0006C01F0916D01309721F00084F185E02DCB
:101AE0000994089585B7806885BF85B7806885BFEC
:101AF0000895089508950C94790D08950E94720D2B
:101B00000E947A0D0C947B0D81E008950C94840D55
:101B10000E9442190E94C2050E949B190C94B307AF
:101B2000BF92CF92DF92EF92FF920F931F93CF93CA
:101B3000DF93CDB7DEB72A970FB6F894DEBF0FBE9E
:101B4000CDBF0E94CD060E94860D882309F45EC099
:101B50008FE6C82E81E0D82E10E000E0B02E802F56
:101B60000E943207E82EF601F1906F01F81609F491
:101B700047C08091000281FD0E9438079F2D9E255D
:101B800080E0FF24F394292F2F21B1F18E83BF82AF
:101B9000EF2081E009F480E088870E944B19816082
:101BA000782F9A8789874E815F8168858A850E9410
:101BB000270EF801E159FE4F8081F826F0820E943D
:101BC000461B0E94120D90916E01891781F10E94AF
:101BD000120D80936E012A960FB6F894DEBF0FBEE9
:101BE000CDBFDF91CF911F910F91FF90EF90DF90CC
:101BF000CF90BF900C949E088F5FFF0C873019F632
:101C00000F5F1F4F0830110509F0A8CF8FEF8983B0
:101C10008A831B820E944B198160782F9D838C835D
:101C200049815A816B818D810E94270EC8CF2A96E7
:101C30000FB6F894DEBF0FBECDBFDF91CF911F91DD
:101C40000F91FF90EF90DF90CF90BF900895CF93CA
:101C5000DF93CDB7DEB72B970FB6F894DEBF0FBE7C
:101C6000CDBF4F83588769877A878B871E821D82F5
:101C700085E0FE013796DE01119601900D928A955E
:101C8000E1F749815A816B817C818D819E812B9600
:101C90000FB6F894DEBF0FBECDBFDF91CF910C948D
:101CA0008A13FC01808191810C946016CF93C82F18
:101CB000882369F18CEF8C0F813AA0F46C2F80910E
:101CC0001C0190911D010E941F18882329F08C2F60
:101CD0000E9495160E94FF168C2F0E948E16CF919F
:101CE0000C94FF1680E28C0F883048F4C77081E0B6
:101CF00001C0880FCA95EAF70E94B616F0CFC03F20
:101D000030F08C2F0E94401ACF910C942B1BCF9156
:101D10000895882361F19CEF980F913A20F40E9476
:101D200095160C94FF1690E2980F983050F4877037
:101D300091E001C0990F8A95EAF7892F0E94BC169D
:101D4000F0CF9BE5980F933020F490E080E00C9466
:101D5000460D98E5980F973120F490E080E00C94C0
:101D60005C0D803F20F00E94A81A0C942B1B089554
:101D7000CF93C82F0E94560EC93349F42FEF87EE38
:101D800093E0215080409040E1F700C000008C2F8C
:101D9000CF910C94890E882321F00E94B6160C94E2
:101DA000FF160895882321F00E94BC160C94FF169C
:101DB0000895BF92CF92DF92EF92FF920F931F93FD
:101DC000CF93DF936C01D62FC72FFC0105810295BD
:101DD0000F70128111110E94D3160E94AC16E82ECA
:101DE000882391F01123D1F08C2F807F803421F053
:101DF00080E28D0F883090F082E00E944A170E94A6
:101E0000AC1691E0E82EE926BC2EB2949FE0B922F0
:101E1000EB2DF0E0EF59FC4D0C94F622E12CF4CFC1
:101E20000C2F0F70C07F11F00295007F1123A9F0D5
:101E3000002359F080E28D0F883010F0D11109C0D5
:101E4000802F0E94B6160E94FF168D2F0E94560EFC
:101E500014C0802F0E94C616F6CF8D2F0E94890EC7
:101E6000002359F080E28D0F883010F0D1112CC082
:101E7000802F0E94BC160E94FF162B2D2850330B7A
:101E80002430310520F40E94120D0E949E08EE209D
:101E900009F482C10E94A81680FD7EC1F60112825B
:101EA0000E94A2160E942E15C6010E94ED100E94EB
:101EB000A216DF91CF911F910F91FF90EF90DF90CD
:101EC000CF90BF900C944F15802F0E94CC16D3CF8B
:101ED000FC2FFF70FF2EC07FC03219F0F29480EF0C
:101EE000F822DD2369F0D13049F1112391F100236B
:101EF00051F1F601858180FFA8CF8F70858323C0C3
:101F0000112381F0011106C00E94E6168F290E945C
:101F1000CB0EB3CF0130C1F70E94E6168F290E9485
:101F2000EC16ABCF011106C00E94F5168F2D0E9452
:101F3000D20EA3CF013009F4A0CFF6CF112329F0A0
:101F4000063008F09ACF8F2DE2CF053008F095CFFC
:101F5000EDCF002359F3D93349F4FFEF27EE33E0F7
:101F6000F15020403040E1F700C000008D2F0E946A
:101F7000890E83CF8D2F112329F00E94401A0E94D1
:101F80002B1B7BCF0E94A81AFACF8C2F837009F0ED
:101F900041C0111172CF4D2F429546954770440FA5
:101FA000440F0D2F0F7010E030E020E0042E04C02D
:101FB000000F111F221F331F0A94D2F760E070E058
:101FC000CB01D4FF0FC06FE070E080E090E004C070
:101FD000660F771F881F991F4A95D2F760957095F5
:101FE00080959095C695C695C370602B712B822BFA
:101FF000932BC23049F058F4C13019F00E94C0143C
:102000003CCF0E94AE1439CF0E94D21436CF0E942A
:10201000AC1433CF8695112311F08C2F8170882357
:1020200009F42BCF4D2F429546954770440F440F2E
:102030000D2F0F7010E030E020E0042E04C0000FE0
:10204000111F221F331F0A94D2F760E070E0CB010A
:10205000D4FF0FC06FE070E080E090E004C0660F36
:10206000771F881F991F4A95D2F7609570958095C4
:102070009095C695C695C370602B712B822B932BC0
:10208000C23049F058F4C13019F00E94A515F5CEC0
:102090000E949315F2CE0E94B715EFCE0E94E8146D
:1020A000ECCECF70112329F08C2F0E942E158D2F8E
:1020B0002ECF8D2F0E94D20E8C2F0E944F15DDCE79
:1020C000D23F89F160F4D03FC9F0D13F29F111230B
:1020D00009F442C00111B9CE8C2F8F7121C0D33FBA
:1020E00039F1D43FA1F7112369F1CF718C2F0E94F0
:1020F0002E1563E08C2F0E943517BFCE112341F0BF
:10210000053008F0BACE8C2F8F710E947215B5CEB3
:10211000063008F0B2CEF7CF8C2F8F71112369F201
:102120000E942E15AACE8C2F8F711123C9F3C5CF13
:10213000112329F08C2F8F710E9419159ECE0E94B9
:10214000F4149BCE81E00E944A17023008F495CE29
:1021500082E00E944A1791CE002359F0D93309F04A
:1021600005CF8FEF97EEE3E081509040E040E1F73C
:10217000FBCE8C2F8F71A1CF4C2F4F706D2FC601CE
:102180000E94F2080E94241478CE4C2F4F706D2FBD
:10219000C6010E94F50871CEDF91CF911F910F917A
:1021A000FF90EF90DF90CF90BF9008950F931F9313
:1021B000CF93DF93EC01688179818A810E946A164E
:1021C0008C010E94C9150E94AB14B801CE01DF91A9
:1021D000CF911F910F910C94D90ECF93DF93EC0107
:1021E0008B819C81892B29F08881998189238F3F5C
:1021F00059F4DF91CF910895CE010E94D610CE01FF
:10220000DF91CF910C948208CE010E94B608811113
:10221000F3CF0E94AC16882361F38A81882349F3A7
:1022200082E0DF91CF910C944A170E94D3160E944E
:10223000E3160E94FF160E94521C0C942B1B0E9456
:102240009C160C9415110E94C3160C941F11E92FB3
:10225000E295EF70E250EE3070F4F0E0EF58FC4D94
:102260000C94F622803F19F020F4883E20F481E09F
:102270000895843FE1F380E00895883EC0F3813FF4
:10228000D1F7F5CF93FB882780F908950E94601657
:102290000C942711CF93DF9300D000D00F92CDB7CD
:1022A000DEB70F900F900F900F900F90DF91CF91AE
:1022B0000895CF93DF9300D000D000D0CDB7DEB724
:1022C00026960FB6F894DEBF0FBECDBFDF91CF913B
:1022D00008951F93CF93DF93C091780116E080910A
:1022E00079018C1304C0DF91CF911F910895D0E044
:1022F0001C9FF0011D9FF00D1124E658FE4F4081F8
:10230000518162817381848195810E945911219646
:10231000C770E5CF4091AA015091AB016091AC012B
:102320007091AD018091AE019091AF010C94591163
:102330001F93CF93DF938091AF01807FA9F48091A9
:10234000AC01882389F080917801C0917901609176
:10235000AA017091AB01A091AD01B091AE01D62F51
:10236000D72316E0C81304C0DF91CF911F910895C1
:1023700090E0109711F0DF3F19F401968770F2CFCB
:10238000189F9001199F300D1124F901E658FE4F56
:1023900041814713F2CF40814613EFCF4281411173
:1023A000ECCF438154814A1B5B0B4436510528F71F
:1023B0008091AF018F7080618093AF01F901E15886
:1023C000FE4F80818F70806180838AEA91E00E9455
:1023D000ED10DF91CF911F910C946911AF92BF92D4
:1023E000CF92DF92EF92FF920F931F93CF93DF93E1
:1023F000CDB7DEB761970FB6F894DEBF0FBECDBF85
:102400008C0185E0F801DE011D9601900D928A9500
:10241000E1F7F80140815181E2808AEAC82E81E02B
:10242000D82E6091AD017091AE016115710509F46E
:102430004FC19091AA012091AB01892F82238F3F38
:1024400009F446C1A380B480F090AC01F501E61B0D
:10245000F70BFF2009F40AC18091AF01382F307FBC
:10246000E436F10508F0C0C0311179C0FE2C251307
:1024700023C0941321C0E1101FC08F70806180932E
:10248000AF010E948A11C6010E94ED108091AF0138
:10249000F80185838F2D61960FB6F894DEBF0FBECD
:1024A000CDBFDF91CF911F910F91FF90EF90DF9003
:1024B000CF90BF90AF900895AB2829F0842F85234B
:1024C0008F3F09F021C180E0F82FF170DF2E80FFEF
:1024D0003CC0809178012091790136E0821315C0CB
:1024E0004D875E878D859E850E946016292F2295D7
:1024F0002F702230F0F0243018F59F70F1F0F801C1
:102500009581907FD1F4D12C1EC090E0389FF001CE
:10251000399FF00D1124E658FE4F6181651306C006
:102520006081641303C062816E110FC001968770D1
:10253000D5CF9F7011F0882331F3805E883018F377
:10254000C8010E94ED10FD2CA5CFEE2009F4A2CF0A
:102550008091AF0181608093AF01F12C9BCF251357
:1025600014C0941312C0E11010C0F8018583C80193
:102570000E94ED1086E0F801AAEAB1E001900D9208
:102580008A95E1F70E948A1185CF4D875E878D85F8
:102590009E850E944611882319F1EE2009F1809151
:1025A000AF01803270F02091AA013091AB013887E1
:1025B0002F831986BB86AA868C87CE0107960E9438
:1025C000ED1086E0F801AAEAB1E001900D928A953B
:1025D000E1F70E9498110E948A11FF24F3945ACFC8
:1025E000C8010E94ED10F9CF311113C07A2DB98ABC
:1025F000A88A6E2D89890E944A118AEA91E00E9478
:10260000ED1086E0F60111928A95E9F70E948A1191
:10261000A4CF25130FC094130DC0E1100BC0F80117
:102620008583C8010E94ED1086E0F60111928A951B
:10263000E9F730CF4D875E878D859E850E944611D4
:10264000882371F2EE2061F28091AF01803208F4AC
:10265000B8CF2091AA013091AB013A8329831B8224
:10266000BD82AC828E83CE010196A9CFE436F105FE
:1026700010F5FE2CEE2009F4B3CF25130BC09413F4
:1026800009C086E0F801AAEAB1E001900D928A95AE
:10269000E1F700CF4D875E878D859E850E944611AC
:1026A00081118FCF8091AF0181608093AF01C8010C
:1026B0000E94ED10EFCE7A2DB98AA88A6E2D8989F5
:1026C0000E944A1186E0F60111928A95E9F75ACFE5
:1026D000EE2009F485CF4D875E878D859E850E940B
:1026E0004611F82E882309F47BCF86E0F801AAEA88
:1026F000B1E001900D928A95E1F78AEA91E00E949B
:10270000510E0E9498113ECF81E08E25DDCE84E6E9
:1027100090E008951F93CF93DF93CDB7DEB72C974A
:102720000FB6F894DEBF0FBECDBF4F8358876987C1
:102730007A878B879C87CE0107960E94EE118823AB
:1027400069F08A859B85892B39F04F815885842FC4
:1027500085238F3F09F071C016E05FC086E0FE015F
:102760003796DE01119601900D928A95E1F78A85E0
:102770009B85892B89F38F81988589238F3F61F30E
:102780002091790130E0C901019687709927409125
:1027900078014817190671F40E94231110927901EB
:1027A0001092780186E0EAEAF1E0DF011D928A9555
:1027B000E9F7D2CF96E0929FD001939FB00D1124FC
:1027C000A658BE4FFE01319601900D929A95E1F701
:1027D000809379010E946911BFCF819FC0011124AC
:1027E00086589E4F0E94EE118823E9F0E09178010F
:1027F0001E9FF0011124E658FE4F408151816281F5
:102800007381848195810E9459118091780190E0B3
:102810000196877099278093780180917801909133
:1028200079018913DACF2C960FB6F894DEBF0FBE6C
:10283000CDBFDF91CF911F91089569857A858B85F2
:102840009C850E94591188CFEF92FF920F931F939E
:10285000CF93DF938C01892B81F0F12CEE24E3944C
:10286000E8012196F8018491843770F4843008F0EF
:102870005FC08130B1F08230A1F1DF91CF911F9123
:102880000F91FF90EF900895853709F44CC008F43C
:102890003DC09CE7980F903780F78F770E94890E94
:1028A00049C00E5F1F4FFE01849190E2980F98304F
:1028B00060F48770FE2D01C0FF0F8A95EAF78F2F15
:1028C0000E94D6160E94FF1602C00E94560E8F2D3F
:1028D000815030F2EFE9FFE03197F1F700C00000DE
:1028E000F7CF0E5F1F4FFE01849190E2980F983052
:1028F00050F48770FE2D01C0FF0F8A95EAF78F2FE5
:102900000E94DC16DFCF0E94890EE1CF0E5F1F4FC1
:10291000FE01C491C150D8F28FE99FE00197F1F711
:1029200000C00000F7CF0E5F1F4FFE01F490CFCF25
:102930000E94560E8E01CBCF08950C949C140E94D9
:102940009D146093D7017093D8018093D90190931F
:10295000DA010C94151108950C949F140F931F9392
:102960000091D7011091D8012091D9013091DA015D
:10297000602B712B822B932B1F910F910C949F1422
:102980000F931F930091D7011091D8012091D90185
:102990003091DA0160237123822393231F910F91D9
:1029A0000C949F140F931F930091D7011091D8019D
:1029B0002091D9013091DA0160277127822793276E
:1029C0001F910F910C949F140C949C140C94E4147C
:1029D0000E94E6146093D3017093D4018093D501D3
:1029E0009093D6010C94151160E070E0CB010C942B
:1029F000E814611571058105910529F481E04423EE
:102A000061F080E00895DC01CB0104C0B695A79584
:102A1000979587954A95D2F781700895482F6091D0
:102A2000D3017091D4018091D5019091D6010C947D
:102A3000F9140F931F9341E050E060E070E08A01C9
:102A40009B0104C0000F111F221F331F8A95D2F76C
:102A5000C901B8011F910F910C94E8140F931F93B3
:102A600041E050E060E070E004C0440F551F661F75
:102A7000771F8A95D2F78091D3019091D401A091CC
:102A8000D501B091D6018A019B01082B192B2A2B65
:102A90003B2BC901B8011F910F910C94E8140F93BF
:102AA0001F9341E050E060E070E004C0440F551F08
:102AB000661F771F8A95D2F7CB01BA016095709592
:102AC000809590950091D3011091D4012091D5016A
:102AD0003091D60160237123822393231F910F919C
:102AE0000C94E8140F931F9341E050E060E070E015
:102AF00004C0440F551F661F771F8A95D2F7809137
:102B0000D3019091D401A091D501B091D6018A0151
:102B10009B01082719272A273B27C901B8011F91C4
:102B20000F910C94E8140F931F930091D30110910F
:102B3000D4012091D5013091D601602B712B822BCD
:102B4000932B1F910F910C94E8140F931F930091F6
:102B5000D3011091D4012091D5013091D601602389
:102B60007123822393231F910F910C94E8140F93E8
:102B70001F930091D3011091D4012091D501309180
:102B8000D60160277127822793271F910F910C94FC
:102B9000E814089527E0929F800D1124982F9770D4
:102BA00041E001C0440F9A95EAF78695869586958F
:102BB00095E0899FF0011124E055FE4F90E080E000
:102BC00070E05191DF0111979B01082E02C03695EC
:102BD00027950A94E2F7217021952527242325279C
:102BE0002C9301968530910561F7089527E0929F17
:102BF000800D1124982F977086958695869525E0EF
:102C0000829FF0011124E055FE4F50E040E080E04B
:102C1000219130E0092E02C0369527950A94E2F7FB
:102C200021703327042E01C0220F0A94EAF7822B69
:102C30004F5F5F4F4530510559F70895BF92CF92CE
:102C4000DF92EF92FF920F931F93CF93DF938C014C
:102C5000C090D301D090D401E090D501F090D6017E
:102C60008091D7019091D801A091D901B091DA015A
:102C7000C82AD92AEA2AFB2ACFE1D0E0BC2ED70104
:102C8000C6010C2E04C0B695A795979587950A9412
:102C9000D2F780FD0EC0219788F7B12C8B2DDF91E4
:102CA000CF911F910F91FF90EF90DF90CF90BF9049
:102CB0000895B8018C2F0E941209019761F3EECF9D
:102CC000CF93DF93EC010E941E16BE01DF91CF91DE
:102CD0000C9412091F93CF93DF93EB01909177012E
:102CE000992331F0CB01DF91CF911F910C946016A5
:102CF000882379F0CB010E941E16182F682FCE0171
:102D00000E94CA15BE01812FDF91CF911F910C94B3
:102D10001209CB010E94F615182FF4CF682F80916D
:102D20001C0190911D010C949F18682F80911C012B
:102D300090911D010C94AA1880911C0190911D0185
:102D40000C94B5188091DB0185958595859508953E
:102D50008091DB01877008959091DB01977081E08D
:102D600009F480E008958091FF0108959091FF019A
:102D7000892B8093FF01089580959091FF019823FE
:102D80009093FF0108951092FF0108959091FE0124
:102D9000892B8093FE01089580959091FE019823E0
:102DA0009093FE0108951092FE0108959091FD0107
:102DB000892B8093FD01089580959091FD019823C2
:102DC0009093FD0108951092FD0108958091DC011A
:102DD000089508950C94E9169091DC01981721F05C
:102DE0008093DC010C94EA1608958091DC0188231D
:102DF00029F01092DC0180E00C94EA160895E0912D
:102E00001C01F0911D018091FF018083E0911C0164
:102E1000F0911D0180819091FE01892B8083E091CA
:102E20001C01F0911D0180819091FD01892B80830F
:102E30009091DC01992381F0E0911C01F0911D013A
:102E40008081892B808380911C0190911D010E94BB
:102E50000B1881110E94F51680911C0190911D01A3
:102E60000C941E0D08950C94321798E0899F9001E0
:102E70001124622B6093DB010E942E158091DB01EF
:102E80008595859585950C9433171092DB0180E02C
:102E90000C9433179091DB01809589238093DB019B
:102EA000282F277071F4282F082E000C330B92174F
:102EB000130639F08595859585950E944F150C94DC
:102EC0004517089590E080E00E94252321E08C3E84
:102ED0009E4F09F020E0822F089582E090E00C944C
:102EE0001D2383E090E00C941D23682F83E090E085
:102EF0000C942B23CF9384E090E00E941D23C82FD5
:102F000081E290E00E941D23982F8C2FCF9108958D
:102F1000CF93C92F682F84E090E00E942B236C2F61
:102F200081E290E0CF910C942B23AB01BC018FE0A8
:102F300090E00C943D23AB01BC0183E190E00C9444
:102F40003D2360E070E0CB010C949B1760E070E0E3
:102F5000CB010E9495170C94A1176CEE7EEF90E0C8
:102F600080E00E94492360E082E090E00E942B23F1
:102F700060E083E090E00E942B231092D701109232
:102F8000D8011092D9011092DA0160E084E090E05B
:102F90000E942B2360E081E290E00E942B2360E0FE
:102FA00085E090E00E942B2360E086E090E00E94A4
:102FB0002B236FEF87E090E00E942B2340E050E04E
:102FC000BA0188E090E00E943D2360E08DE090E04F
:102FD0000E942B2340E050E0BA0188E190E00E947B
:102FE0003D2360E087E190E00E942B2340E050E029
:102FF000BA018CE190E00E943D2360E080E290E025
:103000000E942B230C94A6170C94AD17682F8EE00A
:1030100090E00C942B23FC013296809130018823A0
:1030200021F0809135029EE187FF96E080E091508B
:1030300008F4089521912223D1F38F5FF8CF6623FE
:1030400001F1209130012223F1F02091350227FF78
:103050001AC0462F4695469546954E3190F46770B6
:1030600021E030E002C0220F331F6A95E2F7840F9F
:10307000911DFC01828190E02823392381E0232BDC
:1030800069F480E00895FC01329608962191261794
:1030900021F0E817F907D1F7F4CF81E008959C01FA
:1030A000FC0132969FEF80E04191461751F09F3F1F
:1030B00019F4411101C0982F8F5F8630A9F79F3F07
:1030C00009F40895290F311D97FD3A95F90162839E
:1030D0000895FC01329608962191261303C0DF0162
:1030E00011971C92E817F907B9F70895E62FE695AE
:1030F000E695E695EE3168F4E80FF92FF11D67705B
:1031000021E030E001C0220F6A95EAF78281822B2C
:1031100082830895E62FE695E695E695EE3170F404
:10312000E80FF92FF11D677021E030E001C0220F98
:103130006A95EAF7209582812823228308952091B9
:103140003001222329F02091350227FD0C947618B6
:103150000C944F1820913001222329F02091350240
:1031600027FD0C948A180C946918FC013296809102
:103170003001882351F08091350287FF06C08EE12F
:10318000DF011D928A95E9F7089586E0F9CF089549
:1031900008950C94C8180E94C91880913B0284308D
:1031A00049F11092010288E190E020E40FB6F89412
:1031B000A895809360000FBE2093600080E00E947D
:1031C0009E080E94C91883B7817F846083BF83B73C
:1031D000816083BF7894889583B78E7F83BF0FB655
:1031E000F894A895809160008861809360001092A7
:1031F00060000FBE08950895CF930E94C7180E94E3
:10320000CD060E94FB18C0E08C2F0E94320781116E
:1032100005C0CF5FC830C1F7CF91089581E0FCCFE2
:1032200008950C9410190E9423110E94120D0E94FF
:103230009E080C9411191F921FB61F9211248F9390
:103240009F93AF93BF9380910102811113C080912E
:10325000310290913202A0913302B0913402419632
:10326000A11DB11D8093310290933202A0933302CD
:10327000B0933402BF91AF919F918F911F901FBE69
:103280001F90189582E084BD93E095BD9AEF97BD9D
:1032900080936E0008952FB7F89480913102909139
:1032A0003202A0913302B09134022FBF08959C01E5
:1032B0004FB7F8948091310290913202A09133027D
:1032C000B09134024FBF821B930B089578941F92E4
:1032D0001FB61F9211248F939F93AF93BF9380913A
:1032E000310290913202A0913302B09134020196E2
:1032F000A11DB11D8093310290933202A09333023D
:10330000B0933402BF91AF919F918F911F901FBED8
:103310001F90189587E797E790930108809300081E
:1033200088E19AE00FB6F894A895809360000FBEEC
:1033300090936000FFCF0E946217811102C00E942B
:1033400004180E946D17809300020E947A179093D0
:103350003602809335020E947117682F70E090E06A
:1033600080E00E94AC146091D3017091D4018091EF
:10337000D5019091D6010C94E6148091080280FF4B
:1033800012C06091230185E0689FB00111247595FA
:1033900067957595679560387105A8F56115710594
:1033A000A1F1862F089581FF09C06091230185E076
:1033B000689FB001112475956795EDCF6091230149
:1033C00082FD0AC0809107028823D1F090912201EA
:1033D00060912301891728F085E0689FB0011124CE
:1033E000DACF869FB001112485E0869F9001879FE8
:1033F000300D1124692F70E0C9010E94E222CBCF69
:1034000065E070E0CECF8FE7089581E00895809168
:10341000080280FF0CC060911F0170E075956795F0
:10342000759567956115710549F1862F089581FF9E
:1034300006C060911F0170E075956795F3CF6091AC
:103440001F0182FD0BC0909106029923A1F06091AB
:103450001E0180911F01961738F0682F70E06038C8
:10346000710500F38FE70895899FC001112470E072
:103470000E94E222F4CF61E070E0D7CF81E00895AE
:10348000803F31F40E94BD19819580930C0208950C
:10349000813F19F40E94BD19F8CF823F31F40E9498
:1034A000BD19819580930B020895833F19F40E9402
:1034B000BD19F8CF893F29F40E94071A80930D02A5
:1034C00008958A3F21F40E94071A8195F7CF8B3F18
:1034D00031F40E94071A819580930E0208958C3F63
:1034E00019F40E94071AF8CF843F31F480910A0240
:1034F000816080930A020895853F21F480910A0239
:103500008260F7CF863F21F480910A028460F1CF78
:10351000873F21F480910A028860EBCF883F21F435
:1035200080910A028061E5CF8D3F31F480910802DD
:1035300081608093080208958E3F21F480910802F3
:103540008260F7CF8F3FB9F7809108028460F1CF96
:1035500090910B02803F59F480910C0287FF0DC0BF
:1035600010920C0291110BC01092070208C0813F0B
:1035700081F480910C0218169CF3992381F08091BC
:103580000D0290910E02892B09F064C01092060280
:103590000895823F49F497FFF0CF10920B0280917B
:1035A0000C028111ECCFE0CF833F19F41916ACF374
:1035B000E4CF20910D02893F29F41216F4F61092FF
:1035C0000D02DBCF8A3F19F427FFD7CFF8CF209128
:1035D0000E028B3F29F427FFD0CF10920E02CDCFE1
:1035E0008C3F19F41216CCF3C8CF843F31F480918C
:1035F0000A028E7F80930A02C0CF853F21F480911A
:103600000A028D7FF7CF863F21F480910A028B7FDB
:10361000F1CF873F21F480910A02877FEBCF883F6B
:1036200021F480910A028F7EE5CF8D3F31F48091A5
:1036300008028E7F80930802A0CF8E3F21F48091F4
:1036400008028D7FF7CF8F3F09F097CF8091080256
:103650008B7FF0CF08950E944B199C0190910B0233
:1036600080910C02982B21F03093050220930402E4
:1036700090910D0280910E02982B21F0309303025D
:103680002093020289E092E00C94380DEF92FF92B1
:103690000F931F93CF93DF9300D000D000D0CDB70E
:1036A000DEB786E0E9E0F2E0DE01119601900D92CE
:1036B0008A95E1F7E0900B02F0900C0200910D0268
:1036C00010910E0210920B0210920C0210920D0239
:1036D00010920E028E2D8F2991F08091040290910C
:1036E00005020E945719AC0190910702992309F431
:1036F0003FC0809124018417150608F447C0802F2D
:10370000812B91F080910202909103020E9457193F
:10371000AC0190910602992309F477C080912001B1
:103720008417150608F47FC080910B0290910C025B
:10373000892B90910D02892B90910E02892B11F00B
:103740000E942B1B86E0FE013196A9E0B2E00190B9
:103750000D928A95E1F726960FB6F894DEBF0FBE5C
:10376000CDBFDF91CF911F910F91FF90EF90089502
:10377000209125018AE0289F900111242417350704
:1037800008F0BDCF9F5F9093070202C09F3FD1F723
:10379000EE2059F00E94BD199FEF1E140CF491E029
:1037A000899F802D112480930B02FF2059F00E94E5
:1037B000BD199FEF1F140CF491E0899F802D1124F7
:1037C00080930C0230910B02332309F498CF20919F
:1037D0000C02222309F493CF45EB3403C0011124DA
:1037E000992359F090930B0245EB24039001112487
:1037F000332339F030930C0282CF81E080930B02A7
:10380000F3CF81E080930C027ACF209121018AE0EE
:10381000289F900111242417350708F085CF9F5F5A
:103820009093060202C09F3FD1F7002359F00E94F7
:10383000071A9FEF10160CF491E0899F802D112438
:1038400080930D02112359F00E94071A9FEF111661
:103850000CF491E0899F802D112480930E02309109
:103860000D02332309F460CF20910E02222309F4C4
:103870005BCF45EB3403C0011124992359F0909399
:103880000D0245EB240390011124332339F03093CA
:103890000E024ACF81E080930D02F3CF81E0809346
:1038A0000E0242CF86E0E9E0F2E0DF011D928A9548
:1038B000E9F710920702109206021092080208958A
:1038C00080912F02089508959C0182E08093E90081
:1038D0009FEF8091E800915085FD06C085ED8A95A7
:1038E000F1F700009111F5CF8091E80085FF0CC041
:1038F00050E040E066E070E0C9010E94511E8091F6
:10390000E8008E778093E8000895CF93DF93EC0171
:10391000809130018823B1F18091350287FF32C058
:1039200060E282E08093E9008FEF9091E80081509F
:1039300095FD06C095ED9A95F1F700008111F5CF40
:103940008091E80085FF1BC08091300170E050E05D
:1039500040E0811104C050E040E068E070E0CE013A
:103960000E94511E8091E8008E778093E80080E2EB
:10397000FE01AFE0B2E001900D928A95E1F7DF9190
:10398000CF91089568E081E0CDCF089580913A020B
:10399000811109C00E94E11F0E943E208091E20037
:1039A00084608093E200089510923A020895089589
:1039B00008950C94131942E061EC81E00E945D1FB0
:1039C00042E261EC82E00C945D1F80913D02833005
:1039D00009F45FC030F48130C1F1823009F49BC03A
:1039E00008958A3009F487C08B3009F46DC089309E
:1039F00009F04EC080913C02813209F049C08091AB
:103A0000400290914102029708F042C08091E80084
:103A1000877F8093E8008091E80082FF35C0909115
:103A2000F3008091F200029729F48091F1008B7FDE
:103A3000813021F48091F10080932F028091E80081
:103A40008B778093E8000C94911F80913C02813A1F
:103A5000F9F48091E800877F8093E800809140022C
:103A600090914102892B61F460E28FE092E070E076
:103A70000E94A01E8091E8008B778093E800089553
:103A800060E090E080E0F3CF80913B028111C3CFF2
:103A9000089580913C02813AD9F78091400290913B
:103AA0004102892BA9F78091E800877F8093E80085
:103AB0008091E80080FFFCCF809130018093F1007D
:103AC0008091E8008E77BDCF80913C02813201F772
:103AD0008091400290914102892BD1F68091E800BB
:103AE000877F8093E8000E94911F80913E0280931F
:103AF00030010C94231180913C02813249F680916F
:103B0000E800877F8093E8000E94911F80913F0228
:103B100080933002089580913C02813A09F0B8CF39
:103B20008091E800877F8093E8008091E80080FF23
:103B3000FCCF80913002C2CF84B7877F84BF0FB69D
:103B4000F894A8958091600088618093600010923D
:103B500060000FBE80E890E00FB6F894809361009B
:103B6000909361000FBE0E947E0D0E94E11F0E9493
:103B70003E208091E20084608093E20078940E946D
:103B8000C7220E94880D86E291E00E940D0D80916F
:103B90003B02853019F00E94900DF9CF0E94CB189E
:103BA00080913902882399F30E94FC18882379F3C5
:103BB0000E943B1EECCF0C94DD1D292F33272330B0
:103BC000310519F168F42130310509F44AC0223079
:103BD000310509F44BC090E080E030E020E028C0DF
:103BE0002132310579F122323105A9F780E490E0E4
:103BF00023EE36E061157105D9F08AE890E029E5F9
:103C000036E061307105A1F0E6CF9927813091054A
:103C100099F0009741F08230910589F00397D9F629
:103C2000ECEEF5E002C0E8E0F6E0849190E09F0160
:103C3000FA01318320830895ECEFF5E0F6CFE2EF4F
:103C4000F5E0F3CF89E090E02EE136E061157105F3
:103C500079F389E090E027E336E06130710541F3C4
:103C6000BACF82E190E027E436E0E2CF8BE390E048
:103C70002CE036E0DDCF80E189BD82E189BD09B469
:103C800000FEFDCF8091D8008F7D8093D800809179
:103C9000E00082608093E0008091E00081FDFCCF35
:103CA0000895AF92BF92CF92DF92FF920F931F932E
:103CB000CF93DF936C01EB018A010E94B01FF82EB5
:103CC000811123C00115110539F0F801808191811E
:103CD000C81BD90BC80ED91EB12CA12C2097A9F056
:103CE0008091E80085FD22C08091E8008E77809366
:103CF000E80001151105A1F0F80180819181A80E5D
:103D0000B91EB182A08285E0F82E8F2DDF91CF9170
:103D10001F910F91FF90DF90CF90BF90AF900895CB
:103D20000E94B01F8823D1F2F82EEFCFF6018191C7
:103D30006F018093F1002197FFEFAF1ABF0ACECF3A
:103D4000FC01809142029091430286179707A0F0F0
:103D50006115710529F49091E8009E779093E80031
:103D600090E06115710551F4911108C08091E8004F
:103D700082FF34C080E00895BC01F2CF80913B0205
:103D80008823C1F18530C1F18091E80083FD30C006
:103D90008091E80082FDEACF8091E80080FFE1CFCA
:103DA0008091F3002091F200382F6115710519F010
:103DB0002830310558F091E02830310509F090E0C5
:103DC0002091E8002E772093E800CBCF819180935B
:103DD000F100615071092F5F3F4FE7CF80913B02A7
:103DE000882341F0853041F08091E80083FFBECF09
:103DF00081E0089582E0089583E00895FC018091B8
:103E000042029091430286179707A0F06115710551
:103E100029F48091E8008E778093E80090E06115A6
:103E2000710551F4911108C08091E80082FF35C0FE
:103E300080E00895BC01F2CF80913B028823C9F154
:103E40008530C9F18091E80083FD31C08091E800A0
:103E500082FDEACF8091E80080FFE1CF8091F300FE
:103E60002091F200382F6115710519F028303105C5
:103E700058F091E02830310509F090E08091E80099
:103E80008E778093E800CBCF84918093F1003196B8
:103E9000615071092F5F3F4FE6CF80913B0288232D
:103EA00041F0853041F08091E80083FFBDCF81E093
:103EB000089582E0089583E00895982F973028F0C0
:103EC0008F708093E90081E008959093E900242F9A
:103ED000762F50E0981731F07091EC002091ED00B2
:103EE0005091F00021FD02C09F5FE8CF3091EB00C0
:103EF0003E7F3093EB003091ED003D7F3093ED003D
:103F00003091EB0031603093EB007093EC00209324
:103F1000ED005093F0002091EE0027FDE5CF80E00A
:103F2000089580913C0287FF13C08091E80082FFD2
:103F300006C08091E8008B778093E80004C08091F0
:103F40003B028111F2CF089580913B028823D9F37F
:103F50008091E80080FFF8CF8091E8008E77ECCF69
:103F60002091E4003091E50095E6A9012091EC0054
:103F7000822F817020FF06C08091E80080FF06C07C
:103F800080E008952091E80022FD1AC080913B0254
:103F9000882389F0853089F08091EB0085FD0FC082
:103FA0002091E4003091E50042175307F9F2915057
:103FB000E1F684E0089582E0089583E0089581E0C9
:103FC00008950E944F200E945720E0EEF0E080818B
:103FD00081608083E8EDF0E080818F77808319BC79
:103FE000A7EDB0E08C918E7F8C9380818F7E808353
:103FF00010923A0208950F931F93CF93DF930E947C
:104000004F200E945720C8EDD0E088818F778883A9
:1040100088818068888388818F7D888319BC10920D
:104020003B0210923702109239021092380200EED1
:1040300010E0F80180818B7F808388818160888394
:1040400042E060E080E00E945D1FE1EEF0E08081F0
:104050008E7F8083E2EEF0E08081816080838081CA
:1040600088608083F80180818E7F80838881806171
:104070008883DF91CF911F910F910895E8EDF0E0D3
:1040800080818F7E8083E7EDF0E080818160808396
:1040900084E082BF81E080933A020C94FB1FE8ED3C
:1040A000F0E080818E7F80831092E200089510926C
:1040B000DA001092E10008951F920F920FB60F924E
:1040C00011242F933F934F935F936F937F938F931D
:1040D0009F93AF93BF93EF93FF938091E10082FF93
:1040E0000BC08091E20082FF07C08091E1008B7FCE
:1040F0008093E1000E94C6228091DA0080FF19C0FF
:104100008091D80080FF15C08091DA008E7F809367
:10411000DA008091D90080FF96C080E189BD82E1FC
:1041200089BD09B400FEFDCF81E080933B020E946F
:10413000C61C8091E10080FF19C08091E20080FFE1
:1041400015C08091E2008E7F8093E2008091E200B2
:1041500080618093E2008091D80080628093D800D3
:1041600019BC85E080933B020E94D81C8091E1003D
:1041700084FF2BC08091E20084FF27C080E189BDCD
:1041800082E189BD89B5982F917080FFFBCF809126
:10419000D8008F7D8093D8008091E1008F7E80933E
:1041A000E1008091E2008F7E8093E2008091E20046
:1041B00081608093E20080913702882309F449C02E
:1041C00084E080933B020E94D91C8091E10083FF30
:1041D00029C08091E20083FF25C08091E100877FA4
:1041E0008093E10082E080933B021092370280913D
:1041F000E1008E7F8093E1008091E2008E7F8093CA
:10420000E2008091E20080618093E20042E060E0A1
:1042100080E00E945D1F8091F00088608093F00034
:104220000E94D71CFF91EF91BF91AF919F918F9109
:104230007F916F915F914F913F912F910F900FBEA2
:104240000F901F90189519BC10923B020E94D41C2D
:1042500070CF8091E30087FD93E090933B02B3CF52
:104260001F920F920FB60F9211242F933F934F93EB
:104270005F936F937F938F939F93AF93BF93CF93EE
:10428000DF93EF93FF93D091E900DF708091EC0012
:10429000C82FC17080FDC0E81092E9008091F00045
:1042A000877F8093F00078940E9474211092E90037
:1042B0008091F00088608093F000CD2BCF70C09388
:1042C000E900FF91EF91DF91CF91BF91AF919F9165
:1042D0008F917F916F915F914F913F912F910F90AF
:1042E0000FBE0F901F9018951F93CF93DF93CDB7FC
:1042F000DEB7AA970FB6F894DEBF0FBECDBF8CE332
:1043000092E02091F100FC012193CF01F2E084348E
:104310009F07B9F70E94E51C8091E80083FF1EC14A
:1043200080913C0290913D029A3008F017C1E92F2C
:10433000F0E0E158FC4D0C94F622803899F0823878
:1043400009F00CC1809140028F70873008F006C1DF
:104350008093E9008091EB0085FB882780F910921B
:10436000E90006C080913802909139029111826073
:104370009091E800977F9093E8008093F10010926D
:10438000F1008091E8008E77E5C0882309F4D3C05E
:10439000823009F0E3C080913E028111D6C0809145
:1043A00040028F702FEF280F263008F0D7C080937F
:1043B000E9002091EB0020FFC8C0933031F48091D8
:1043C000EB0080628093EB00C0C09091EB009061A5
:1043D0009093EB0021E030E001C0220F8A95EAF7CC
:1043E0002093EA001092EA008091EB008860EACF07
:1043F0008111B4C010913E021F778091E300807854
:10440000812B8093E3008091E800877F8093E80010
:104410000E94911F8091E80080FFFCCF8091E30013
:1044200080688093E30082E0111183E080933B0277
:1044300095C08058823008F091C080913E029091E2
:104440003F028C3D23E09207A1F583E08A838AE254
:1044500089834FB7F894DE01139620E03EE051E2E5
:10446000E32FF0E050935700E49120FF03C0E29562
:10447000EF703F5FEF708E2F90E0EA30C0F0C7968C
:104480008D939D932F5F243159F74FBF8091E800A2
:10449000877F8093E8006AE270E0CE0101960E9477
:1044A000A01E8091E8008B778093E80057C0C096EB
:1044B000E7CF6091400270914102AE014F5F5F4FC4
:1044C0000E94DB1DBC01892B09F448C09091E800D3
:1044D000977F9093E80089819A810E94FE1EE1CF28
:1044E0008038E1F58091E800877F8093E800809133
:1044F00037028093F10045CF811130C090913E0288
:10450000923060F58091E800877F8093E800909377
:1045100037020E94911F80913702882311F084E0B6
:1045200005C08091E30087FDFACF81E080933B02D4
:104530000E94DB1C13C080913E02813079F481E03F
:10454000933009F080E0809339021092E900809165
:10455000E800877F8093E8000E94911F8091E80027
:1045600083FF0AC08091E800877F8093E8008091F4
:10457000EB0080628093EB00AA960FB6F894DEBF42
:104580000FBECDBFDF91CF911F9108950895CF93B6
:1045900080913B028823A1F0C091E900CF709091F7
:1045A000EC00892F817090FD80E8C82B1092E90003
:1045B0008091E80083FD0E947421CF70C093E900D0
:1045C000CF91089597FB072E16F4009407D077FD3E
:1045D00009D00E94FC2207FC05D03EF490958195FD
:1045E0009F4F0895709561957F4F0895EE0FFF1FBF
:1045F0000590F491E02D0994AA1BBB1B51E107C063
:10460000AA1FBB1FA617B70710F0A61BB70B881F62
:10461000991F5A95A9F780959095BC01CD010895F1
:10462000FB01DC0104C08D910190801921F44150FF
:104630005040C8F7881B990B0895F999FECF92BD99
:1046400081BDF89A992780B50895A8E1B0E042E0CD
:1046500050E00C945123262FF999FECF92BD81BDD5
:10466000F89A019700B4021639F01FBA20BD0FB6B0
:10467000F894FA9AF99A0FBE08950396272F0E948C
:104680002C230E942B23252F0E942C23242F0C94B3
:104690002C230196272F0E942C230C942B23DC0122
:1046A000CB01FC01F999FECF06C0F2BDE1BDF89A3D
:1046B000319600B40D9241505040B8F70895F894E7
:1046C000FFCF100F100F680F680F3D0FBA0F3D0F8F
:1046D0003D0FC50F511060106010BC103D0F3D0F15
:1046E000C510321132113B113B113D113B113B11F1
:1046F0003B113211321142113B113B1142119D21EC
:10470000C521AE22C521AE22F8211922AE22702287
:024710007C2209
:10471200050159010000000157015901045A010124
:1047220057015801000000045E01FFFFDD01280867
:10473200641E140A321E601C851C641C631CC51C8A
:1047420001F4F5F6F7313332946697C600000000A3
:00000001FF
