:100000000C9481030C94C8030C94C8030C947C04D6
:100010000C94C8030C94C8030C94C8030C94C80334
:100020000C94C8030C94C8030C9499280C946B2965
:100030000C94991C0C94C8030C94C8030C94C8032A
:100040000C94C8030C94C8030C94C8030C94C80304
:100050000C94C8030C94E61C0C94C8030C94C803BD
:100060000C94C8030C94C8030C94C8030C94C803E4
:100070000C94C8030C94C8030C94C8030C94C803D4
:100080000C94C8030C94C8030C94C8030C94C803C4
:100090000C94C8030C94C8030C94C8030C94C803B4
:1000A0000C94C8030C94C8030C94C8032C122C1293
:1000B0005E125E12CC13AB12CC13CC13B6124B13E0
:1000C0005C135C13BC13CC13CC13C51364146414FD
:1000D000761476146D1476147614761464146414FD
:1000E0007214761476147214D829FF29F72AFF297E
:1000F000F72A4B2A6E2AF72AC52AD42A1700150098
:1001000008001A0014002B0029000A00090007004B
:1001100016000400010049000500190006001B003C
:100120001D0001008B002A5D2C000258E0004A00EF
:10013000315D2D5D1C0018000C00120013002F0013
:100140002A000B000D000E000F00330034002800C1
:100150001100100036003700380087008A002B5D40
:100160002A0028002C5D4D00010001000000000065
:100170000000000000000000285D000000000000FA
:10018000000000000000295D0000000000000000E9
:1001900000000000315D2A5D2C000258E0004A009A
:1001A000000000000000000000000000000000004F
:1001B0002A000000000000000000000000002800ED
:1001C0000000000000000000000000008A002B5D1D
:1001D0002A0028002C5D4D000000000017021502C7
:1001E00008021A0214022B0229020A02090207025B
:1001F00016020402010049020502190206021B024E
:100200001D0201008B022A5D2C020100E0024A025D
:10021000010001001C0218020C02120213022F023C
:100220002A000B020D020E020F02330234022800D4
:100230001102100236023702380287028A002B5D53
:100240002A02280201004D020100010017001500DA
:1002500008001A0014002B0029000A0009000700FA
:1002600016000400010049000500190006001B00EB
:100270001D0001008B002A5D2C000258E0004A009E
:10028000315D2D5D1C0018000C00120013002F00C2
:100290002A000B000D000E000F0033003400280070
:1002A0001100100036003700380087008A002B5DEF
:1002B0002A0028002C5D4D000100010017021502E4
:1002C00008021A0214022B0229020A02090207027A
:1002D00016020402010049020502190206021B026D
:1002E0001D0201008B022A5D2C020100E0024A027D
:1002F000010001001C0218020C02120213022F025C
:100300002A000B020D020E020F02330234022800F3
:100310001102100236023702380287028A002B5D72
:100320002A0228024C024D02010001003F003E005B
:100330003D003C003B003A002900DE5C285D0000E7
:100340000000000000004900005C295D315D0000F4
:10035000000000008B0000002C000258E0004A0062
:1003600000000000400041004200430044004500FE
:100370002A005000510052004F00000000002800E9
:100380000000000000000000000000008A002B5D5B
:100390002A0028002C5D4D00000000000000000035
:1003A00000000000000000002900DE5C285D000065
:1003B0000000000000004900005C295D315D000084
:1003C000000000008B002A5D2C000258E0004A006B
:1003D000000000000000F400F600F500F900000045
:1003E0002A00F200F100F000F300FA0000002800FB
:1003F0000000000000000000000000008A00000073
:100400002A0028002C5D4D000000000000000000C4
:1004100000000000000000002900000000000000B3
:100420000000000000004900000000000000000083
:10043000000000008B0000002C000258E0004A0081
:10044000000000000000240025002600000000003D
:100450002A000000210022002300000000002800E4
:1004600027001E001F002000000000008A0000007E
:100470002A0028002C5D4D00000000002F022402FD
:100480001F0287022E022B00290034002D023402A5
:100490002D0033020000490022022102200238020E
:1004A0001E0200008B00E2002C00E100E0004A0088
:1004B00000002D5D230225023602300230002F009D
:1004C0002A00890226023702320232003400280054
:1004D00000002F002E003600870000008A00E30095
:1004E0002A0028004C004D0000000000325D000092
:1004F0000000000000000000285D335D00000000E7
:10050000000000000000295D000000000000000065
:1005100000000000000000000000000000000000DB
:10052000285D000000004A5D4B5D4C5D4D5D4E5DF9
:100530004F5D0000465D475D485D495D000000007D
:10054000415D425D435D445D455D0000000000008B
:10055000355D0000345D0000000000000403300041
:10056000000012036C0069007100750069006400EE
:100570003500360000000A03780063006400300094
:1005800000000403090409029F00040100A03209CD
:1005900004000001030101000921110100012240B2
:1005A000000705810308000A090401000103000097
:1005B00000092111010001228A00070582032000A1
:1005C0000A080B02020101000009040200000101F7
:1005D00000000924010001090001030904030002CD
:1005E000010300000724010001410006240201016B
:1005F0000006240202020009240301030102010093
:100600000924030204010101000905040240000558
:1006100000000525010101090583024000050000D5
:1006200005250101031201100100000008663200D7
:100630000001000102030105010902A1018502096F
:1006400001A1000509190129051500250195057568
:1006500001810295017503810105010930093115F8
:1006600081257F95027508810609381581257F95BA
:100670000175088106050C0A38021581257F950150
:1006800075088106C0C005010906A1018505050799
:1006900019E029E715002501950875018102050774
:1006A000190029EF1500250195F075018102050853
:1006B00019012905950575019102950175039101AF
:1006C000C005010906A101050719E029E715002564
:1006D00001950875018102950175088101050719C9
:1006E0000029FF150026FF00950675088100050802
:1006F000190129059505750191029501750391016F
:10070000C00011241FBECFEFDAE0DEBFCDBF04B6BC
:1007100003FE27C080919F039091A003A091A103A5
:10072000B091A2038730904BA740B04BD1F4109208
:100730009F031092A0031092A1031092A20314BE73
:1007400084B7877F84BF0FB6F894A8958091600026
:10075000886180936000109260000FBEE0E0F8E3D3
:10076000099511E0A0E0B1E0E4E5F7E502C00590ED
:100770000D92AC35B107D9F723E0ACE5B1E001C08B
:100780001D92AF39B207E1F70E9486250C94A82B81
:100790000C9400008EE14A9B02C08150E1F74A9B15
:1007A000FECF08955A9880E28A95F1F75A9A0895F3
:1007B000FC012AE02A95F1F790E020E080E031E0AA
:1007C000261779F040E14A95F1F7880F4A9B02C05D
:1007D0008160932700C0000040E14A95F1F72F5F48
:1007E000EFCF20E12A95F1F729B100C0000030E1F8
:1007F0003A95F1F722FB222720F992272081920FC8
:1008000090830895EF92FF920F931F93CF93DF93FE
:100810001F92CDB7DEB719828C017C01E60EF11C68
:100820000E151F0559F00E94CA0368E0CE0101961B
:100830000E94D803F80181938F01F2CF81E0998162
:10084000911180E00F90DF91CF911F910F91FF9058
:10085000EF90089590935E0180935D0160935C0139
:10086000529A5A9A089590935E0180935D01609325
:100870005C0152985A9AEA9AE9E6F0E080818F7C0E
:1008800080830895615091E001C0990F6A95EAF75D
:1008900020E031E0992361F0492F482319F05A9A5A
:1008A000232701C05A9840E24A95F1F79695F2CF76
:1008B000222311F05A9A01C05A9880E28A95F1F7E2
:1008C0005A980895FF920F931F93CF93DF93EC01F3
:1008D0008C01060F111DC017D10741F0F9900E943D
:1008E000D20368E08F2D0E944204F5CFDF91CF91B3
:1008F0001F910F91FF9008951F920F920FB60F92C4
:1009000011240F931F932F933F934F935F936F93F4
:100910007F938F939F93AF93BF93EF93FF93CF9367
:10092000DF931F92CDB7DEB719820E94CA0367E03A
:10093000CE0101960E94D803382F3695369536950C
:10094000932F96959570232F2570920F292F237042
:10095000969596958770920F891348C08981811169
:1009600045C080915C01831708F440C080E18A95FE
:10097000F1F75A9A529AA2E0AA95F1F700C00091B5
:100980005D0110915E01B8E03B9F000D111D112427
:100990005A98F8016581662321F0868197810E942B
:1009A00062040E94D203F0E1FA95F1F75A98529846
:1009B0005A9A80E18A95F1F7D80112966C911297B4
:1009C000662369F013968D919C9114970E940204FE
:1009D000D801ED91FC91811105C082E004C0D801DD
:1009E000ED91FC9188E080830E94CA030F90DF9113
:1009F000CF91FF91EF91BF91AF919F918F917F9197
:100A00006F915F914F913F912F911F910F910F9097
:100A10000FBE0F901F9018950F931F93CF93DF93E6
:100A200020915C0130E0281739070CF471C09C015B
:100A300093E0220F331F9A95E1F7C0915D01D091A9
:100A40005E01C20FD31FF894529A5A9845E04A9516
:100A5000F1F70000982F969595708570890F982F63
:100A6000937086958695890F8901082B0E94D20381
:100A700084E08A95F1F700C067E0802F0E9442046D
:100A800040E14A95F1F752985A9A4A9902C000C03B
:100A9000FCCF87E090E04A9B0EC0019751F4529A38
:100AA0005A9AE881F98181E08083789481E090E02E
:100AB00031C000C0F0CF6D81662381F08E819F81AF
:100AC0000E94020481110AC0529A5A9AE881F9815F
:100AD00082E08083789482E090E01CC00E94CA0388
:100AE00080E28A95F1F75A98529A40E14A95F1F7D7
:100AF0006A81662321F08B819C810E9462040E949E
:100B0000D203E881F9811082789480E090E002C0FD
:100B100084E090E0DF91CF911F910F910895CF93E2
:100B2000DF93A5E4B1E049E451E061E070E08D912C
:100B3000E82FE295EF70F0E021A18F70EB0102C089
:100B4000CC0FDD1F8A95E2F7CE019C2F9095922362
:100B500091A392A1892B82A34A175B0741F7DF91EA
:100B6000CF91089508950C94B2050E9457070E94F2
:100B70008F05AEE3B1E041E050E08D91E82FE295C2
:100B8000EF70F0E021A18F70BA0102C0660F771FED
:100B90008A95E2F7CB01962F9095922391A392A18B
:100BA000892B82A371E0A534B70739F7209A559AAB
:100BB000289A5D9AE7E6F1E0AFE5B1E011921D9267
:100BC00081E0EF36F807D1F70C9400099F92AF92BD
:100BD000BF92CF92DF92EF92FF920F931F93CF932A
:100BE000DF9380910101811103C0C4E0D0E002C015
:100BF000C0E0D0E0AE01415A5E4F7A0185E4C82ED4
:100C000081E0D82E8A01AA24A394B12C25E0922E4B
:100C1000F9E4CF16F1E0DF0609F44AC0F60181914C
:100C20006F01E82FE295EF70F0E021A18F70A50130
:100C300002C0440F551F8A95E2F7CA01922F982BE4
:100C400091A392A18095892382A350EA5A95F1F746
:100C5000EEE3F1E020E040E050E03191A32FA295D7
:100C6000AF70B0E090968C9190E03F7002C0959587
:100C700087953A95E2F780FD07C0C501042E01C0B3
:100C8000880F0A94EAF702C080E090E0282B4F5FBB
:100C90005F4F4730510509F7F8018081821719F03D
:100CA0002083909200010E948F050F5F1F4FB0CFED
:100CB000809100018823B1F081508093000181115F
:100CC00003C0C959DE4F07C08FE99FE00197F1F7D4
:100CD00000C0000007C0F70191917F0199938F5FD9
:100CE0008430C9F781E0DF91CF911F910F91FF9080
:100CF000EF90DF90CF90BF90AF909F900895CF93EB
:100D0000DF9320910101211103C0C0E0D0E002C0B7
:100D1000C4E0D0E00E947207009721F00297A1F48E
:100D2000289812C0289AC959DE4F80917A01909173
:100D30007B01A0917C01B0917D0188839983AA8376
:100D4000BB8380E090E002C081E090E0DF91CF9132
:100D500008950E94E60580910101811103C0E4E03D
:100D6000F0E002C0E0E0F0E0E959FE4F20E030E0C2
:100D700080E0D901A658BE4F4C919191491381E072
:100D80009C932F5F3F4F2430310599F79091730169
:100D9000890F809373010895CF93DF930E943A07E0
:100DA000882309F440C00E94E60580910101811169
:100DB00003C0C4E0D0E002C0C0E0D0E0C959DE4FBB
:100DC00044E050E0BE0186E791E00E94592B488143
:100DD00059816A817B8140937601509377016093BA
:100DE0007801709379010E947F06892BC1F05D988C
:100DF00080916F018F5F80936F01863070F18091D9
:100E00000101811103C0E0E0F0E002C0E4E0F0E0A5
:100E1000E959FE4F10821182128213821EC05D9A20
:100E200010926F011AC00E94A906809101018111E0
:100E300003C080E090E002C084E090E0FC01E9594A
:100E4000FE4F409176015091770160917801709149
:100E5000790140835183628373830E94080981E092
:100E6000DF91CF910895E82FF0E0E959FE4F80819E
:100E70000895089580917001811112C08091D80069
:100E800080618093D8008AE18A95F1F700C0809153
:100E9000D90080FD02C082E001C081E08093700132
:100EA00081E090917001913009F080E008950E94F6
:100EB0003A07809301010E943A07882319F00E94A3
:100EC000660702C00E946C077894089563E070E0A2
:100ED00082E091E00C942A0463E070E082E091E00B
:100EE0000C9433040F931F93CF93DF938C01909155
:100EF0001B0180911A01981761F082E090E00E9436
:100F00000C05EC01892B39F480911A0180931B01A7
:100F100002C0C0E0D0E0012B49F4809171019091B2
:100F20007201892B19F480E090E002C081E090E02A
:100F30000E940C05892B49F48091730180931A015A
:100F4000109272011092710106C081E090E09093BE
:100F5000720180937101CE01DF91CF911F910F91AA
:100F600008950E948C1080937E010C94B1080C941B
:100F70007F10CF93DF93EC010E94EB1ABE0180E05B
:100F800090E0DF91CF910C943118CF93DF93D62F5F
:100F9000C42F0E949118882351F08D2F0E94911820
:100FA000882329F08C2FDF91CF910C94B1188C2FCE
:100FB000DF91CF910C94D218CF93FB018E322DE5A7
:100FC000920709F477C0B0F48A322DE5920709F44C
:100FD00040C040F488322DE5920749F189329D45A1
:100FE00069F1B9C0C2818C322DE5920781F108F414
:100FF00042C05EC084332DE5920709F47DC060F4E1
:1010000082332DE5920709F469C008F06DC0813381
:101010009D4509F459C09FC085332DE5920709F419
:101020006FC08A352DE5920708F46EC094C0C28166
:10103000CC2309F493C081E090E006C0C281CC23A8
:1010400009F48CC088E090E00E94B90786C088E06F
:1010500033C0C281CC2349F080918101811103C04A
:1010600081E08093810185E010C01092810185E0CC
:101070000E94D21817C0CC2381F080918101811188
:1010800003C081E08093810186E00E94B11841E0B5
:1010900066E085E00E94C50760C086E00E94D21825
:1010A0001092810141E066E085E00E94C50756C0CC
:1010B00087E002C0C28181E0CC2319F00E94B11800
:1010C0004CC00E94D2184AC0C281CC2309F446C049
:1010D00080E092E00E94B90780E30BC080911C0180
:1010E0008837D8F5845F05C080911C018D30A8F148
:1010F0008C5080931C0131C08281809380012DC06F
:10110000828180937F0129C040911C0150E04653A9
:101110005D45480F591F80918001882311F0445F7D
:101120005F4F80917F01882311F04C505109403866
:10113000510598F4C281CC2339F02FE760E085EAAD
:1011400092E00E942D2009C020E060E085EA92E054
:101150000E943D2003C0C1E001C0C0E08C2FCF91B0
:101160000895089581E008950C94DC0708950C9487
:10117000B6081F93CF93DF9300D000D01F92CDB756
:10118000DEB749835A836B833091E10189819A816B
:10119000311114C0662359F0222349F00E94A61988
:1011A000182F682F89819A810E944F1903C00E94CD
:1011B0007A19182F69817A81812F04C00E94A6199B
:1011C00069817A810F900F900F900F900F90DF91AF
:1011D000CF911F910C947109FC01262F4081518100
:1011E0006281738184810C94B908CF93DF93EC0101
:1011F00060E00E94EC08BE01DF91CF910C94B7082B
:101200000E94D81A811102C00E947D1B0C94B10764
:101210000C94B30508950C940A0981E008950C9488
:101220000D09CF93C82F0E940B098C2F0E940F0924
:10123000CF91089508950E9452140E941A092FEF29
:1012400084E39CE0215080409040E1F700C0000022
:101250000C940C1D0F931F93CF93DF93EC0161E06F
:101260000E94EC088C01BE010E94B408882379F129
:10127000BE01C8010E94910B882349F1BE01C8013B
:101280000E94650E882319F1BE01C8010E94B70EA5
:101290008823E9F0BE01C8010E94E20F8823B9F05B
:1012A0008A81882369F001158CE5180731F00E3D1D
:1012B0001C4531F40E947D1B0AC00E941B0907C017
:1012C000CE01DF91CF911F910F910C94B20880E075
:1012D000DF91CF911F910F91089580E090E00895E4
:1012E000089528E3829FC0011124FC0127E0729F2A
:1012F000E00DF11D1124E60FF11DEE0FFF1FE4506C
:10130000FF4F859194910895880F991FFC01E45A2D
:10131000FA4F859194910895CF93DF930E947109BC
:101320000E948E0AEC01811521E59207B8F581151E
:1013300040E5940708F08BC08F3F910509F0E0F479
:10134000803F910508F06EC0803E910580F4803C9E
:10135000910508F069C08130910509F4DBC008F4FB
:10136000D7C00497813A910508F4D4C0D1C0883E13
:10137000910508F4CFC0CCC0C11580E3D80740F474
:10138000C11520E2D20708F4C5C0CE019F704EC03F
:10139000C11540E4D40708F057C04CC0C11585E51D
:1013A000D807A0F4C11524E5D20708F097C0C115ED
:1013B00043E5D40708F07CC0C11582E5D80708F0E2
:1013C00061C0DC2FCC27C16FD06AA4C0C11529E54C
:1013D000D207A0F4C11548E5D40708F084C0C115B0
:1013E00086E5D80708F094C08C2F0E94220B8F71DD
:1013F000C82FD0E0DC2FCC27D0628CC0C1152AE5E5
:10140000D20708F475C0CE0190568115904208F0BD
:101410007FC08D2F8F710E94220BDD27D0628F71CC
:10142000D82B78C0D06576C0805C91090E94840971
:10143000EC0170C0CE019927D3FF03C0EC01D86C3A
:1014400069C0EC01D06C66C0DF70D06A63C074E024
:10145000969587957A95E1F783709C2F937021E09C
:1014600030E002C0220F331F9A95E2F73C68382B18
:10147000CF70C695C69580E2C89FE0011124C22BAB
:10148000D32B48C0CE018370992721E030E002C001
:10149000220F331F8A95E2F78C2F8695869540E2BE
:1014A000849FC0011124E901C82BD92BDC6832C00C
:1014B000CE018370992721E030E002C0220F331F54
:1014C0008A95E2F78C2F8695869540E2849FC0012D
:1014D0001124E901C82BD92BDA681CC0DC2FCC27DA
:1014E000C46FD06A17C0DC2FCC27C06FD06A12C07F
:1014F0008C2F8F700E94220B94E0D695C7959A95F9
:10150000E1F7CF70D0E0DC2FCC27D069C82B02C028
:10151000C0E0D0E0CE01DF91CF91089582389105EF
:1015200069F1B0F48133910509F46DC048F4893252
:10153000910509F463C08A32910509F469C00895E0
:101540008533910509F455C089339105B9F00895A3
:10155000833E910569F138F4803E9105B1F0823EF9
:10156000910509F10895863E9105A9F1873E9105FF
:10157000B9F1843E910509F064C023C02091A30213
:1015800020FD4FC021FD4DC008958091A30280FD34
:1015900044C08091A40280FF44C08091A30284FDD6
:1015A00042C083EE4DC08091A30282FF38C0F5CFC8
:1015B0008091A30282FD33C08091A40280FD31C0DE
:1015C000ECCF8091A40281FF32C08091A30284FD00
:1015D0002AC087EE35C08091A30283FF26C0F5CFD5
:1015E0008091A30283FD21C08091A40281FD1FC0D0
:1015F000ECCF8091A30285FD1CC01DC08091A30289
:1016000085FD19C016C08091A30286FD16C017C0C3
:101610008091A30286FD13C010C089E311C082EE41
:101620000FC080EE0DC080E00BC086EE09C084EED6
:1016300007C089E205C085E303C08AE201C081E3F7
:1016400090E008959091A30292FF0DC0282F287179
:10165000283019F4877F846006C0282F2471243035
:1016600011F48B7F886093FF0DC0282F28712831DB
:1016700019F4877E846106C0282F2471243111F467
:101680008B7E88612091A40220FF0DC0382F387115
:10169000383019F4877F816006C0382F31713130BE
:1016A00011F48E7F886021FF0DC0282F287128310A
:1016B00019F4877E816106C0282F2171213111F430
:1016C0008E7E886194FD877E089584E080939B02DE
:1016D00089E080939C0280919D02807F8860809346
:1016E0009D02E6E8F1E08FEF819391E0EE3CF9078F
:1016F000D9F7109285011092840110928301109203
:101700008201089590919B02292F2F7095959595B0
:10171000959595959F523CE0239F900D1124890F3C
:101720000895EF92FF920F931F93CF93DF93FB01E6
:101730008E3A2CE5920708F044C08E393CE59307B9
:1017400008F040C180392CE59207F0F483383CE57D
:10175000930708F0D1C081382CE5920758F48737F9
:101760003CE5930708F09FC08F322CE5920708F004
:1017700065C0C9C181383CE5930709F4A1C082382E
:101780009C4509F4A7C0BFC18C393CE5930778F4A8
:1017900082392CE5920708F0F1C080393CE59307C7
:1017A00009F4B3C081399C4509F4C2C0ACC18C397D
:1017B0003CE5930709F4ECC08D399C4509F4F7C06A
:1017C000A2C1843B3CE5930709F43CC1D8F4803BBB
:1017D0003CE5930709F419C150F48E3A3CE59307B0
:1017E00009F4FBC08F3A9C4509F401C18CC160919A
:1017F0009C022281823B3CE5930709F417C108F45F
:101800000FC11AC1873B2CE5920709F434C150F48B
:10181000853B2CE5920709F415C1863B9C4509F4EC
:1018200021C171C1893B2CE5920709F44DC108F42F
:1018300038C18A3B9C4509F458C165C120919C027E
:10184000E22EE2943FE0E322322F3F702CE0F22EB2
:10185000239FF00C1124C28101ED080F10E0CC236E
:1018600091F0E801CA57DE4F28812F3F39F50E94D9
:10187000820B182F2F2D482F6E2D85EA92E00E94A3
:101880002D2018831BC00A571E4FF80140814F3F7F
:1018900031F02F2D6E2D85EA92E00E943D208FEFD2
:1018A000F801808331C12281222341F087578F7054
:1018B00090919B02907F892B80939B02C0E024C172
:1018C00082818823D9F320919B02822F8F70B1F3FC
:1018D000815F0DC08281882389F320919B02822F32
:1018E0008F70482F50E04930510544F78F5F982F93
:1018F0009F70822F807FDFCF22812223F9F28958C7
:101900008295807F90919B0237C082818823B1F2BB
:1019100020919B02822F85958595859585958B3F96
:101920006CF2815F982F9295907F822F8F70C3CF3A
:101930008281882319F220919B02822F85958595BB
:101940008595859586300CF0B9CF91E0980F9295EA
:10195000907F9595959595959595392F3295307FF2
:101960002F70232B20939B0218160CF0A7CF97FF04
:10197000A5CF8295807F922F9F709DCF22812223B9
:1019800009F49CCF82598F7090919C02907F39C04E
:101990008281882309F492CF20919C02822F8F703C
:1019A00009F48CCF815F982F9F70822F09C08281AC
:1019B000882309F483CF80919C0291E0980F9F7057
:1019C000807F1FC02281222309F478CF8E5982950F
:1019D000807F90919C029F7014C08281882309F4BB
:1019E0006DCF80919C02982F907F905109C0828189
:1019F000882309F463CF80919C02982F907F905F99
:101A00008F70892B80939C0259CF8281882309F49F
:101A100055CF60919C0262956F7020E04BE71DC02E
:101A200021112FE762956F7040E417C021112FE755
:101A300062956F7041E411C021112FE762956F70BC
:101A400042E40BC08281811102C020E001C02FE777
:101A500060919C0262956F7043E485EA92E00E9477
:101A60001D202CCF8281811102C08FEF01C081E047
:101A70008093840123CF8281882309F41FCF809132
:101A80009D02282F2F7091E0920F9F70807F892BED
:101A900080939D02982F9F7009F010CF807F822B3A
:101AA00010C08281882309F409CF20919D02822FE2
:101AB0008F7009F403CF815F982F9F70822F807FF2
:101AC000892B80939D02FACE8281882339F0609120
:101AD0009C0262956F7040E050EE10C060919C02D5
:101AE00062956F7040E050E009C082818823B1F3B5
:101AF00060919C0262956F704FEF5FE185EA92E022
:101B00000E944D20DBCEC1E08C2FDF91CF911F9141
:101B10000F91FF90EF90089585EA92E00E9468226D
:101B200080918201909183010E94D71C20919D0297
:101B30002F7030E08217930778F10E94CB1C9093AE
:101B400083018093820180918401882329F160912F
:101B50009C0262956F702091850141E085EA92E0D8
:101B60000E941D20909184018091850197FF0FC0F4
:101B7000282F30E0692F772761950CF47095261790
:101B800037072CF410928501109284010895890F73
:101B900087FD8FE7809385010895AF92BF92CF9222
:101BA000DF92EF92FF920F931F93CF93DF937C010D
:101BB0005B01C42FD22FFC0182818823F9F040936E
:101BC000D0010E94CB1C9093CF018093CE0180E284
:101BD0008C0F883008F06EC0C77081E001C0880F9C
:101BE000CA95EAF7DF91CF911F910F91FF90EF9087
:101BF000DF90CF90BF90AF900C94E8118091D0010E
:101C0000481335C08091CE019091CF010E94D71C1E
:101C10006C01B701C5010E94F116C816D90638F546
:101C200010E21D0FCD17B9F080E28C0F883040F420
:101C3000C77081E001C0880FCA95EAF70E94EF11D2
:101C4000183058F581E09D2F977001C0880F9A9544
:101C5000EAF70E94E811802F0E94D511183050F544
:101C6000D77081E001C0880FDA95EAF70AC080E2F8
:101C70008C0F8830F8F4C77081E001C0880FCA95D6
:101C8000EAF7DF91CF911F910F91FF90EF90DF90D6
:101C9000CF90BF90AF900C94EF11802FDF91CF9138
:101CA0001F910F91FF90EF90DF90CF90BF90AF907A
:101CB0000C94D511DF91CF911F910F91FF90EF9070
:101CC000DF90CF90BF90AF9008950F939C01CB0110
:101CD000233F4CE5340731F188F4283DFCE53F070C
:101CE000D9F0293D4CE5340779F1273D3C45A9F56C
:101CF00006E221EE41EE67ED7CE52BC0253FFCE5D9
:101D00003F07E1F0A8F0263F3C4539F507E225EE14
:101D100046EE66EF7CE51DC007E225EE45EE68ED78
:101D20007CE517C006E221EE40EE63EF7CE511C0D2
:101D300007E225EE44EE64EF7CE50BC006E221EEFF
:101D400042EE65EF7CE505C008E221E045EE69ED75
:101D50007CE50E94CD0D80E008C0FC0182818823D3
:101D600019F01092D00101C081E00F910895CF9336
:101D7000DF93EC01FB018281882309F41FC1C2308B
:101D8000FCE5DF0708F41BC1C6319CE5D90738F034
:101D90009E012A5F3C452930310508F010C10E94A0
:101DA000F01A9093A4028093A302C031ECE5DE0701
:101DB00009F4C3C008F041C0C8308CE5D80709F465
:101DC0009AC0F0F4C430ECE5DE0709F487C068F48B
:101DD000C2308CE5D80709F477C0C330DC4509F080
:101DE000E3C08091A302826076C0C630ECE5DE07D6
:101DF00009F46EC008F07BC08091A30288606BC0BC
:101E0000CC308CE5D80709F485C068F4CA30ECE51D
:101E1000DE0709F474C008F079C00E945214809162
:101E2000A302806858C0CE308CE5D80709F476C08C
:101E300008F07FC08091A3028BC0CB3FECE5DE07AA
:101E400009F44FC018F5C3318CE5D80709F47DC0FB
:101E500078F4C131ECE5DE0709F473C0C231DC452A
:101E600009F0A2C00E9452148091A3028F7733C060
:101E7000C5318CE5D80709F472C008F486C0CA3FA2
:101E8000DC4509F091C08091A4023EC0CF3FFCE543
:101E9000DF0709F45FC058F4CD3F9CE5D90709F48A
:101EA00044C008F43FC08091A40282602DC0C130BC
:101EB000FDE5DF0709F475C008F45DC0C230DD45FB
:101EC00009F072C080E06EC08091A302816003C0FF
:101ED0008091A30280618093A30266C08091A302D7
:101EE00011C08091A40282608093A4025DC08091A1
:101EF000A3028062F0CF8091A3028064ECCF809136
:101F0000A30288608460E7CF8160EECF8091A30256
:101F10008E7FE1CF8091A3028D7FDDCF8091A302E0
:101F2000877FD9CF8091A40218C08091A4028D7FB1
:101F3000DBCF8091A3028F7ECECF8091A3028F7DD5
:101F4000CACF8091A3028F7BC6CF8091A302877FE7
:101F50008B7FC1CF8091A4028D7F8E7FC5CF809172
:101F6000A30282FB222720F991E0922790FB82F9BD
:101F700090FB83F9B0CF8091A402982F9095917037
:101F80008E7F892B90FB81F9AFCF0E9452148091F4
:101F9000A30287FB222720F991E0922790FB87F983
:101FA0009ACF81E00E947F1B8091A3029091A402AE
:101FB0000E94011B0E94521480E001C081E0DF9169
:101FC000CF910895CF93DF9386319C4541F5EB0186
:101FD0000E94271A982F8A8120911D0130911E019D
:101FE000882379F09A7A81E009F480E08093D10126
:101FF000911102C069E201C065E3C9010E941A1C87
:102000000AC08091D101811102C069E201C065E37B
:10201000C9010E94251C0E94751A80E001C081E060
:10202000DF91CF9108959093D7018093D6010895C1
:10203000E091D601F091D701309721F00190F08125
:10204000E02D099480E00895E091D601F091D70148
:10205000309799F020913D01222359F02091A3025D
:1020600027FF07C0DC012C9111962C93119725E0D6
:102070002C930280F381E02D09940895E091D6011C
:10208000F091D701309739F022E0DC012C930480E5
:10209000F581E02D099408952091D4013091D50166
:1020A0002817390771F09093D5018093D401E091FE
:1020B000D601F091D701309721F00680F781E02D0D
:1020C000099408952091D2013091D301281739073E
:1020D00071F09093D3018093D201E091D601F091F9
:1020E000D701309721F00084F185E02D09940895FF
:1020F00085B7806885BF85B7806885BF08950895D6
:102100000C947F100C9480100C947F100E94781017
:102110000E9484100C94821081E008950C948C101D
:102120000E94C21C0E94B5050E941D1D0C94B70799
:10213000AF92BF92CF92DF92EF92FF920F931F93D5
:10214000CF93DF93CDB7DEB72A970FB6F894DEBFF3
:102150000FBECDBF0E94CC060E948E10811111C00F
:102160008FEF89838A831B820E94CB1C8160782F2A
:102170009D838C8349815A816B818D810E943211AC
:1021800040C089EDA82E81E0B82E00E010E0C02EFE
:10219000802F0E943307E82EF501D1905F01D826E9
:1021A00031F40F5F1F4F0830110589F7D9CF8091A7
:1021B0006A0281FD0E94390780E0FF24F3949D2D7F
:1021C0009F21D1F08E83CF82EF2081E009F480E05F
:1021D00088870E94CB1C8160782F9A8789874E81DF
:1021E0005F8168858A850E943211F801E752FE4FAF
:1021F0008081F826F08205C08F5FFF0C8730F9F6EA
:10220000D0CF0E94CC1E0E948C0D0E94181090917D
:10221000D8018917B1F00E9418108093D8012A962E
:102220000FB6F894DEBF0FBECDBFDF91CF911F91E7
:102230000F91FF90EF90DF90CF90BF90AF900C94F4
:1022400011092A960FB6F894DEBF0FBECDBFDF91FD
:10225000CF911F910F91FF90EF90DF90CF90BF90A3
:10226000AF900895CF93DF93CDB7DEB72B970FB61E
:10227000F894DEBF0FBECDBF4F83588769877A873A
:102280008B87DE01119686E0FD0111928A95E9F7B0
:1022900085E0FE01379601900D928A95E1F749811C
:1022A0005A816B817C818D819E810E94F4162B96D0
:1022B0000FB6F894DEBF0FBECDBFDF91CF9108956A
:1022C000FC01808191810E94E8190895CF938823B1
:1022D000B1F1C82F8CEF8C0F813AD0F46C2F809124
:1022E0001D0190911E010E949A1B882349F06C2FBA
:1022F00080911D0190911E010E94251C0E94751A5B
:102300006C2F80911D0190911E010E941A1C0CC01F
:1023100080E28C0F883058F4C77081E001C0880FCC
:10232000CA95EAF70E942A1ACF910C94751AC03FF9
:1023300030F08C2F0E94C11DCF910C94AE1ECF9116
:102340000895882389F19CEF980F913A40F4682F03
:1023500080911D0190911E010E94251C0DC090E2EC
:10236000980F983058F4877091E001C0990F8A95C2
:10237000EAF7892F0E94301A0C94751A9BE5980F82
:10238000933020F480E090E00C944C1098E5980F86
:10239000973120F480E090E00C946210803F20F0B0
:1023A0000E94291E0C94AE1E0895CF93C82F0E9440
:1023B0006611C93349F42FEF87EE93E02150804036
:1023C0009040E1F700C000008C2FCF910C94A11138
:1023D000882321F00E942A1A0C94751A08958823E4
:1023E00021F00E94301A0C94751A0895CF92DF9252
:1023F000EF92FF920F931F93CF93DF937C01062FF1
:10240000C72FFC01158112951F70D281D1110E9436
:10241000471A0E94201A882399F0DD2389F08C2F17
:10242000807F803421F080E2800F883048F082E0A5
:102430000E94BF1A0E94201A91E0D82ED92601C00E
:10244000D12CCC2EC2948FE0C8228C2D90E0FC01C0
:10245000EA5AFF4F0C94532B8C2F807FCF70882328
:1024600011F0C295C07FDD2399F0CC2309F46FC130
:1024700080E2800F883010F0011104C08C2F0E9480
:102480002A1A03C08C2F0E943A1A0E94751A5FC143
:10249000802F0E94A111CC2309F47EC180E2800F1D
:1024A000883010F0011104C08C2F0E94301A03C034
:1024B0008C2F0E94401A0E94751A6EC18C2F807F4B
:1024C000CF70803211F0C295C07F002319F0013027
:1024D000C9F022C0DD2371F0112341F0113031F435
:1024E0000E945A1A8C2B0E94621A56C10E945A1AD4
:1024F0008C2B1DC0112319F0113009F44DC10E941D
:102500006B1A25C0DD2321F0163008F045C10EC03E
:10251000153008F041C11BC0DD2361F0112331F0FB
:10252000F701858180FF13C18F7085838C2F0E94F6
:10253000E81132C1112359F0093309F019C1FFEF35
:1025400027EE83E0F15020408040E1F70FC18C2F4F
:102550000E94EF1121C1802FDD2319F00E94C11DBF
:1025600002C00E94291E0E94AE1E1EC18C2F8370C5
:1025700009F045C0D11114C1402F429546954770CE
:10258000440F440F602F6F70862F90E0A0E0B0E002
:10259000042E04C0880F991FAA1FBB1F0A94D2F7EC
:1025A00004FF10C00FE010E020E030E004C0000F96
:1025B000111F221F331F4A95D2F7009510952095C1
:1025C000309503C000E010E09801C695C695C37031
:1025D000BC01CD01602B712B822B932BC23049F0B3
:1025E00058F4C13019F00E944518DAC00E9433181F
:1025F000D7C00E945718D4C00E943118D1C0DD2323
:1026000019F08C2F817001C08695882309F4C8C009
:10261000402F429546954770440F440F602F6F70CE
:10262000862F90E0A0E0B0E0042E04C0880F991F30
:10263000AA1FBB1F0A94D2F704FF10C00FE010E0DE
:1026400020E030E004C0000F111F221F331F4A9505
:10265000D2F7009510952095309503C000E010E06A
:102660009801C695C695C370BC01CD01602B712B36
:10267000822B932BC23049F058F4C13019F00E94DC
:102680002A198EC00E9418198BC00E943C1988C05C
:102690000E946B1885C0CF70DD2339F08C2F0E940B
:1026A000B118802F0E94E8117BC0802F0E94EF118B
:1026B0008C2F0E94D21874C0023F01F128F4003F11
:1026C00041F0013FA1F03FC0033FF9F0043F39F171
:1026D0003AC0DD2341F0153008F05EC08C2F8F71B9
:1026E0000E94F71859C0163008F056C0F7CFDD2306
:1026F00039F08C2F8F710E94B1184EC0DD23C9F3C1
:102700008C2F8F710E94D21847C0DD2329F08C2FA7
:102710008F710E949C1840C00E9477183DC0DD2335
:1027200049F0CF718C2F0E94B11863E08C2F0E946A
:10273000AA1A32C081E00E94BF1A123068F182E00A
:102740000E94BF1A29C0DD2331F0112391F2802F9E
:102750000E94661121C0112399F2093349F49FEFB9
:10276000E7EEF3E09150E040F040E1F700C00000F8
:10277000802F0E94A11110C04C2F4F70602FC701F5
:102780000E946D090E94A2170FC04C2F4F70602F3E
:10279000C7010E94700908C088EF8C0D843020F4B6
:1027A0000E9418100E941109DD20C9F00E941C1A15
:1027B00080FD15C0F70112820E94161A0E94B118FE
:1027C000C7010E9410140E94161ADF91CF911F9129
:1027D0000F91FF90EF90DF90CF900C94D218DF9183
:1027E000CF911F910F91FF90EF90DF90CF900895C0
:1027F0000F931F93CF93DF93EC01688179818A81D6
:102800000E94F3198C010E944E190E941F18B801F2
:10281000CE010E94F611DF91CF911F910F91089583
:10282000CF93DF93EC01988189812B813C81232B0D
:1028300031F08F3F31F481E09F3F19F403C081E014
:1028400001C080E080FD19C0CE010E942A098111DB
:102850000CC00E94201A882381F08A81882369F0A5
:1028600082E0DF91CF910C94BF1ACE010E94F81341
:10287000CE01DF91CF910C94F508DF91CF910895AF
:102880000E94471A0E94571A0E94751A0E94DF1F61
:102890000C94AE1E80911D0190911E010E94301C6F
:1028A0000C9440140E94371A0C944A14E92FE295B4
:1028B000EF704E2F50E0FA013297EE30F105B0F490
:1028C000EA59FF4F0C94532B803F91F018F4883E47
:1028D00068F40EC0843F51F40BC0883E48F0813F3D
:1028E00029F406C093FB882780F9089580E00895B5
:1028F00081E008950E94E8190E9456140895CF932C
:10290000DF9300D000D01F92CDB7DEB70F900F90AD
:102910000F900F900F90DF91CF910895CF93DF9399
:1029200000D000D000D0CDB7DEB726960FB6F89411
:10293000DEBF0FBECDBFDF91CF9108951F93CF9320
:10294000DF93C091E20116E08091E301C81799F08E
:10295000D0E01C9FF0011D9FF00D1124EC51FE4FA3
:102960004081518162817381848195810E948E149E
:102970002196C770E9CFDF91CF911F9108954091C3
:102980001402509115026091160270911702809105
:102990001802909119020C948E140F931F93CF93E9
:1029A000DF938091190282958F7009F05DC080914C
:1029B0001602882309F458C08091E2011091E301C6
:1029C0006091140270911502C0911702D091180203
:1029D00091E06F3F09F090E0292F06E0811709F49C
:1029E00043C0209721F07F3F21F030E003C031E069
:1029F00001C0322F90E030FD34C0089FF001099FE4
:102A0000F00D1124DF01AC51BE4F11963C9111978E
:102A1000371327C03C91361324C012963C9112976D
:102A200031111FC013964D915C9114974C1B5D0B97
:102A300044365105B0F4809119028F708061809303
:102A40001902E751FE4F80818F708061808384E19D
:102A500092E00E941014DF91CF911F910F910C947E
:102A60009E1401968770BACFDF91CF911F910F917D
:102A700008959F92AF92BF92CF92DF92EF92FF9212
:102A80000F931F93CF93DF93CDB7DEB761970FB648
:102A9000F894DEBF0FBECDBF8C0185E0F801DE01EA
:102AA0001D9601900D928A95E1F7F80140815181C0
:102AB000E2809091140260911502209117023091EA
:102AC00018022115310531F06F3F31F481E09F3F4D
:102AD00019F403C081E001C080E0F82FF1709F2E4F
:102AE00080FD2CC1F801A380B48084E1C82E82E06F
:102AF000D82EF0901602F501E21BF30BFF2009F42B
:102B0000EBC080911902E436F10508F0A7C0282F28
:102B1000207F09F052C0561313C0491311C0FE2C78
:102B2000E1100EC08F708061809319020E94BF1463
:102B3000C6010E94101480911902F80185833EC1DC
:102B4000AB2831F05F3F31F481E04F3F19F403C00F
:102B500081E001C080E080FD03C081E08E2502C0DD
:102B600080E090E0F82FF170FF2E80FF1CC0809174
:102B7000E2012091E30136E0821709F4FDC090E004
:102B8000389FF001399FF00D1124EC51FE4F618107
:102B9000561306C06081461303C06281E61203C06B
:102BA00001968770E9CFFE2CEE2009F407C18091D1
:102BB000190281608093190266C0561312C049132E
:102BC00010C0E1100EC0F8018583C8010E941014E6
:102BD00086E0F801A4E1B2E001900D928A95E1F758
:102BE000C8C04D875E878D859E850E947A14882394
:102BF00079F1EE2069F120911902822F82958F7070
:102C000090E0029774F080911402909115029887D9
:102C10008F831986BB86AA862C87CE0107960E94D1
:102C2000101486E0F801A4E1B2E001900D928A95BB
:102C3000E1F70E94CD140E94BF140DC0561729F170
:102C40004D875E878D859E850E947A1481112CC0E8
:102C5000C8010E941014FF24F394B0C0282F207FD5
:102C600069F77A2DB98AA88A6E2D89890E947F1406
:102C700084E192E00E94101486E0F60111928A9598
:102C8000E9F70E94BF14F12C99C04913D9CFE11084
:102C9000D7CFF8018583C8010E94101486E0F601A1
:102CA00011928A95E9F78AC0EE2091F220911902DB
:102CB000822F82958F7090E002970CF4B2CF8091B2
:102CC0001402909115029A8389831B82BD82AC8283
:102CD0002E83CE010196A3CFE436F10510F5FE2C2C
:102CE000EE2009F4B5CF56130BC0491309C086E096
:102CF000F801A4E1B2E001900D928A95E1F75EC07F
:102D00004D875E878D859E850E947A14811189CFBB
:102D100080911902816080931902C8010E941014E9
:102D20004DC07A2DB98AA88A6E2D89890E947F1498
:102D300086E0F60111928A95E9F71BC0EE2009F4AE
:102D400087CF4D875E878D859E850E947A14F82EE9
:102D5000882309F47DCF86E0F801A4E1B2E0019078
:102D60000D928A95E1F784E192E00E9460110E9441
:102D7000CD140E94BF1422C04D875E878D859E852D
:102D80000E94E819292F22952F70223028F49F7075
:102D900039F0811105C00BC0243028F49F7049F42C
:102DA000805E883020F0C8010E9410149F2CF92CFE
:102DB00005C0F8019581907F99F7F9CF8F2D619625
:102DC0000FB6F894DEBF0FBECDBFDF91CF911F913C
:102DD0000F91FF90EF90DF90CF90BF90AF909F90BA
:102DE000089584E690E008951F93CF93DF93CDB7C5
:102DF000DEB72C970FB6F894DEBF0FBECDBF4F8362
:102E0000588769877A878B879C87CE0107960E94AF
:102E100039158823D1F09F8188852A853B85232B0E
:102E200031F08F3F31F481E09F3F19F403C081E01E
:102E300001C080E080FD47C04F81588569857A8553
:102E40008B859C850E948E143EC086E0FE013796DD
:102E5000DE01119601900D928A95E1F7FF81E885D8
:102E60006A857B856115710531F0EF3F31F481E0B2
:102E7000FF3F19F403C081E001C080E080FD23C062
:102E80002091E30130E0C9010196877099274091B4
:102E9000E20150E084179507F1F1F983EA837D831D
:102EA0006C8396E0929FD001939FB00D1124AC519A
:102EB000BE4FFE01319601900D929A95E1F78093F5
:102EC000E3010E949E1416E08091E2019091E301DB
:102ED000891771F1189FC00111248C519E4F0E94D7
:102EE0003915882329F1E091E2011E9FF001112498
:102EF000EC51FE4F408151816281738184819581C3
:102F00000E948E148091E20190E0019687709927CB
:102F10008093E201D9CF0E9452141092E3011092E3
:102F2000E201E4E1F2E086E0DF011D928A95E9F733
:102F30002C960FB6F894DEBF0FBECDBFDF91CF91B8
:102F40001F910895EF92FF920F931F93CF93DF93FA
:102F50008C01892B09F46CC0F12CEE24E394E80178
:102F60002196F8018491843740F4843008F051C0F0
:102F7000813081F0823019F15BC0853709F444C09B
:102F8000A8F19CE7980F903708F052C08F770E9405
:102F9000A11141C00E5F1F4FFE01849190E2980F76
:102FA000983050F48770FE2D01C0FF0F8A95EAF724
:102FB0008F2F0E944A1A14C00E9466112DC00E5F06
:102FC0001F4FFE01849190E2980F983060F4877053
:102FD000FE2D01C0FF0F8A95EAF78F2F0E94501A2D
:102FE0000E94751A19C00E94A11116C00E5F1F4FD2
:102FF000FE01C491CC2381F08FE99FE00197F1F7A6
:1030000000C00000C150F6CF0E5F1F4FFE01F490CC
:1030100003C00E9466118E018F2D882309F49FCF73
:10302000EFE9FFE03197F1F700C000008150F5CFE4
:10303000DF91CF911F910F91FF90EF900895089528
:1030400008950C9420180C9421180E942318609362
:1030500041027093420280934302909344020C9485
:1030600040140C9425180F931F9300914102109166
:1030700042022091430230914402602B712B822B3B
:10308000932B1F910F910C9425180F931F93009170
:103090004102109142022091430230914402602388
:1030A0007123822393231F910F910C9425180F9362
:1030B0001F930091410210914202209143023091EE
:1030C000440260277127822793271F910F910C9448
:1030D00025180C9420180E94691860933D02709383
:1030E0003E0280933F02909340020C94401460E0B3
:1030F00070E0CB010C946B18611571058105910589
:1031000029F481E0442361F080E00895DC01CB01E3
:1031100004C0B695A795979587954A95D2F7817083
:103120000895482F60913D0270913E0280913F02C8
:10313000909140020C947C180F931F9341E050E053
:1031400060E070E08A019B0104C0000F111F221F84
:10315000331F8A95D2F7C901B8011F910F910C94C2
:103160006B180F931F9341E050E060E070E004C0E3
:10317000440F551F661F771F8A95D2F780913D0235
:1031800090913E02A0913F02B09140028A019B01C2
:10319000082B192B2A2B3B2BC901B8011F910F912A
:1031A0000C946B180F931F9341E050E060E070E0C7
:1031B00004C0440F551F661F771F8A95D2F74095AC
:1031C00050956095709580913D0290913E02A0913E
:1031D0003F02B09140028A019B01082319232A2350
:1031E0003B23C901B8011F910F910C946B180F93E9
:1031F0001F9341E050E060E070E004C0440F551FB1
:10320000661F771F8A95D2F780913D0290913E020A
:10321000A0913F02B09140028A019B010827192723
:103220002A273B27C901B8011F910F910C946B18F5
:103230000F931F9300913D0210913E0220913F0297
:1032400030914002602B712B822B932B1F910F9199
:103250000C946B180F931F9300913D0210913E0246
:1032600020913F02309140026023712382239323F7
:103270001F910F910C946B180F931F9300913D02B7
:1032800010913E0220913F02309140026027712749
:10329000822793271F910F910C946B18089527E0B4
:1032A000929F800D1124E82FE695E695E6958770AC
:1032B00051E001C0550F8A95EAF785E0E89FF001DB
:1032C0001124E65EFD4F20E030E070E04081CB014C
:1032D000022E02C0969587950A94E2F78170819537
:1032E00084278523842781932F5F3F4F2530310525
:1032F00069F7089527E0929F800D1124682F669545
:1033000066956695982F977085E0689FB0011124A7
:1033100040E050E080E0FB01E40FF51FE65EFD4F6A
:10332000208130E0092E02C0369527950A94E2F7F5
:1033300021703327042E01C0220F0A94EAF7822B52
:103340004F5F5F4F4530510531F70895BF92CF92DF
:10335000DF92EF92FF920F931F93CF93DF938C0135
:10336000C0903D02D0903E02E0903F02F0904002BB
:103370008091410290914202A0914302B091440297
:10338000C82AD92AEA2AFB2ACFE1D0E0D701C60110
:103390000C2E04C0B695A795979587950A94D2F7F9
:1033A00080FD04C0219790F7B12C07C0BC2EB80156
:1033B0008C2F0E948C090197A9F38B2DDF91CF915F
:1033C0001F910F91FF90EF90DF90CF90BF900895E5
:1033D000CF93DF93EC010E94A619BE010E948C09D5
:1033E000DF91CF9108951F93CF93DF93EB019091DD
:1033F000E101992321F0CB010E94E81913C0882331
:1034000049F0CB010E94A619182F682FCE010E9407
:103410004F1904C0CB010E947A19182FBE01812FC9
:103420000E948C09DF91CF911F91089580914502F0
:1034300085958595859508958091450287700895B5
:1034400090914502977081E009F480E008958091A1
:103450006902089590916902892B80936902089509
:103460008095909169028923809369020895109252
:103470006902089590916802892B809368020895EB
:103480008095909168028923809368020895109234
:103490006802089590916702892B809367020895CE
:1034A0008095909167028923809367020895109216
:1034B0006702089580914602089508950C945D1A5C
:1034C0000C945E1A90914602981721F08093460260
:1034D0000C94601A089580914602882329F0109276
:1034E000460280E00C94601A0895E0911D01F0916D
:1034F0001E01809169028083E0911D01F0911E01FF
:10350000908180916802892B8083E0911D01F09168
:103510001E01908180916702892B808380914602F1
:10352000882381F0E0911D01F0911E019081892B8B
:10353000808380911D0190911E010E94841B811146
:103540000E946B1A80911D0190911E010C94241011
:103550000C945D1A98E0899F90011124262B2093EA
:1035600045020E94B1188091450285958595859503
:103570000C94A81A1092450280E00C94A81A20918D
:1035800045028095822380934502982F977079F4A5
:1035900030E0482F082E000C550B2417350739F062
:1035A0008595859585950E94D2180C94BA1A089530
:1035B00080E090E00E946E2B21E08C3E9E4F09F04F
:1035C00020E0822F089582E090E00C94662B83E047
:1035D00090E00C94662B682F83E090E00C94742BA1
:1035E000CF9384E090E00E94662BC82F81E290E0A8
:1035F0000E94662B2C2F30E0A901582BCA01CF91D5
:103600000895CF93C92F682F84E090E00E94742B17
:103610006C2F81E290E0CF910C94742BAB01BC0134
:103620008FE090E00C94862BAB01BC0183E190E02D
:103630000C94862B60E070E0CB010C94141B60E0CE
:1036400070E0CB010E940E1B0C941A1B6CEE7EEFF7
:1036500080E090E00E94922B60E082E090E00E9487
:10366000742B60E083E090E00E94742B1092410282
:1036700010924202109243021092440260E084E0F1
:1036800090E00E94742B60E081E290E00E94742B35
:1036900060E085E090E00E94742B60E086E090E0BE
:1036A0000E94742B6FEF87E090E00E94742B40E043
:1036B00050E0BA0188E090E00E94862B60E08DE047
:1036C00090E00E94742B40E050E0BA0188E190E065
:1036D0000E94862B60E087E190E00E94742B40E01E
:1036E00050E0BA018CE190E00E94862B60E080E21D
:1036F00090E00E94742B0C941F1B0C94261B682FC7
:103700008EE090E00C94742BFC01329680913D0188
:10371000882331F08091A30287FF02C09EE101C09F
:1037200096E080E0915028F021912223D9F38F5F19
:10373000F9CF0895662351F120913D012223E9F04C
:103740002091A30227FF19C0462F4695469546951E
:103750004E31E0F4677021E030E002C0220F331FE9
:103760006A95E2F7FC01E40FF11D828190E02823C5
:10377000392381E0232B69F409C0FC0132960896B5
:103780002191621729F0E817F907D1F780E0089531
:1037900081E008959C01FC0132969FEF80E0419109
:1037A000461789F09F3F19F4411101C0982F8F5F90
:1037B0008630A9F79F3F39F0F901E90FF11D97FD18
:1037C000FA956283089508959C012A5F3F4FFC019A
:1037D0004281461301C01282019682179307B9F7FE
:1037E0000895262F2695269526952E3168F4FC01FE
:1037F000E20FF11D677021E030E001C0220F6A95F1
:10380000EAF78281282B22830895262F2695269574
:1038100026952E3170F4FC01E20FF11D677021E056
:1038200030E001C0220F6A95EAF7209582812823B3
:103830002283089520913D01222329F02091A302A3
:1038400027FD0C94F11B0C94CA1B20913D012223EF
:1038500029F02091A30227FD0C94051C0C94E41B75
:1038600020913D01FC013296222331F08091A30288
:1038700087FF02C08EE101C086E0DF011D928A95BC
:10388000E9F7089508950C94421C0C94421CCF93C0
:103890000E94451C0E94CC060E94431CC0E08C2F55
:1038A0000E943307811104C0CF5FC830C1F701C047
:1038B00081E0CF9108950C94421C0C945B1C0E94F3
:1038C0005D1C80919603843049F110926B0220E4D4
:1038D00088E190E00FB6F894A895809360000FBE41
:1038E0002093600080E00E9411090E945D1C83B754
:1038F000817F846083BF83B7816083BF789488951C
:1039000083B78E7F83BF0FB6F894A895809160002F
:10391000886180936000109260000FBE08950C943F
:10392000421C0E9452140E9418100E9411090C940B
:103930008F1C1F920F920FB60F9211248F939F939B
:10394000AF93BF9380916B02811113C080919F024E
:103950009091A002A091A102B091A2024196A11D56
:10396000B11D80939F029093A002A093A102B093F7
:10397000A202BF91AF919F918F910F900FBE0F90B8
:103980001F90189582E084BD93E095BD9AEF97BD96
:1039900080936E0008952FB7F89480919F029091C4
:1039A000A002A091A102B091A2022FBF08959C0194
:1039B0004FB7F89480919F029091A002A091A1022C
:1039C000B091A2024FBF821B930B089578941F926F
:1039D0000F920FB60F9211248F939F93AF93BF93C3
:1039E00080919F029091A002A091A102B091A202A9
:1039F0000196A11DB11D80939F029093A002A093F8
:103A0000A102B093A202BF91AF919F918F910F90AD
:103A10000FBE0F901F90189587E797E790930108C6
:103A2000809300089AE088E10FB6F894A8958093F7
:103A300060000FBE90936000FFCF0E94D81A8111E2
:103A400002C00E947D1B0E94E31A80936A020E94BA
:103A5000F01A9093A4028093A3020E94E71A682FA1
:103A600070E080E090E00E94311860913D0270911A
:103A70003E0280913F02909140020C94691880911F
:103A8000720280FF0BC06091240185E0689FB00145
:103A9000112475956795759567952BC081FF09C0B1
:103AA0006091240185E0689FB001112475956795A8
:103AB00020C082FF07C06091240185E0689FB001AB
:103AC000112417C0909171029923D1F060912301C4
:103AD000961788F72091240185E0289F90011124F2
:103AE000929FA001939F500D112470E0CA010E9483
:103AF0003F2B6038710540F46115710519F406C05B
:103B000065E070E0862F08958FE7089581E00895BD
:103B10008091720280FF08C06091200170E075956D
:103B200067957595679521C081FF06C0609120015A
:103B300070E07595679519C082FF04C060912001FF
:103B400070E010C090917002992399F060911F016C
:103B50009617A0F780912001899FC001112470E081
:103B60000E943F2B6038710540F46115710519F40E
:103B700006C061E070E0862F08958FE7089581E028
:103B80000895803F21F40E943F1D819504C0813F2C
:103B900029F40E943F1D809376020895823F21F40C
:103BA0000E943F1D819504C0833F29F40E943F1D60
:103BB000809375020895893F19F40E94881D05C0FD
:103BC0008A3F31F40E94881D819580937702089581
:103BD0008B3F21F40E94881D819504C08C3F29F4FD
:103BE0000E94881D809378020895843F21F480917B
:103BF0007402816017C0853F21F480917402826055
:103C000011C0863F21F48091740284600BC0873F0D
:103C100021F480917402886005C0883F31F480915E
:103C2000740280618093740208958D3F21F4809125
:103C3000720281600BC08E3F21F48091720282601B
:103C400005C08F3F29F480917202846080937202D4
:103C50000895803F39F48091760287FF6AC0109200
:103C6000760267C0813F29F4809176021816BCF372
:103C700060C090917502823F29F497FF5AC010925C
:103C8000750257C0833F19F41916CCF352C09091B6
:103C90007702893F31F419160CF04BC0109277026D
:103CA00048C08A3F19F497FF44C0F8CF8B3F39F4DE
:103CB0008091780287FF3DC0109278023AC08C3F15
:103CC00029F4809178021816BCF333C0843F21F4A4
:103CD000809174028E7F17C0853F21F48091740219
:103CE0008D7F11C0863F21F4809174028B7F0BC0C1
:103CF000873F21F480917402877F05C0883F31F4AB
:103D0000809174028F7E8093740213C08D3F21F4E2
:103D1000809172028E7F0BC08E3F21F480917202DF
:103D20008D7F05C08F3F29F4809172028B7F809335
:103D3000720280917502811106C080917602811114
:103D400002C01092710280917702811106C08091A9
:103D50007802811102C01092700208950E94CB1C5B
:103D600020917502211104C020917602222321F0B6
:103D700090936F0280936E0220917702211104C00C
:103D800020917802222321F090936D0280936C029F
:103D900083E792E00C943E10EF92FF920F931F93F3
:103DA000CF93DF9300D000D000D0CDB7DEB786E050
:103DB000E3E7F2E0DE01119601900D928A95E1F7BA
:103DC000E0907502F09076020091770210917802EF
:103DD0001092750210927602109277021092780279
:103DE000E11003C0FF2009F45DC080916E02909144
:103DF0006F020E94D71CAC0190917102992339F097
:103E00002091250130E02417350758F04BC0209150
:103E100026018AE0289F900111242417350718F005
:103E200041C09F3F19F09F5F90937102EE2061F0B7
:103E30000E943F1D1E1414F09FEF01C091E0989F57
:103E4000902D112490937502FF2061F00E943F1D78
:103E50001F1414F09FEF01C091E0989F902D112442
:103E600090937602309175023323E1F0209176022F
:103E70002223C1F045EB3403C0011124992319F02A
:103E80009093750203C081E08093750235EB2303A4
:103E9000C0011124992319F09093760203C081E0A8
:103EA00080937602011103C0112309F45DC0809153
:103EB0006C0290916D020E94D71CAC01909170022F
:103EC000992339F02091210130E02417350758F06B
:103ED0004BC0209122018AE0289F900111242417D1
:103EE000350718F041C09F3F19F09F5F9093700213
:103EF000002361F00E94881D101614F09FEF01C08E
:103F000091E0989F902D112490937702112361F0F6
:103F10000E94881D111614F09FEF01C091E0989F38
:103F2000902D112490937802309177023323E1F0A1
:103F3000209178022223C1F045EB3403C001112403
:103F4000992319F09093770203C081E08093770260
:103F500035EB2303C0011124992319F090937802C3
:103F600003C081E0809378028091750281110BC0BB
:103F700080917602811107C080917702811103C080
:103F80008091780281110E94AE1EEB82FC820D832B
:103F90001E8386E0FE013196A3E7B2E001900D9208
:103FA0008A95E1F726960FB6F894DEBF0FBECDBF17
:103FB000DF91CF911F910F91FF90EF900895E3E76C
:103FC000F2E086E0DF011D928A95E9F71092710216
:103FD00010927002109272020895881F8827881F1D
:103FE000089591E0883F08F490E0892F0895982F74
:103FF000907F903BF1F038F49039D9F0903AC9F0C5
:104000009038C9F416C0903D49F018F4903C31F056
:1040100012C0903E71F0903F19F00DC082E00895FB
:10402000815F8F3040F4E82FF0E0E35BFE4F80814A
:10403000089583E0089580E008950F93022F0F778D
:10404000242F2F776F70462F406BDC01ED91FC9190
:1040500063E070E009950F9108950F93022F0F7799
:10406000242F2F776F70462F4069DC01ED91FC9172
:1040700063E070E009950F9108950F93022F0F7779
:10408000242F2F776F70462F4068DC01ED91FC9153
:1040900063E070E009950F9108950F931F93411508
:1040A00020E252073CF44115A0EE5A0734F09A0181
:1040B000305E05C02FEF3FE302C020E030E0890111
:1040C000000F012F001F110B11952F77462F4F70F6
:1040D000406EDC01ED91FC9163E070E009951F9169
:1040E0000F910895FC01738362830895FC01758F1D
:1040F000648F0895CF93DF93EC011DA21FA21EA22F
:10410000BC01685D7F4F40EC88519F4F0E949D220B
:104110001B821A821D821C821F821E8219861886AB
:104120001B861A861D861C861F861E86198A188A7B
:104130001B8A1A8A1D8A1C8A1F8A1E8A198E188E4B
:104140001B8E1A8E1D8E1C8E1F8E1E8E19A218A2FB
:10415000DF91CF910895EF92FF920F931F93CF932A
:10416000DF93EA018A01060F111D88519F4F7C01E0
:10417000C017D10729F06991C7010E94A422F8CF86
:10418000DF91CF911F910F91FF90EF900895FC0167
:10419000718360830895FC0171A360A30895AF92B9
:1041A000BF92CF92DF92EF92FF920F931F93CF9324
:1041B000DF9300D01F92CDB7DEB77C016B01142FC7
:1041C000B22EA02EDC0195968C9195978430F1F457
:1041D0005A96ED91FC915B97309709F4BEC0CB01E4
:1041E000019763E070E00E942B2BCB01880F991F91
:1041F000860F971F4983BA820B834C2D481B9E0163
:104200002F5F3F4FBC01C7010995B4C062307105F3
:1042100009F452C06330710529F06130710509F06D
:1042200099C080C0842F807F803AF9F058F480389C
:10423000B1F0803909F091C0D7011496ED91FC914D
:1042400015972AC0803EB9F0803FD9F0803B09F035
:1042500084C0D7011296ED91FC9113971DC0D70130
:104260001696ED91FC91179717C0D7011896ED910E
:10427000FC91199711C0D7011A96ED91FC911B97EB
:104280000BC0423F09F069C0D7011C96ED91FC912B
:104290001D97309731F461C0309709F45EC0123F2A
:1042A00021F42A2D4B2D62EF04C02A2D4B2D612FB6
:1042B0006F70C70109955EC0842F807F803D59F0E3
:1042C000803F79F0803C09F048C0D7011E96ED91FF
:1042D000FC911F9718C0D7015096ED91FC91519712
:1042E00012C0433F31F4D7015296ED91FC915397A0
:1042F00007C0413F91F5D7015496ED91FC91559738
:10430000309739F42AC0309741F1812F8D7F813F5A
:1043100019F44B2D612F03C04B2D612F6F70C70116
:10432000099528C0842F0E94F11F882331F0D701FE
:104330005696ED91FC91579707C0163F71F4D7013F
:104340005896ED91FC915997309739F0612FC7013C
:10435000099510C064307105D8F4D7015C96ED91D1
:10436000FC915D97309731F00A2D2B2D412FB6012E
:10437000C7010995D7015E96ED91FC915F97309743
:1043800051F00A2D2B2D412FB601C701099503C00D
:10439000C12CD12CE2CF0F900F900F90DF91CF91D5
:1043A0001F910F91FF90EF90DF90CF90BF90AF9053
:1043B0000895FF920F931F93CF93DF93EC01162F75
:1043C000862F0E94F11F882369F0FDA081E08DA354
:1043D00000E020E0412F61E070E0CE010E94CF209C
:1043E000FDA270C0812F0E94ED1F4DA1882309F40A
:1043F00040C0443029F01AA381E090E09FA38EA32F
:10440000812F0E94F71F813031F070F0823051F01F
:10441000833041F02AC08DA300E020E0412F61E00D
:1044200070E01EC08DA34EC0103FB1F0173FE9F4FD
:104430002EA13FA1C90163E070E00E942B2BFE0179
:10444000E80FF91F12A3B9016F5F7F4F7FA36EA31F
:104450000CA12BA14AA104C084E08DA31AA329C0FA
:10446000CE010E94CF201DA22DC01DA21FA21EA200
:1044700029C0442339F12EA13FA1C90163E070E0B6
:104480000E942B2BFE01E80FF91F12A3B9016F5FE9
:104490007F4F7FA36EA38130910581F0029791F445
:1044A0000CA12BA14AA1CE010E94CF208DA1843066
:1044B00049F081E090E09FA38EA304C0423011F444
:1044C00000E0EFCFDF91CF911F910F91FF90089502
:1044D000CF92DF92EF92FF920F931F93CF93DF93D0
:1044E000EC01E8A1F9A1309709F009956E0188EE79
:1044F000C80ED11CC6010E94D422E12CF12C082F39
:1045000010E0E016F10680F460E0C6010E94EA22A5
:10451000682FCE010E94D92161E0C6010E94FB22D2
:104520008FEFE81AF80AEDCFDF91CF911F910F912D
:10453000FF90EF90DF90CF900895FC014283748349
:1045400063831182108208951F93CF93DF93EC0150
:10455000162F0E941323E82F298130E0C90101960C
:104560006A8170E00E943F2B488150E084179507D4
:1045700029F48E2F0E94162380E012C08B819C812B
:10458000DC01A20FB31F1C93898190E001966A8120
:1045900070E00E943F2B89838E2F0E94162381E0BA
:1045A000DF91CF911F9108950F931F93CF938C01AB
:1045B0000E941323F801C1812081C21718F4F80169
:1045C0009281C90FC21B0E9416238C2FCF911F917D
:1045D0000F910895FC012081862F90E0820F911D9C
:1045E000628170E00E943F2B0380F481E02DE80F90
:1045F000F91F808108951F93CF93DF93EC01162F4D
:104600000E941323282F3881812F90E0830F911D62
:104610006A8170E00E943F2B8883822FDF91CF91C7
:104620001F910C9416238FB7F89408958FBF0895A7
:10463000089508950F931F93CF93DF93CDB7DEB7FF
:1046400027970FB6F894DEBF0FBECDBF8C01CE0109
:1046500001960E948125882309F18A810E94F71F13
:104660009A819D839B819E839C819F8381110EC033
:104670008981843041F0873031F0863031F08530E7
:1046800031F781E003C083E001C082E0AE014B5FFF
:104690005F4F682FC8010E94AB20D9CF27960FB675
:1046A000F894DEBF0FBECDBFDF91CF911F910F9168
:1046B0000895DF92EF92FF920F931F93CF93DF93B2
:1046C00000D000D0CDB7DEB77B01142FD22E4A83A5
:1046D0002B830C83842F0E94F71F81111CC082E062
:1046E000E816F10471F083E0E816F10421F0EA9491
:1046F000EF28C1F40CC0073F11F487E006C084E046
:1047000004C087EFD812FBCF86E0898307C0173F2C
:10471000B1F785E0FACF12951F701983CE0101968B
:104720000E947C250F900F900F900F90DF91CF91FA
:104730001F910F91FF90EF90DF9008950E94650BFD
:1047400085EA92E00E947A2069E573E285EA92E0C8
:104750000E94C7206AE173E285EA92E00E94CB20C2
:1047600068E173E285EA92E00E94762069E173E2F3
:1047700085EA92E00C947220209196032430D9F4BB
:104780009B01FC0181818F708093E90040E050E043
:1047900064E070E0C9010E94422681110FC090912F
:1047A000E800892F807295FD08C09091E8009E77FF
:1047B0009093E800089582E0089580E008952091A4
:1047C00096032430A1F4FC0181818F708093E9006D
:1047D0002091F3008091F20090E0922B892B49F018
:1047E0008091E8008E778093E8000C94EB2782E0BC
:1047F000089580E00895FC0180919603843059F477
:1048000091819F709093E9008091E80080FF03C040
:10481000CF010C94DF23089520919603243011F0EA
:1048200080E00895FC0186818F708093E90080917B
:10483000E80082FFF5CF8091E80085FFF1CFCB0142
:1048400040E050E064E070E00E948D268091E80036
:1048500085FD05C08091E8008B778093E80081E0BA
:104860000895809199020895089522E02093E90027
:104870002FEF3091E800215035FD06C035ED3A9517
:10488000F1F700002111F5CF2091E80025FF0BC0C2
:1048900040E050E066E070E00E9442268091E8002F
:1048A0008E778093E8000895CF93DF9320913D01A8
:1048B000222339F02091A30227FF03C060E222E007
:1048C00002C068E021E02093E9002FEF3091E8007A
:1048D000215035FD06C035ED3A95F1F70000211164
:1048E000F5CF2091E80025FF1DC0EC0180913D012E
:1048F000811105C040E050E068E070E003C070E066
:1049000040E050E0CE010E9442268091E8008E7780
:104910008093E80080E2FE01A9E7B2E001900D92E9
:104920008A95E1F7DF91CF910895089580919503DD
:10493000811109C00E941E280E947B288091E200FC
:1049400084608093E200089510929503089508957D
:1049500008950C94911C42E061EC81E00E9497273D
:1049600042E261EC82E00E94972742E361E883E043
:104970000E94972742E361E884E00C949727809196
:104980009803833009F460C030F4813071F08230D4
:1049900009F499C008958A3009F485C08B3009F470
:1049A0006BC0893009F0A7C020C080919703813A7D
:1049B00009F0A1C08091E800877F8093E800809192
:1049C0009B0390919C03892B21F460E289E792E09C
:1049D00003C060E080E090E070E00E94D826809103
:1049E000E8008B778093E8000895809197038132E7
:1049F00009F081C080919B0390919C03029708F07D
:104A00007AC08091E800877F8093E8008091E80079
:104A100082FD05C0809196038111F8CF6CC0209172
:104A2000F3008091F20090E0922B029729F480919C
:104A3000F1008B7F813021F48091F1008093990205
:104A40008091E8008B7753C080919703813A09F0F9
:104A500052C080919B0390919C03892B09F04BC01D
:104A60008091E800877F8093E8008091E80080FFD4
:104A7000FCCF80913D0136C0809197038132D9F5FA
:104A800080919B0390919C03892BA9F58091E8006C
:104A9000877F8093E8000E94CC27809199038093C0
:104AA0003D010C94521480919703813221F580913D
:104AB000E800877F8093E8000E94CC2780919A03CA
:104AC00080939A02089580919703813AA1F480918E
:104AD000E800877F8093E8008091E80080FFFCCFAA
:104AE00080919A028093F1008091E8008E77809304
:104AF000E8000C94CC270895BC0187E291E00C9467
:104B0000BC23BC0187E291E00C940C240E949E23FC
:104B100084B7877F84BF0FB6F894A8958091600012
:104B2000886180936000109260000FBE90E080E882
:104B30000FB6F89480936100909361000FBE0E94BD
:104B400086100E941E280E947B288091E2008460CB
:104B50008093E20078940E94102B0E94901083E3CF
:104B600091E00E94131080919603853069F40E94B1
:104B70005F1C809194038823B1F30E94471C882313
:104B800091F30E942C26EFCF0E94981087E291E0CB
:104B90000E94FB23E8CF0C94CD25292F3327233007
:104BA0003105C9F060F42130310581F02230310542
:104BB00009F04AC08FE990E026E835E049C021328B
:104BC000310511F12232310579F13EC082E190E0E8
:104BD00025E236E03DC099278130910561F040F033
:104BE0008230910559F0039779F5ECE5F5E008C0BE
:104BF000E2E8F5E005C0E6E7F5E002C0E2E6F5E050
:104C0000849190E09F0124C06115710541F06130ED
:104C10007105D1F489E090E021EB35E019C089E01D
:104C200090E028E935E014C06115710541F061306C
:104C3000710551F48AE890E027E336E009C080E48A
:104C400090E021EC36E004C080E090E020E030E02D
:104C5000FA0131832083089580E189BD82E189BD15
:104C600009B400FEFDCF8091D8008F7D8093D800DD
:104C70008091E00082608093E0008091E00081FDFF
:104C8000FCCF0895CF92DF92EF92FF920F931F9384
:104C9000CF93DF93EC018B017A010E94EB27811106
:104CA00033C0E114F10439F0F70180819181081BD0
:104CB000190BC80FD91FC12CD12C0115110519F1E1
:104CC0008091E80085FD16C08091E8008E77809382
:104CD000E800E114F10449F0F70180819181C80EE8
:104CE000D91ED182C08285E00FC00E94EB278823A5
:104CF00021F30AC089918093F10001501109FFEF5F
:104D0000CF1ADF0ADACF80E0DF91CF911F910F91A8
:104D1000FF90EF90DF90CF900895CF92DF92EF92C7
:104D2000FF920F931F93CF93DF93EC018B017A01D6
:104D30000E94EB27811133C0E114F10439F0F7012F
:104D400080819181081B190BC80FD91FC12CD12C50
:104D50000115110519F18091E80085FD16C08091BB
:104D6000E8008B778093E800E114F10449F0F70143
:104D700080819181C80ED91ED182C08285E00FC08A
:104D80000E94EB27882321F30AC08091F1008993C8
:104D900001501109FFEFCF1ADF0ADACF80E0DF916F
:104DA000CF911F910F91FF90EF90DF90CF900895DA
:104DB00020919D0330919E032617370748F0611517
:104DC000710539F42091E8002E772093E80001C0A6
:104DD000B901FC0120E06115710579F1809196031C
:104DE0008823F1F18530F1F18091E80083FD3CC02A
:104DF0008091E80082FD2EC08091E80080FFEBCF1B
:104E00002091F3008091F20090E0922B61157105E2
:104E100051F08830910538F421912093F1006150D0
:104E200071090196F3CF21E0089709F020E0809105
:104E3000E8008E778093E800CECF2111CFCF0AC053
:104E400080919603882361F0853061F08091E800BD
:104E500083FD0AC08091E80082FFF2CF80E00895D0
:104E600082E0089583E0089581E0089520919D03F4
:104E700030919E032617370748F06115710539F404
:104E80002091E8002E772093E80001C0B901FC01D1
:104E900020E06115710591F180919603882309F452
:104EA00040C0853009F43FC08091E80083FD3DC0DB
:104EB0008091E80082FD2FC08091E80080FFE9CF5B
:104EC0002091F3008091F20090E0922B6115710522
:104ED00059F08830910540F424912093F1003196E7
:104EE000615071090196F2CF21E0089709F020E0A6
:104EF0008091E8008E778093E800CBCF2111CCCF52
:104F00000AC080919603882361F0853061F080911A
:104F1000E80083FD0AC08091E80082FFF2CF80E0C4
:104F2000089582E0089583E0089581E00895982F20
:104F3000973068F59093E900981739F07091EC007C
:104F40002091ED005091F00003C0242F762F50E007
:104F500021FD02C09F5FECCF3091EB003E7F30938C
:104F6000EB003091ED003D7F3093ED003091EB0090
:104F700031603093EB007093EC002093ED00509380
:104F8000F0002091EE0027FDE5CF80E008958F70BE
:104F90008093E90081E008958091970387FF11C015
:104FA0008091E80082FD05C0809196038111F8CFC1
:104FB00011C08091E8008B770BC080919603882305
:104FC00049F08091E80080FFF8CF8091E8008E776B
:104FD0008093E80008952091E4003091E50095E683
:104FE0004091EC00842F817040FF23C08091E80045
:104FF00080FD1DC080919603882399F0853099F03B
:105000008091EB0085FD11C04091E4005091E500D6
:105010002417350729F3915011F09A01E1CF84E06C
:10502000089582E0089583E0089581E0089580E086
:1050300008954091E80042FFDDCF08950E948C283A
:105040000E949428E0EEF0E0808181608083E8EDAA
:10505000F0E080818F77808319BCA7EDB0E08C9160
:105060008E7F8C9380818F7E80831092950308952C
:105070000F931F93CF93DF930E948C280E94942854
:10508000C8EDD0E088818F778883888180688883A5
:1050900088818F7D888319BC1092960310929203A9
:1050A000109294031092930300EE10E0F8018081B7
:1050B0008B7F808388818160888342E060E080E02C
:1050C0000E949727E1EEF0E080818E7F8083E2EE00
:1050D000F0E0808181608083808188608083F80136
:1050E00080818E7F8083888180618883DF91CF91EA
:1050F0001F910F910895E8EDF0E080818F7E80830D
:10510000E7EDF0E080818160808384E082BF81E010
:10511000809395030C943828E8EDF0E080818E7F31
:1051200080831092E20008951092DA001092E1005C
:1051300008951F920F920FB60F9211242F933F9351
:105140004F935F936F937F938F939F93AF93BF938F
:10515000EF93FF938091E10082FF0BC08091E2000A
:1051600082FF07C08091E1008B7F8093E1000E9465
:105170000F2B8091DA0080FF1FC08091D80080FF44
:105180001BC08091DA008E7F8093DA008091D90075
:1051900080FF0DC080E189BD82E189BD09B400FEB8
:1051A000FDCF81E0809396030E94962405C019BC30
:1051B000109296030E94A4248091E10080FF19C000
:1051C0008091E20080FF15C08091E2008E7F809385
:1051D000E2008091E20080618093E2008091D8003B
:1051E00080628093D80019BC85E0809396030E946A
:1051F000A8248091E10084FF30C08091E20084FF08
:105200002CC080E189BD82E189BD09B400FEFDCFDB
:105210008091D8008F7D8093D8008091E1008F7EAF
:105220008093E1008091E2008F7E8093E200809184
:10523000E20081608093E20080919203882311F064
:1052400084E007C08091E30087FD02C081E001C0D7
:1052500083E0809396030E94A9248091E10083FF5C
:1052600029C08091E20083FF25C08091E100877F03
:105270008093E10082E080939603109292038091E4
:10528000E1008E7F8093E1008091E2008E7F809329
:10529000E2008091E20080618093E20042E060E001
:1052A00080E00E9497278091F00088608093F00052
:1052B0000E94A724FF91EF91BF91AF919F918F9191
:1052C0007F916F915F914F913F912F910F900FBE02
:1052D0000F901F9018951F920F920FB60F921124E6
:1052E0002F933F934F935F936F937F938F939F93EE
:1052F000AF93BF93CF93DF93EF93FF93C091E900F8
:10530000CF708091EC00D82FD17080FDD0E8109242
:10531000E9008091F000877F8093F00078940E94EC
:10532000AF291092E9008091F00088608093F0002E
:10533000CD2BCF70C093E900FF91EF91DF91CF911A
:10534000BF91AF919F918F917F916F915F914F919D
:105350003F912F910F900FBE0F901F9018951F93A4
:10536000CF93DF93CDB7DEB7AA970FB6F894DEBF21
:105370000FBECDBFE7E9F3E08091F100819323E018
:10538000EF39F207C9F70E94BF248091E80083FF3C
:105390002EC18091970390919803492F50E04A3095
:1053A000510508F024C1FA01EC58FF4F0C94532B1F
:1053B000803821F0823809F01AC108C08091930327
:1053C00090919403992389F082600FC080919B0390
:1053D0008F70873008F00BC18093E9008091EB005B
:1053E00085FB882780F91092E9009091E800977F6B
:1053F0009093E8008093F1001092F100D1C0282F23
:105400002D7F09F0F4C0882319F0823061F0EFC0DD
:1054100080919903813009F0EAC0933009F080E06F
:10542000809394032EC08091990381112AC08091AA
:105430009B038F702FEF280F263008F0D8C0809381
:10544000E9002091EB0020FF1CC0933021F48091F3
:10545000EB00806214C09091EB0090619093EB00A0
:1054600021E030E0A90102C0440F551F8A95E2F700
:105470004093EA001092EA008091EB0088608093EC
:10548000EB001092E9008091E800877F8093E800AC
:105490000E94CC27ACC08111AAC0109199031F773C
:1054A0008091E3008078812B8093E3008091E80075
:1054B000877F8093E8000E94CC278091E80080FFDE
:1054C000FCCF8091E30080688093E300111102C05B
:1054D00082E001C083E08093960389C080588230C7
:1054E00008F085C08091990390919A038C3D53E018
:1054F000950779F583E08A838AE289834FB7F89428
:10550000DE01139620E03EE051E2E32FF0E05093FD
:105510005700E49120FF03C0E295EF703F5FEF700A
:105520008E2F90E0EA3010F0C79601C0C0968D93A0
:105530009D932F5F243149F74FBF8091E800877F0B
:105540008093E8006AE270E0CE0101960E94D826BE
:1055500016C060919B0370919C03AE014F5F5F4F3B
:105560000E94CB25BC01892B09F441C09091E80031
:10557000977F9093E80089819A810E9436278091D5
:10558000E8008B778093E80032C0803881F5809105
:10559000E800877F8093E800809192038093F10078
:1055A0008091E8008E7772CF811121C0809199039C
:1055B00090919A0399270297D4F48091E800877F0D
:1055C0008093E80080919903809392030E94CC27F6
:1055D00080919203811106C08091E30087FD02C093
:1055E00081E001C084E0809396030E94AB24809107
:1055F000E80083FF0AC08091E800877F8093E8007D
:105600008091EB0080628093EB00AA960FB6F8942D
:10561000DEBF0FBECDBFDF91CF911F9108950895DA
:10562000CF93809196038823A1F0C091E900CF70B9
:105630009091EC00892F817090FD80E8C82B10922A
:10564000E9008091E80083FD0E94AF29CF70C093EC
:10565000E900CF910895AA1BBB1B51E107C0AA1F07
:10566000BB1FA617B70710F0A61BB70B881F991F03
:105670005A95A9F780959095BC01CD01089597FBA7
:10568000072E16F4009407D077FD09D00E942B2B2B
:1056900007FC05D03EF4909581959F4F0895709535
:1056A00061957F4F0895EE0FFF1F0590F491E02D57
:1056B0000994FB01DC0104C08D910190801921F453
:1056C00041505040C8F7881B990B0895F999FECFB7
:1056D00092BD81BDF89A992780B50895A8E1B0E000
:1056E00042E050E00C949A2B262FF999FECF92BD00
:1056F00081BDF89A019700B4021639F01FBA20BD97
:105700000FB6F894FA9AF99A0FBE08950396272FC8
:105710000E94752B0E94742B252F0E94752B242F1D
:105720000C94752B0196272F0E94752B0C94742BCB
:10573000DC01CB01FC01F999FECF06C0F2BDE1BD51
:10574000F89A319600B40D9241505040B8F7089540
:04575000F894FFCFFB
:105754000501750100000001730175010476010162
:1057640073017401000000047A01FFFF304702282E
:1057740008641E140A321E03834000000104400022
:105784000001003124542435249524342401F4F5F3
:10579400F6F7313332946697C60000000002030224
:0C57A400000001000101010101000101F1
:00000001FF
