:100000000C94FE030C9445040C9445040C94F904E0
:100010000C9445040C9445040C9445040C9445043C
:100020000C9445040C9445040C9484210C945622A1
:100030000C942D1A0C9445040C9445040C9445041E
:100040000C9445040C9445040C9445040C9445040C
:100050000C9445040C947A1A0C9445040C944504B1
:100060000C9445040C9445040C9445040C944504EC
:100070000C9445040C9445040C9445040C944504DC
:100080000C9445040C9445040C9445040C944504CC
:100090000C9445040C9445040C9445040C944504BC
:1000A0000C9445040C9445040C94450467086D08B1
:1000B000770888087508A508A708C00FC00FF20FB9
:1000C000F20F60113F10601160114A10DF10F01044
:1000D000F0105011601160115911F811F8110A1245
:1000E0000A1201120A120A120A12F811F811061263
:1000F0000A120A120612C322EA22E223EA22E223A9
:1001000036235923E223B023BF231700150008002C
:100110001A0014002B0029000A000900070016002D
:100120000400010049000500190006001B001D0025
:1001300001008B002A5D2C000658E0004A000100F7
:100140002D5D1C0018000C00120013002F002A0067
:100150000B000D000E000F003300340028001100CA
:10016000100036003700380087008A002B5D2A0017
:1001700028002C5D4D00010001000000000000007F
:10018000000000000000000000000000000000006F
:10019000000000000000000000000000000000005F
:1001A000000000000000000000000000000000004F
:1001B000000000000000000000000000000000003F
:1001C000000000000000000000000000000000002F
:1001D000000000000000000000000000000000001F
:1001E000000000000000000000000000000000000F
:1001F00000000000000000000000000000000000FF
:1002000000000000000000000000000000000000EE
:1002100000000000000000000000000000000000DE
:1002200000000000000000000000000000000000CE
:1002300000000000000000000000000000000000BE
:1002400000000000000000000000000000000000AE
:10025000000000000000000000000000000000009E
:10026000000000000000000000000000000000008E
:10027000000000000000000000000000000000007E
:10028000000000000000000000000000000000006E
:10029000000000000000000000000000000000005E
:1002A000000000000000000000000000000000004E
:1002B000000000000000000000000000000000003E
:1002C000000000000000000000000000000000002E
:1002D000000000000000000000000000000000001E
:1002E000000000000000000000000000000000000E
:1002F00000000000000000000000000000000000FE
:1003000000000000000000000000000000000000ED
:1003100000000000000000000000000000000000DD
:1003200000000000000000000000000000000000CD
:1003300000000000000000000000010001000100BA
:10034000010001000100290001000100010001007D
:10035000010001004900010001000100010001004D
:1003600001008B002A5D2C000658E0004A000100C5
:1003700001000100010001000100010001002A004C
:10038000010001000100010001000100280001003E
:10039000010001000100010001008A002B5D2A001C
:1003A00028002C5D4D000100010017021502080213
:1003B0001A0214022B0229020A020902070216027B
:1003C0000402010049020502190206021B021D0275
:1003D00001008B022A5D2C020100E0024A020100AA
:1003E00001001C0218020C02120213022F022A0042
:1003F0000B020D020E020F0233023402280011021A
:10040000100236023702380287028A002B5D2A0268
:10041000280201004D02010001001700150008002C
:100420001A0014002B0029000A000900070016001A
:100430000400010049000500190006001B001D0012
:1004400001008B002A5D2C000658E0004A000100E4
:100450002D5D1C0018000C00120013002F002A0054
:100460000B000D000E000F003300340028001100B7
:10047000100036003700380087008A002B5D2A0004
:1004800028002C5D4D000100010017021502080232
:100490001A0214022B0229020A020902070216029A
:1004A0000402010049020502190206021B021D0294
:1004B00001008B022A5D2C020100E0024A020100C9
:1004C00001001C0218020C02120213022F022A0061
:1004D0000B020D020E020F02330234022800110239
:1004E000100236023702380287028A002B5D2A0288
:1004F00028024C024D02010001003F003E003D0079
:100500003C003B003A002900DE5C285D0100010050
:10051000010001004900005C295D010001000100AB
:1005200001008B0001002C000658E0004A00010089
:1005300001004000410042004300440045002A0001
:100540005000510052004F0001000100280001003E
:10055000010001000100010001008A002B5D2A005A
:1005600028002C5D4D000100010001000100010088
:100570000100010001002900DE5C285D010001008E
:10058000010001004900005C295D0100010001003B
:1005900001008B002A5D2C000658E0004A00010093
:1005A00001000100F400F600F500F90001002A0046
:1005B000F200F100F000F300FA0001002800010051
:1005C000010001000100010001008A0001002A0071
:1005D00028002C5D4D000100010001000100010018
:1005E00001000100010029000100010001000100DB
:1005F00001000100490001000100010001000100AB
:1006000001008B0001002C000658E0004A000100A8
:1006100001000100240025002600010001002A003D
:100620000100210022002300010001002800270012
:100630001E001F002000010001008A0001002A00A6
:1006400028002C5D4D00010001002F0224021F0232
:1006500087022E022B00290034002D0234022D00C7
:1006600033020100490022022102200238021E0248
:1006700001008B00E2002C00E100E0004A000100D4
:100680002D5D230225023602300230002F002A00A1
:1006900089022602370232023200340028000100AB
:1006A0002F002E003600870001008A00E3002A0098
:1006B00028004C004D000100010004033000000040
:1006C00012036C0069007100750069006400350058
:1006D000360000000A037800630064003000000068
:1006E0000403090409023B00020100A032090400CE
:1006F000000103010100092111010001224000074E
:1007000005810308000A0904010001030000000933
:100710002111010001228A000705820320000A122C
:100720000110010000000866320000010001020310
:100730000105010902A10185020901A100050919AC
:1007400001290515002501950575018102950175A1
:100750000381010501093009311581257F95027555
:1007600008810609381581257F95017508810605E0
:100770000C0A38021581257F950175088106C0C0D5
:1007800005010906A1018505050719E029E71500FE
:1007900025019508750181020507190029EF15004B
:1007A000250195F0750181020508190129059505B6
:1007B00075019102950175039101C005010906A11A
:1007C00001050719E029E715002501950875018144
:1007D000029501750881010507190029FF150026FA
:1007E000FF00950675088100050819012905950582
:1007F00075019102950175039101C00011241FBE7E
:10080000CFEFDAE0DEBFCDBF04B603FE27C0809194
:10081000440290914502A0914602B0914702873070
:10082000904BA740B04BD1F4109244021092450275
:10083000109246021092470214BE84B7877F84BF8D
:100840000FB6F894A895809160008861809360004D
:10085000109260000FBEE0E0F8E3099511E0A0E01F
:10086000B1E0EAE2F9E402C005900D92A034B107CC
:10087000D9F722E0A0E4B1E001C01D92A434B20790
:10088000E1F70E94C21E0C9493240C9400008EE1A8
:100890004A9B02C08150E1F74A9BFECF08955A98C7
:1008A00080E28A95F1F75A9A0895FC012AE02A9588
:1008B000F1F790E020E080E031E0261779F040E1A8
:1008C0004A95F1F7880F4A9B02C08160932700C0C8
:1008D000000040E14A95F1F72F5FEFCF20E12A9524
:1008E000F1F729B100C0000030E13A95F1F722FBA1
:1008F000222720F992272081920F90830895EF926A
:10090000FF920F931F93CF93DF931F92CDB7DEB764
:1009100019828C017C01E60EF11C0E151F0559F0A1
:100920000E94470468E0CE0101960E945504F80138
:1009300081938F01F2CF81E09981911180E00F9036
:10094000DF91CF911F910F91FF90EF9008959093B9
:1009500042018093410160934001529A5A9A08954E
:1009600090934201809341016093400152985A9ABA
:10097000EA9AE9E6F0E080818F7C808308956150F7
:1009800091E001C0990F6A95EAF720E031E09923E0
:1009900061F0492F482319F05A9A232701C05A9829
:1009A00040E24A95F1F79695F2CF222311F05A9A38
:1009B00001C05A9880E28A95F1F75A980895FF92FB
:1009C0000F931F93CF93DF93EC018C01060F111D42
:1009D000C017D10741F0F9900E944F0468E08F2DB5
:1009E0000E94BF04F5CFDF91CF911F910F91FF902F
:1009F00008951F920F920FB60F9211240F931F9319
:100A00002F933F934F935F936F937F938F939F9316
:100A1000AF93BF93EF93FF93CF93DF931F92CDB725
:100A2000DEB719820E94470467E0CE0101960E945A
:100A30005504382F369536953695932F96959570A3
:100A4000232F2570920F292F2370969596958770E6
:100A5000920F891348C08981811145C0809140015E
:100A6000831708F440C080E18A95F1F75A9A529AA8
:100A7000A2E0AA95F1F700C0009141011091420156
:100A8000B8E03B9F000D111D11245A98F8016581B3
:100A9000662321F0868197810E94DF040E944F0423
:100AA000F0E1FA95F1F75A9852985A9A80E18A95AE
:100AB000F1F7D80112966C911297662369F013969C
:100AC0008D919C9114970E947F04D801ED91FC9127
:100AD000811105C082E004C0D801ED91FC9188E04D
:100AE00080830E9447040F90DF91CF91FF91EF9197
:100AF000BF91AF919F918F917F916F915F914F9136
:100B00003F912F911F910F910F900FBE0F901F904B
:100B100018950F931F93CF93DF932091400130E0FE
:100B2000281739070CF471C09C0193E0220F331F82
:100B30009A95E1F7C0914101D0914201C20FD31FB4
:100B4000F894529A5A9845E04A95F1F70000982F88
:100B5000969595708570890F982F937086958695D8
:100B6000890F8901082B0E944F0484E08A95F1F7D0
:100B700000C067E0802F0E94BF0440E14A95F1F772
:100B800052985A9A4A9902C000C0FCCF87E090E080
:100B90004A9B0EC0019751F4529A5A9AE881F98102
:100BA00081E08083789481E090E031C000C0F0CF94
:100BB0006D81662381F08E819F810E947F04811167
:100BC0000AC0529A5A9AE881F98182E08083789427
:100BD00082E090E01CC00E94470480E28A95F1F711
:100BE0005A98529A40E14A95F1F76A81662321F0BA
:100BF0008B819C810E94DF040E944F04E881F9816F
:100C00001082789480E090E002C084E090E0DF9170
:100C1000CF911F910F910895CF93DF93A8E3B1E097
:100C20004CE351E061E070E08D91E82FE295EF70C8
:100C3000F0E021A18F70EB0102C0CC0FDD1F8A957F
:100C4000E2F7CE019C2F9095922391A392A1892B3C
:100C500082A34A175B0741F7DF91CF91089508956A
:100C60000C942F060E94D4070E940C06A1E3B1E069
:100C700041E050E08D91E82FE295EF70F0E021A186
:100C80008F70BA0102C0660F771F8A95E2F7CB0119
:100C9000962F9095922391A392A1892B82A371E024
:100CA000A833B70739F7209A559A289A5D9AEBE44A
:100CB000F1E0A3E4B1E011921D9281E0E335F80781
:100CC000D1F70C9404099F92AF92BF92CF92DF921A
:100CD000EF92FF920F931F93CF93DF9380910101C7
:100CE000811103C0C4E0D0E002C0C0E0D0E0AE019A
:100CF0004D5B5E4F7A0188E3C82E81E0D82E8A01D1
:100D0000AA24A394B12C25E0922EFCE3CF16F1E0A7
:100D1000DF0609F44AC0F60181916F01E82FE295E0
:100D2000EF70F0E021A18F70A50102C0440F551FA4
:100D30008A95E2F7CA01922F982B91A392A18095F0
:100D4000892382A350EA5A95F1F7E1E3F1E020E02C
:100D500040E050E03191A32FA295AF70B0E09096A3
:100D60008C9190E03F7002C0959587953A95E2F797
:100D700080FD07C0C501042E01C0880F0A94EAF760
:100D800002C080E090E0282B4F5F5F4F4730510555
:100D900009F7F8018081821719F0208390920001F1
:100DA0000E940C060F5F1F4FB0CF80910001882377
:100DB000B1F0815080930001811103C0C55BDE4F0B
:100DC00007C08FE99FE00197F1F700C0000007C05E
:100DD000F70191917F0199938F5F8430C9F781E08A
:100DE000DF91CF911F910F91FF90EF90DF90CF9007
:100DF000BF90AF909F900895CF93DF932091010112
:100E0000211103C0C0E0D0E002C0C4E0D0E00E94E5
:100E1000EF07009721F00297A1F4289812C0289AB2
:100E2000C55BDE4F80915E0190915F01A0916001F2
:100E3000B091610188839983AA83BB8380E090E0AD
:100E400002C081E090E0DF91CF9108950E94630697
:100E500080910101811103C0E4E0F0E002C0E0E014
:100E6000F0E0E55BFE4F20E030E080E0D901A25ADF
:100E7000BE4F4C919191491381E09C932F5F3F4F5E
:100E80002430310599F790915701890F80935701CC
:100E90000895CF93DF930E94B707882309F440C0D9
:100EA0000E94630680910101811103C0C4E0D0E07B
:100EB00002C0C0E0D0E0C55BDE4F44E050E0BE01C0
:100EC0008AE591E00E944424488159816A817B81AE
:100ED00040935A0150935B0160935C0170935D01F4
:100EE0000E94FC06892BC1F05D98809153018F5FB1
:100EF00080935301863070F180910101811103C00C
:100F0000E0E0F0E002C0E4E0F0E0E55BFE4F1082DC
:100F10001182128213821EC05D9A109253011AC070
:100F20000E94260780910101811103C080E090E0BA
:100F300002C084E090E0FC01E55BFE4F40915A0165
:100F400050915B0160915C0170915D014083518320
:100F5000628373830E940C0981E0DF91CF91089531
:100F6000E82FF0E0E55BFE4F8081089508958091C1
:100F70005401811112C08091D80080618093D80003
:100F80008AE18A95F1F700C08091D90080FD02C006
:100F900082E001C081E08093540181E0909154018E
:100FA000913009F080E008950E94B7078093010115
:100FB0000E94B707882319F00E94E30702C00E942D
:100FC000E9077894089563E070E082E091E00C9482
:100FD000A70463E070E082E091E00C94B0040F930A
:100FE0001F93CF93DF938C0190911B0180911A0185
:100FF000981761F082E090E00E948905EC01892B4E
:1010000039F480911A0180931B0102C0C0E0D0E046
:10101000012B49F48091550190915601892B19F4C7
:1010200080E090E002C081E090E00E948905892B79
:1010300049F48091570180931A0110925601109241
:10104000550106C081E090E09093560180935501D0
:10105000CE01DF91CF911F910F9108950E94220E32
:10106000809362010C94B5080C94150ECF93DF9316
:10107000EC010E947F18BE0180E090E0DF91CF91EB
:101080000C94C515CF93DF93D62FC42F0E9425163D
:10109000882351F08D2F0E942516882329F08C2F4C
:1010A000DF91CF910C9445168C2FDF91CF910C944A
:1010B0006616CF9388529D458730910508F051C040
:1010C000FB018A5A9F4FC281FC010C942A24CC2335
:1010D00009F448C081E090E005C0CC2309F442C087
:1010E00080E890E00E94360837C08CE031C0CC2305
:1010F00049F080916301811103C081E08093630115
:1011000089E010C01092630189E00E94661617C042
:10111000CC2381F080916301811103C081E0809331
:1011200063018AE00E94451645E06AE089E00E947A
:10113000420812C08AE00E9466161092630145E0E0
:101140006AE089E00E9442080DC08BE001C085E0A2
:10115000CC2321F00E944516C0E004C00E94661610
:1011600001C0C1E08C2FCF910895089581E00895CA
:101170000C94590808950C94BA081F93CF93DF93E9
:1011800000D000D01F92CDB7DEB749835A836B835E
:101190003091770189819A81311114C0662359F009
:1011A000222349F00E943A17182F682F89819A81CB
:1011B0000E94E31603C00E940E17182F69817A81DE
:1011C000812F04C00E943A1769817A810F900F9095
:1011D0000F900F900F90DF91CF911F910C946F099A
:1011E000FC01262F408151816281738184810C949E
:1011F000BD08CF93DF93EC0160E00E94F008BE01D0
:10120000DF91CF910C94BB080E946C18811102C031
:101210000E9411190C942E080C94300608950C9419
:101220000E0981E008950C941109CF93C82F0E94F4
:101230000F098C2F0E941309CF91089508950E94E1
:10124000E6110E941E092FEF84E39CE021508040AC
:101250009040E1F700C000000C94A01A0F931F9378
:10126000CF93DF93EC0161E00E94F0088C01BE0196
:101270000E94B808882349F1BE01C8010E94FB0BF7
:10128000882319F1BE01C8010E944D0C8823E9F0A2
:10129000BE01C8010E94780D8823B9F08A81882395
:1012A00069F001158CE5180731F00E3D1C4531F44D
:1012B0000E9411190AC00E941F0907C0CE01DF91C8
:1012C000CF911F910F910C94B60880E0DF91CF91E0
:1012D0001F910F91089580E090E00895089528E30C
:1012E000829FC0011124FC0127E0729FE00DF11DD7
:1012F0001124E60FF11DEE0FFF1FE65FFE4F8591F3
:1013000094910895880F991FFC01E654F94F859137
:1013100094910895CF93DF930E946F090E948C0AE5
:10132000EC01811521E59207B8F5811540E5940798
:1013300008F08BC08F3F910509F0E0F4803F9105E4
:1013400008F06EC0803E910580F4803C910508F065
:1013500069C08130910509F4DBC008F4D7C0049757
:10136000813A910508F4D4C0D1C0883E910508F4B3
:10137000CFC0CCC0C11580E3D80740F4C11520E22E
:10138000D20708F4C5C0CE019F704EC0C11540E41D
:10139000D40708F057C04CC0C11585E5D807A0F4A4
:1013A000C11524E5D20708F097C0C11543E5D4075D
:1013B00008F07CC0C11582E5D80708F061C0DC2FB9
:1013C000CC27C16FD06AA4C0C11529E5D207A0F40B
:1013D000C11548E5D40708F084C0C11586E5D807D3
:1013E00008F094C08C2F0E94200B8F71C82FD0E082
:1013F000DC2FCC27D0628CC0C1152AE5D20708F4B7
:1014000075C0CE0190568115904208F07FC08D2F97
:101410008F710E94200BDD27D0628F71D82B78C08E
:10142000D06576C0805C91090E948209EC0170C091
:10143000CE019927D3FF03C0EC01D86C69C0EC0141
:10144000D06C66C0DF70D06A63C074E096958795F3
:101450007A95E1F783709C2F937021E030E002C011
:10146000220F331F9A95E2F73C68382BCF70C69550
:10147000C69580E2C89FE0011124C22BD32B48C03F
:10148000CE018370992721E030E002C0220F331F84
:101490008A95E2F78C2F8695869540E2849FC0015D
:1014A0001124E901C82BD92BDC6832C0CE0183702E
:1014B000992721E030E002C0220F331F8A95E2F71E
:1014C0008C2F8695869540E2849FC0011124E90106
:1014D000C82BD92BDA681CC0DC2FCC27C46FD06A8C
:1014E00017C0DC2FCC27C06FD06A12C08C2F8F7032
:1014F0000E94200B94E0D695C7959A95E1F7CF709E
:10150000D0E0DC2FCC27D069C82B02C0C0E0D0E0EF
:10151000CE01DF91CF9108958238910569F1B0F441
:101520008133910509F46DC048F48932910509F4BD
:1015300063C08A32910509F469C008958533910525
:1015400009F455C089339105B9F00895833E91059A
:1015500069F138F4803E9105B1F0823E910509F1C0
:101560000895863E9105A9F1873E9105B9F1843E23
:10157000910509F064C023C02091350220FD4FC0C1
:1015800021FD4DC008958091350280FD44C08091B9
:10159000360280FF44C08091350284FD42C083EE54
:1015A0004DC08091350282FF38C0F5CF8091350261
:1015B00082FD33C08091360280FD31C0ECCF809136
:1015C000360281FF32C08091350284FD2AC087EE49
:1015D00035C08091350283FF26C0F5CF809135025A
:1015E00083FD21C08091360281FD1FC0ECCF809128
:1015F000350285FD1CC01DC08091350285FD19C0D6
:1016000016C08091350286FD16C017C08091350244
:1016100086FD13C010C089E311C082EE0FC080EEBA
:101620000DC080E00BC086EE09C084EE07C089E2E1
:1016300005C085E303C08AE201C081E390E008951C
:101640009091350292FF0DC0282F2871283019F48F
:10165000877F846006C0282F2471243011F48B7F8B
:10166000886093FF0DC0282F2871283119F4877ED8
:10167000846106C0282F2471243111F48B7E886187
:101680002091360220FF0DC0382F3871383019F400
:10169000877F816006C0382F3171313011F48E7F21
:1016A000886021FF0DC0282F2871283119F4877E0A
:1016B000816106C0282F2171213111F48E7E88614D
:1016C00094FD877E0895AF92BF92CF92DF92EF9202
:1016D000FF920F931F93CF93DF937C015B01C42F85
:1016E000D22FFC0182818823F9F0409366010E9489
:1016F0005F1A909365018093640180E28C0F8830BB
:1017000008F06EC0C77081E001C0880FCA95EAF783
:10171000DF91CF911F910F91FF90EF90DF90CF90CD
:10172000BF90AF900C947C0F80916601481335C038
:1017300080916401909165010E946B1A6C01B70160
:10174000C5010E948514C816D90638F510E21D0F90
:10175000CD17B9F080E28C0F883040F4C77081E07B
:1017600001C0880FCA95EAF70E94830F183058F518
:1017700081E09D2F977001C0880F9A95EAF70E942B
:101780007C0F802F0E94690F183050F5D77081E0D0
:1017900001C0880FDA95EAF70AC080E28C0F883022
:1017A000F8F4C77081E001C0880FCA95EAF7DF91AD
:1017B000CF911F910F91FF90EF90DF90CF90BF904E
:1017C000AF900C94830F802FDF91CF911F910F91D9
:1017D000FF90EF90DF90CF90BF90AF900C94690F87
:1017E000DF91CF911F910F91FF90EF90DF90CF90FD
:1017F000BF90AF9008950F939C01CB01233F4CE520
:10180000340731F188F4283DFCE53F07D9F0293D44
:101810004CE5340779F1273D3C45A9F506E221EE78
:1018200041EE67ED7CE52BC0253FFCE53F07E1F08D
:10183000A8F0263F3C4539F507E225EE46EE66EF77
:101840007CE51DC007E225EE45EE68ED7CE517C09E
:1018500006E221EE40EE63EF7CE511C007E225EEE3
:1018600044EE64EF7CE50BC006E221EE42EE65EF4C
:101870007CE505C008E221E045EE69ED7CE50E94CB
:10188000630B80E008C0FC018281882319F010926C
:10189000660101C081E00F910895CF93DF93EC01C1
:1018A000FB018281882309F41FC1C230FCE5DF07F8
:1018B00008F41BC1C6319CE5D90738F09E012A5FA8
:1018C0003C452930310508F010C10E9484189093DE
:1018D000360280933502C031ECE5DE0709F4C3C05F
:1018E00008F041C0C8308CE5D80709F49AC0F0F47C
:1018F000C430ECE5DE0709F487C068F4C2308CE53B
:10190000D80709F477C0C330DC4509F0E3C0809103
:101910003502826076C0C630ECE5DE0709F46EC0A1
:1019200008F07BC08091350288606BC0CC308CE5BC
:10193000D80709F485C068F4CA30ECE5DE0709F47D
:1019400074C008F079C00E94E61180913502806869
:1019500058C0CE308CE5D80709F476C008F07FC0B7
:10196000809135028BC0CB3FECE5DE0709F44FC018
:1019700018F5C3318CE5D80709F47DC078F4C1317E
:10198000ECE5DE0709F473C0C231DC4509F0A2C002
:101990000E94E611809135028F7733C0C5318CE506
:1019A000D80709F472C008F486C0CA3FDC4509F0C4
:1019B00091C0809136023EC0CF3FFCE5DF0709F4BD
:1019C0005FC058F4CD3F9CE5D90709F444C008F442
:1019D0003FC08091360282602DC0C130FDE5DF0737
:1019E00009F475C008F45DC0C230DD4509F072C06D
:1019F00080E06EC080913502816003C08091350225
:101A000080618093350266C08091350211C080915B
:101A100036028260809336025DC08091350280621A
:101A2000F0CF809135028064ECCF809135028860E0
:101A30008460E7CF8160EECF809135028E7FE1CF69
:101A4000809135028D7FDDCF80913502877FD9CFA0
:101A50008091360218C0809136028D7FDBCF809155
:101A600035028F7ECECF809135028F7DCACF809197
:101A700035028F7BC6CF80913502877F8B7FC1CFA8
:101A8000809136028D7F8E7FC5CF8091350282FB9B
:101A9000222720F991E0922790FB82F990FB83F9AD
:101AA000B0CF80913602982F909591708E7F892BC0
:101AB00090FB81F9AFCF0E94E6118091350287FB40
:101AC000222720F991E0922790FB87F99ACF81E0B5
:101AD0000E94131980913502909136020E94951848
:101AE0000E94E61180E001C081E0DF91CF9108956E
:101AF000CF93DF9386319C4541F5EB010E94BB17E4
:101B0000982F8A8120911C0130911D01882379F042
:101B10009A7A81E009F480E080936701911102C014
:101B200069E201C065E3C9010E94AE190AC0809153
:101B30006701811102C069E201C065E3C9010E9429
:101B4000B9190E94091880E001C081E0DF91CF91AE
:101B5000089590936D0180936C010895E0916C015C
:101B6000F0916D01309721F00190F081E02D099402
:101B700080E00895E0916C01F0916D01309799F04B
:101B800020913001222359F02091350227FF07C010
:101B9000DC012C9111962C93119725E02C93028057
:101BA000F381E02D09940895E0916C01F0916D01AD
:101BB000309739F022E0DC012C930480F581E02D90
:101BC0000994089520916A0130916B012817390713
:101BD00071F090936B0180936A01E0916C01F09138
:101BE0006D01309721F00680F781E02D099408956A
:101BF00020916801309169012817390771F090939D
:101C0000690180936801E0916C01F0916D0130975A
:101C100021F00084F185E02D0994089585B780684E
:101C200085BF85B7806885BF089508950C94150E0B
:101C30000C94160E0C94150E0E940E0E0E941A0E95
:101C40000C94180E81E008950C94220E0E94561AEE
:101C50000E9432060E94B11A0C943408AF92BF92CF
:101C6000CF92DF92EF92FF920F931F93CF93DF9368
:101C7000CDB7DEB72A970FB6F894DEBF0FBECDBF43
:101C80000E9449070E94240E811111C08FEF8983A1
:101C90008A831B820E945F1A8160782F9D838C83C8
:101CA00049815A816B818D810E94C60E40C08FE6AA
:101CB000A82E81E0B82E00E010E0C02E802F0E94F8
:101CC000B007E82EF501D1905F01D82631F40F5FFF
:101CD0001F4F0830110589F7D9CF8091000281FD8F
:101CE0000E94B60780E0FF24F3949D2D9F21D1F040
:101CF0008E83CF82EF2081E009F480E088870E9404
:101D00005F1A8160782F9A8789874E815F81688505
:101D10008A850E94C60EF801E159FE4F8081F8269F
:101D2000F08205C08F5FFF0C8730F9F6D0CF0E949C
:101D3000601C0E94AE0D90916E018917B1F00E9457
:101D4000AE0D80936E012A960FB6F894DEBF0FBEDB
:101D5000CDBFDF91CF911F910F91FF90EF90DF905A
:101D6000CF90BF90AF900C9415092A960FB6F894B7
:101D7000DEBF0FBECDBFDF91CF911F910F91FF90BE
:101D8000EF90DF90CF90BF90AF900895CF93DF9307
:101D9000CDB7DEB72B970FB6F894DEBF0FBECDBF21
:101DA0004F83588769877A878B87DE01119686E093
:101DB000FD0111928A95E9F785E0FE0137960190C1
:101DC0000D928A95E1F749815A816B817C818D81E1
:101DD0009E810E9488142B960FB6F894DEBF0FBE2A
:101DE000CDBFDF91CF910895FC01808191810E9448
:101DF0007C170895CF938823B1F1C82F8CEF8C0FF7
:101E0000813AD0F46C2F80911C0190911D010E94A9
:101E10002E19882349F06C2F80911C0190911D018F
:101E20000E94B9190E9409186C2F80911C01909191
:101E30001D010E94AE190CC080E28C0F883058F44E
:101E4000C77081E001C0880FCA95EAF70E94BE17EB
:101E5000CF910C940918C03F30F08C2F0E94551B75
:101E6000CF910C94421CCF910895882389F19CEF67
:101E7000980F913A40F4682F80911C0190911D01B8
:101E80000E94B9190DC090E2980F983058F48770ED
:101E900091E001C0990F8A95EAF7892F0E94C41733
:101EA0000C9409189BE5980F933020F480E090E0A3
:101EB0000C94E20D98E5980F973120F480E090E0C3
:101EC0000C94F80D803F20F00E94BD1B0C94421C26
:101ED0000895CF93C82F0E94FA0EC93349F42FEF0B
:101EE00087EE93E0215080409040E1F700C0000071
:101EF0008C2FCF910C94350F882321F00E94BE17B0
:101F00000C9409180895882321F00E94C4170C949A
:101F100009180895CF92DF92EF92FF920F931F93CB
:101F2000CF93DF937C01062FC72FFC0115811295FB
:101F30001F70D281D1110E94DB170E94B417882331
:101F400099F0DD2389F08C2F807F803421F080E2AE
:101F5000800F883048F082E00E9453180E94B41726
:101F600091E0D82ED92601C0D12CCC2EC2948FE07E
:101F7000C8228C2D90E0FC01E35AFF4F0C942A24D8
:101F80008C2F807FCF70882311F0C295C07FDD2316
:101F900099F0CC2309F46FC180E2800F883010F0F3
:101FA000011104C08C2F0E94BE1703C08C2F0E9409
:101FB000CE170E9409185FC1802F0E94350FCC23D5
:101FC00009F47EC180E2800F883010F0011104C056
:101FD0008C2F0E94C41703C08C2F0E94D4170E941C
:101FE00009186EC18C2F807FCF70803211F0C2959E
:101FF000C07F002319F00130C9F022C0DD2371F049
:10200000112341F0113031F40E94EE178C2B0E9405
:10201000F61756C10E94EE178C2B1DC0112319F024
:10202000113009F44DC10E94FF1725C0DD2321F0B6
:10203000163008F045C10EC0153008F041C11BC074
:10204000DD2361F0112331F0F701858180FF13C199
:102050008F7085838C2F0E947C0F32C1112359F021
:10206000093309F019C1FFEF27EE83E0F15020405A
:102070008040E1F70FC18C2F0E94830F21C1802F78
:10208000DD2319F00E94551B02C00E94BD1B0E9457
:10209000421C1EC18C2F837009F045C0D11114C1A0
:1020A000402F429546954770440F440F602F6F7044
:1020B000862F90E0A0E0B0E0042E04C0880F991FA6
:1020C000AA1FBB1F0A94D2F704FF10C00FE010E054
:1020D00020E030E004C0000F111F221F331F4A957B
:1020E000D2F7009510952095309503C000E010E0E0
:1020F0009801C695C695C370BC01CD01602B712BAC
:10210000822B932BC23049F058F4C13019F00E9451
:10211000D915DAC00E94C715D7C00E94EB15D4C0EC
:102120000E94C515D1C0DD2319F08C2F817001C02C
:102130008695882309F4C8C0402F4295469547707C
:10214000440F440F602F6F70862F90E0A0E0B0E046
:10215000042E04C0880F991FAA1FBB1F0A94D2F730
:1021600004FF10C00FE010E020E030E004C0000FDA
:10217000111F221F331F4A95D2F700951095209505
:10218000309503C000E010E09801C695C695C37075
:10219000BC01CD01602B712B822B932BC23049F0F7
:1021A00058F4C13019F00E94BE168EC00E94AC16C1
:1021B0008BC00E94D01688C00E94FF1585C0CF70CA
:1021C000DD2339F08C2F0E944516802F0E947C0F52
:1021D0007BC0802F0E94830F8C2F0E94661674C0D4
:1021E000023F01F128F4003F41F0013FA1F03FC060
:1021F000033FF9F0043F39F13AC0DD2341F01530D7
:1022000008F05EC08C2F8F710E948B1659C016305B
:1022100008F056C0F7CFDD2339F08C2F8F710E9464
:1022200045164EC0DD23C9F38C2F8F710E946616B0
:1022300047C0DD2329F08C2F8F710E94301640C0DB
:102240000E940B163DC0DD2349F0CF718C2F0E94F8
:10225000451663E08C2F0E943E1832C081E00E9438
:102260005318123068F182E00E94531829C0DD2310
:1022700031F0112391F2802F0E94FA0E21C0112318
:1022800099F2093349F49FEFE7EEF3E09150E04013
:10229000F040E1F700C00000802F0E94350F10C011
:1022A0004C2F4F70602FC7010E946B090E9436159A
:1022B0000FC04C2F4F70602FC7010E946E0908C0DD
:1022C00088EF8C0D843020F40E94AE0D0E94150919
:1022D000DD20C9F00E94B01780FD15C0F701128201
:1022E0000E94AA170E944516C7010E94A4110E94CD
:1022F000AA17DF91CF911F910F91FF90EF90DF9080
:10230000CF900C946616DF91CF911F910F91FF90A3
:10231000EF90DF90CF9008950F931F93CF93DF93AB
:10232000EC01688179818A810E9487178C010E9463
:10233000E2160E94B315B801CE010E948A0FDF9108
:10234000CF911F910F910895CF93DF93EC01988166
:1023500089812B813C81232B31F08F3F31F481E047
:102360009F3F19F403C081E001C080E080FD19C0E7
:10237000CE010E942E0981110CC00E94B41788233F
:1023800081F08A81882369F082E0DF91CF910C94FB
:102390005318CE010E948C11CE01DF91CF910C9485
:1023A000F908DF91CF9108950E94DB170E94EB1787
:1023B0000E9409180E94731D0C94421C80911C01FC
:1023C00090911D010E94C4190C94D4110E94CB1746
:1023D0000C94DE11E92FE295EF704E2F50E0FA01D8
:1023E0003297EE30F105B0F4E359FF4F0C942A24F4
:1023F000803F91F018F4883E68F40EC0843F51F499
:102400000BC0883E48F0813F29F406C093FB882723
:1024100080F9089580E0089581E008950E947C1776
:102420000E94EA110895CF93DF9300D000D01F924D
:10243000CDB7DEB70F900F900F900F900F90DF91F8
:10244000CF910895CF93DF9300D000D000D0CDB7C7
:10245000DEB726960FB6F894DEBF0FBECDBFDF9174
:10246000CF9108951F93CF93DF93C091780116E029
:1024700080917901C81799F0D0E01C9FF0011D9F51
:10248000F00D1124E658FE4F408151816281738125
:10249000848195810E9422122196C770E9CFDF9135
:1024A000CF911F9108954091AA015091AB01609185
:1024B000AC017091AD018091AE019091AF010C948F
:1024C00022120F931F93CF93DF938091AF018295D8
:1024D0008F7009F05DC08091AC01882309F458C069
:1024E00080917801109179016091AA017091AB01FE
:1024F000C091AD01D091AE0191E06F3F09F090E045
:10250000292F06E0811709F443C0209721F07F3F6F
:1025100021F030E003C031E001C0322F90E030FD07
:1025200034C0089FF001099FF00D1124DF01A65867
:10253000BE4F11963C911197371327C03C9136132B
:1025400024C012963C91129731111FC013964D91E1
:102550005C9114974C1B5D0B44365105B0F480918F
:10256000AF018F7080618093AF01E158FE4F808191
:102570008F70806180838AEA91E00E94A411DF91CC
:10258000CF911F910F910C94321201968770BACFA0
:10259000DF91CF911F910F9108959F92AF92BF92BB
:1025A000CF92DF92EF92FF920F931F93CF93DF931F
:1025B000CDB7DEB761970FB6F894DEBF0FBECDBFC3
:1025C0008C0185E0F801DE011D9601900D928A953F
:1025D000E1F7F80140815181E2809091AA01609178
:1025E000AB012091AD013091AE012115310531F0E3
:1025F0006F3F31F481E09F3F19F403C081E001C0D7
:1026000080E0F82FF1709F2E80FD2CC1F801A3808F
:10261000B4808AEAC82E81E0D82EF090AC01F50192
:10262000E21BF30BFF2009F4EBC08091AF01E4360D
:10263000F10508F0A7C0282F207F09F052C05613DB
:1026400013C0491311C0FE2CE1100EC08F708061C1
:102650008093AF010E945312C6010E94A411809181
:10266000AF01F80185833EC1AB2831F05F3F31F403
:1026700081E04F3F19F403C081E001C080E080FD9C
:1026800003C081E08E2502C080E090E0F82FF17059
:10269000FF2E80FF1CC0809178012091790136E0E7
:1026A000821709F4FDC090E0389FF001399FF00DCA
:1026B0001124E658FE4F6181561306C0608146130F
:1026C00003C06281E61203C001968770E9CFFE2C39
:1026D000EE2009F407C18091AF0181608093AF01C2
:1026E00066C0561312C0491310C0E1100EC0F801A5
:1026F0008583C8010E94A41186E0F801AAEAB1E02E
:1027000001900D928A95E1F7C8C04D875E878D854F
:102710009E850E940E12882379F1EE2069F12091A6
:10272000AF01822F82958F7090E0029774F08091B4
:10273000AA019091AB0198878F831986BB86AA86E0
:102740002C87CE0107960E94A41186E0F801AAEA20
:10275000B1E001900D928A95E1F70E9461120E940A
:1027600053120DC0561729F14D875E878D859E85C2
:102770000E940E1281112CC0C8010E94A411FF24D6
:10278000F394B0C0282F207F69F77A2DB98AA88AE0
:102790006E2D89890E9413128AEA91E00E94A41189
:1027A00086E0F60111928A95E9F70E945312F12C06
:1027B00099C04913D9CFE110D7CFF8018583C8015B
:1027C0000E94A41186E0F60111928A95E9F78AC069
:1027D000EE2091F22091AF01822F82958F7090E0D0
:1027E00002970CF4B2CF8091AA019091AB019A8329
:1027F00089831B82BD82AC822E83CE010196A3CF3A
:10280000E436F10510F5FE2CEE2009F4B5CF561391
:102810000BC0491309C086E0F801AAEAB1E00190B3
:102820000D928A95E1F75EC04D875E878D859E8506
:102830000E940E12811189CF8091AF018160809337
:10284000AF01C8010E94A4114DC07A2DB98AA88A8F
:102850006E2D89890E94131286E0F60111928A95E5
:10286000E9F71BC0EE2009F487CF4D875E878D8581
:102870009E850E940E12F82E882309F47DCF86E0F3
:10288000F801AAEAB1E001900D928A95E1F78AEA8F
:1028900091E00E94F40E0E9461120E94531222C025
:1028A0004D875E878D859E850E947C17292F2295F6
:1028B0002F70223028F49F7039F0811105C00BC0B1
:1028C000243028F49F7049F4805E883020F0C801DD
:1028D0000E94A4119F2CF92C05C0F8019581907FCE
:1028E00099F7F9CF8F2D61960FB6F894DEBF0FBE22
:1028F000CDBFDF91CF911F910F91FF90EF90DF90AF
:10290000CF90BF90AF909F90089584E690E0089597
:102910001F93CF93DF93CDB7DEB72C970FB6F89404
:10292000DEBF0FBECDBF4F83588769877A878B87FD
:102930009C87CE0107960E94CD128823D1F09F81FB
:1029400088852A853B85232B31F08F3F31F481E048
:102950009F3F19F403C081E001C080E080FD47C0C3
:102960004F81588569857A858B859C850E942212C6
:102970003EC086E0FE013796DE01119601900D9271
:102980008A95E1F7FF81E8856A857B856115710588
:1029900031F0EF3F31F481E0FF3F19F403C081E0F3
:1029A00001C080E080FD23C02091790130E0C901A1
:1029B0000196877099274091780150E08417950718
:1029C000F1F1F983EA837D836C8396E0929FD001D5
:1029D000939FB00D1124A658BE4FFE013196019071
:1029E0000D929A95E1F7809379010E94321216E0D8
:1029F0008091780190917901891771F1189FC00138
:102A0000112486589E4F0E94CD12882329F1E0910F
:102A100078011E9FF0011124E658FE4F408151813C
:102A200062817381848195810E9422128091780154
:102A300090E001968770992780937801D9CF0E9402
:102A4000E6111092790110927801EAEAF1E086E04D
:102A5000DF011D928A95E9F72C960FB6F894DEBF38
:102A60000FBECDBFDF91CF911F910895EF92FF92DE
:102A70000F931F93CF93DF938C01892B09F46CC0C4
:102A8000F12CEE24E394E8012196F8018491843737
:102A900040F4843008F051C0813081F0823019F167
:102AA0005BC0853709F444C0A8F19CE7980F9037C4
:102AB00008F052C08F770E94350F41C00E5F1F4F44
:102AC000FE01849190E2980F983050F48770FE2DAB
:102AD00001C0FF0F8A95EAF78F2F0E94DE1714C0FE
:102AE0000E94FA0E2DC00E5F1F4FFE01849190E2EE
:102AF000980F983060F48770FE2D01C0FF0F8A9503
:102B0000EAF78F2F0E94E4170E94091819C00E944B
:102B1000350F16C00E5F1F4FFE01C491CC2381F00C
:102B20008FE99FE00197F1F700C00000C150F6CF98
:102B30000E5F1F4FFE01F49003C00E94FA0E8E013B
:102B40008F2D882309F49FCFEFE9FFE03197F1F74C
:102B500000C000008150F5CFDF91CF911F910F9100
:102B6000FF90EF900895089508950C94B4150C9477
:102B7000B5150E94B7156093D7017093D801809363
:102B8000D9019093DA010C94D4110C94B9150F93D8
:102B90001F930091D7011091D8012091D901309154
:102BA000DA01602B712B822B932B1F910F910C94C8
:102BB000B9150F931F930091D7011091D80120915F
:102BC000D9013091DA0160237123822393231F916D
:102BD0000F910C94B9150F931F930091D701109189
:102BE000D8012091D9013091DA016027712782271D
:102BF00093271F910F910C94B9150C94B4150E9452
:102C0000FD156093D3017093D4018093D501909307
:102C1000D6010C94D41160E070E0CB010C94FF1548
:102C2000611571058105910529F481E0442361F066
:102C300080E00895DC01CB0104C0B695A795979577
:102C400087954A95D2F781700895482F6091D301F6
:102C50007091D4018091D5019091D6010C941016F9
:102C60000F931F9341E050E060E070E08A019B0108
:102C700004C0000F111F221F331F8A95D2F7C9010C
:102C8000B8011F910F910C94FF150F931F9341E012
:102C900050E060E070E004C0440F551F661F771FCE
:102CA0008A95D2F78091D3019091D401A091D5015A
:102CB000B091D6018A019B01082B192B2A2B3B2BA3
:102CC000C901B8011F910F910C94FF150F931F9329
:102CD00041E050E060E070E004C0440F551F661F03
:102CE000771F8A95D2F740955095609570958091A1
:102CF000D3019091D401A091D501B091D6018A0160
:102D00009B01082319232A233B23C901B8011F91E2
:102D10000F910C94FF150F931F9341E050E060E07A
:102D200070E004C0440F551F661F771F8A95D2F7C5
:102D30008091D3019091D401A091D501B091D60199
:102D40008A019B01082719272A273B27C901B801B7
:102D50001F910F910C94FF150F931F930091D301B6
:102D60001091D4012091D5013091D601602B712BA7
:102D7000822B932B1F910F910C94FF150F931F9390
:102D80000091D3011091D4012091D5013091D60149
:102D900060237123822393231F910F910C94FF15BD
:102DA0000F931F930091D3011091D4012091D5016D
:102DB0003091D60160277127822793271F910F91A9
:102DC0000C94FF15089527E0929F800D1124E82FA1
:102DD000E695E695E695877051E001C0550F8A9516
:102DE000EAF785E0E89FF0011124E055FE4F20E06E
:102DF00030E070E04081CB01022E02C096958795AD
:102E00000A94E2F781708195842785238427819332
:102E10002F5F3F4F2530310569F7089527E0929FD6
:102E2000800D1124682F669566956695982F97708A
:102E300085E0689FB001112440E050E080E0FB0194
:102E4000E40FF51FE055FE4F208130E0092E02C04F
:102E5000369527950A94E2F721703327042E01C096
:102E6000220F0A94EAF7822B4F5F5F4F45305105DE
:102E700031F70895BF92CF92DF92EF92FF920F93B6
:102E80001F93CF93DF938C01C090D301D090D401D6
:102E9000E090D501F090D6018091D7019091D801B2
:102EA000A091D901B091DA01C82AD92AEA2AFB2ACD
:102EB000CFE1D0E0D701C6010C2E04C0B695A7958E
:102EC000979587950A94D2F780FD04C0219790F7D3
:102ED000B12C07C0BC2EB8018C2F0E948A09019723
:102EE000A9F38B2DDF91CF911F910F91FF90EF9060
:102EF000DF90CF90BF900895CF93DF93EC010E94B5
:102F00003A17BE010E948A09DF91CF9108951F935D
:102F1000CF93DF93EB0190917701992321F0CB01BF
:102F20000E947C1713C0882349F0CB010E943A17F6
:102F3000182F682FCE010E94E31604C0CB010E9417
:102F40000E17182FBE01812F0E948A09DF91CF91A1
:102F50001F9108958091DB0185958595859508954C
:102F60008091DB01877008959091DB01977081E07B
:102F700009F480E008958091FF0108959091FF0188
:102F8000892B8093FF01089580959091FF018923FB
:102F90008093FF0108951092FF0108959091FE0122
:102FA000892B8093FE01089580959091FE018923DD
:102FB0008093FE0108951092FE0108959091FD0105
:102FC000892B8093FD01089580959091FD018923BF
:102FD0008093FD0108951092FD0108958091DC0118
:102FE000089508950C94F1170C94F2179091DC0158
:102FF000981721F08093DC010C94F41708958091C8
:10300000DC01882329F01092DC0180E00C94F41795
:103010000895E0911C01F0911D018091FF018083D2
:10302000E0911C01F0911D0190818091FE01892B9E
:103030008083E0911C01F0911D0190818091FD0140
:10304000892B80838091DC01882381F0E0911C0131
:10305000F0911D019081892B808380911C019091BA
:103060001D010E94181981110E94FF1780911C01F7
:1030700090911D010C94BA0D0C94F11798E0899F62
:1030800090011124262B2093DB010E94451680918C
:10309000DB018595859585950C943C181092DB0194
:1030A00080E00C943C182091DB0180958223809372
:1030B000DB01982F977079F430E0482F082E000C30
:1030C000550B2417350739F08595859585950E9410
:1030D00066160C944E18089580E090E00E945924E2
:1030E00021E08C3E9E4F09F020E0822F089582E07F
:1030F00090E00C94512483E090E00C945124682FCC
:1031000083E090E00C945F24CF9384E090E00E94F1
:103110005124C82F81E290E00E9451242C2F30E0EE
:10312000A901582BCA01CF910895CF93C92F682FB9
:1031300084E090E00E945F246C2F81E290E0CF91C8
:103140000C945F24AB01BC018FE090E00C947124DF
:10315000AB01BC0183E190E00C94712460E070E06D
:10316000CB010C94A81860E070E0CB010E94A2187B
:103170000C94AE186CEE7EEF80E090E00E947D240F
:1031800060E082E090E00E945F2460E083E090E0F5
:103190000E945F241092D7011092D8011092D90199
:1031A0001092DA0160E084E090E00E945F2460E029
:1031B00081E290E00E945F2460E085E090E00E9460
:1031C0005F2460E086E090E00E945F246FEF87E07C
:1031D00090E00E945F2440E050E0BA0188E090E077
:1031E0000E94712460E08DE090E00E945F2440E046
:1031F00050E0BA0188E190E00E94712460E087E12C
:1032000090E00E945F2440E050E0BA018CE190E041
:103210000E94712460E080E290E00E945F240C94A0
:10322000B3180C94BA18682F8EE090E00C945F24C9
:10323000FC01329680913001882331F08091350273
:1032400087FF02C09EE101C096E080E0915028F027
:1032500021912223D9F38F5FF9CF0895662351F18D
:10326000209130012223E9F02091350227FF19C077
:10327000462F4695469546954E31E0F4677021E01D
:1032800030E002C0220F331F6A95E2F7FC01E40F21
:10329000F11D828190E02823392381E0232B69F4FA
:1032A00009C0FC01329608962191621729F0E817AF
:1032B000F907D1F780E0089581E008959C01FC01B1
:1032C00032969FEF80E04191461789F09F3F19F4B5
:1032D000411101C0982F8F5F8630A9F79F3F39F0C9
:1032E000F901E90FF11D97FDFA956283089508959C
:1032F0009C012A5F3F4FFC014281461301C01282AC
:10330000019682179307B9F70895262F26952695DB
:1033100026952E3168F4FC01E20FF11D677021E063
:1033200030E001C0220F6A95EAF78281282B2283C0
:103330000895262F2695269526952E3170F4FC01AA
:10334000E20FF11D677021E030E001C0220F6A95A5
:10335000EAF7209582812823228308952091300165
:10336000222329F02091350227FD0C9485190C9415
:103370005E1920913001222329F02091350227FD8A
:103380000C9499190C94781920913001FC01329613
:10339000222331F08091350287FF02C08EE101C007
:1033A00086E0DF011D928A95E9F7089508950C944F
:1033B000D6190C94D619CF930E94D9190E944907A7
:1033C0000E94D719C0E08C2F0E94B007811104C061
:1033D000CF5FC830C1F701C081E0CF9108950C9450
:1033E000D6190C94EF190E94F11980913B02843098
:1033F00049F11092010220E488E190E00FB6F894C0
:10340000A895809360000FBE2093600080E00E942A
:1034100015090E94F11983B7817F846083BF83B748
:10342000816083BF7894889583B78E7F83BF0FB602
:10343000F894A89580916000886180936000109254
:1034400060000FBE08950C94D6190E94E6110E94E8
:10345000AE0D0E9415090C94231A1F920F920FB6FD
:103460000F9211248F939F93AF93BF93809101028A
:10347000811113C08091310290913202A0913302E8
:10348000B09134024196A11DB11D809331029093F9
:103490003202A0933302B0933402BF91AF919F9157
:1034A0008F910F900FBE0F901F90189582E084BDF2
:1034B00093E095BD9AEF97BD80936E0008952FB766
:1034C000F8948091310290913202A0913302B09130
:1034D00034022FBF08959C014FB7F89480913102B8
:1034E00090913202A0913302B09134024FBF821BFF
:1034F000930B089578941F920F920FB60F92112498
:103500008F939F93AF93BF9380913102909132023A
:10351000A0913302B09134020196A11DB11D809398
:10352000310290933202A0933302B0933402BF91E0
:10353000AF919F918F910F900FBE0F901F90189594
:1035400087E797E790930108809300089AE088E165
:103550000FB6F894A895809360000FBE909360001A
:10356000FFCF0E946C18811102C00E9411190E94A5
:103570007718809300020E948418909336028093FB
:1035800035020E947B18682F70E080E090E00E9476
:10359000C5156091D3017091D4018091D5019091AE
:1035A000D6010C94FD158091080280FF0BC060913C
:1035B000230185E0689FB001112475956795759585
:1035C00067952BC081FF09C06091230185E0689F4A
:1035D000B00111247595679520C082FF07C06091E6
:1035E000230185E0689FB001112417C09091070264
:1035F0009923D1F060912201961788F72091230139
:1036000085E0289F90011124929FA001939F500D67
:10361000112470E0CA010E9416246038710540F43C
:103620006115710519F406C065E070E0862F0895F4
:103630008FE7089581E008958091080280FF08C017
:1036400060911F0170E0759567957595679521C02C
:1036500081FF06C060911F0170E07595679519C0E4
:1036600082FF04C060911F0170E010C090910602BB
:10367000992399F060911E019617A0F780911F0180
:10368000899FC001112470E00E94162460387105E2
:1036900040F46115710519F406C061E070E0862FF1
:1036A00008958FE7089581E00895803F21F40E94F6
:1036B000D31A819504C0813F29F40E94D31A8093C4
:1036C0000C020895823F21F40E94D31A819504C010
:1036D000833F29F40E94D31A80930B020895893FF7
:1036E00019F40E941C1B05C08A3F31F40E941C1B68
:1036F000819580930D0208958B3F21F40E941C1B3D
:10370000819504C08C3F29F40E941C1B80930E02FB
:103710000895843F21F480910A02816017C0853F9B
:1037200021F480910A02826011C0863F21F48091C9
:103730000A0284600BC0873F21F480910A028860EE
:1037400005C0883F31F480910A02806180930A02AB
:1037500008958D3F21F48091080281600BC08E3F57
:1037600021F480910802826005C08F3F29F4809186
:1037700008028460809308020895803F39F48091A4
:103780000C0287FF6AC010920C0267C0813F29F4C7
:1037900080910C021816BCF360C090910B02823F1E
:1037A00029F497FF5AC010920B0257C0833F19F4B7
:1037B0001916CCF352C090910D02893F31F41916BD
:1037C0000CF04BC010920D0248C08A3F19F497FFCD
:1037D00044C0F8CF8B3F39F480910E0287FF3DC083
:1037E00010920E023AC08C3F29F480910E021816F6
:1037F000BCF333C0843F21F480910A028E7F17C04E
:10380000853F21F480910A028D7F11C0863F21F40B
:1038100080910A028B7F0BC0873F21F480910A02BE
:10382000877F05C0883F31F480910A028F7E8093A4
:103830000A0213C08D3F21F4809108028E7F0BC0D5
:103840008E3F21F4809108028D7F05C08F3F29F4BF
:10385000809108028B7F8093080280910B02811176
:1038600006C080910C02811102C010920702809163
:103870000D02811106C080910E02811102C01092CA
:10388000060208950E945F1A20910B02211104C0C4
:1038900020910C02222321F09093050280930402D0
:1038A00020910D02211104C020910E02222321F04B
:1038B000909303028093020289E092E00C94D40D6D
:1038C000EF92FF920F931F93CF93DF9300D000D01E
:1038D00000D0CDB7DEB786E0E9E0F2E0DE01119678
:1038E00001900D928A95E1F7E0900B02F0900C02A6
:1038F00000910D0210910E0210920B0210920C0218
:1039000010920D0210920E02E11003C0FF2009F484
:103910005DC080910402909105020E946B1AAC0177
:1039200090910702992339F02091240130E0241767
:10393000350758F04BC0209125018AE0289F90015F
:1039400011242417350718F041C09F3F19F09F5FDD
:1039500090930702EE2061F00E94D31A1E1414F017
:103960009FEF01C091E0989F902D112490930B023E
:10397000FF2061F00E94D31A1F1414F09FEF01C0C2
:1039800091E0989F902D112490930C0230910B029E
:103990003323E1F020910C022223C1F045EB3403E4
:1039A000C0011124992319F090930B0203C081E008
:1039B00080930B0235EB2303C0011124992319F0E6
:1039C00090930C0203C081E080930C02011103C0AC
:1039D000112309F45DC080910202909103020E94BC
:1039E0006B1AAC0190910602992339F020912001C5
:1039F00030E02417350758F04BC0209121018AE0B0
:103A0000289F900111242417350718F041C09F3FCB
:103A100019F09F5F90930602002361F00E941C1B27
:103A2000101614F09FEF01C091E0989F902D112483
:103A300090930D02112361F00E941C1B111614F0CB
:103A40009FEF01C091E0989F902D112490930E025A
:103A500030910D023323E1F020910E022223C1F0B8
:103A600045EB3403C0011124992319F090930D0202
:103A700003C081E080930D0235EB2303C0011124C4
:103A8000992319F090930E0203C081E080930E02F7
:103A900080910B0281110BC080910C02811107C033
:103AA00080910D02811103C080910E0281110E944C
:103AB000421CEB82FC820D831E8386E0FE01319660
:103AC000A9E0B2E001900D928A95E1F726960FB633
:103AD000F894DEBF0FBECDBFDF91CF911F910F9144
:103AE000FF90EF900895E9E0F2E086E0DF011D929B
:103AF0008A95E9F7109207021092060210920802C6
:103B0000089580912F020895089522E02093E900FE
:103B10002FEF3091E800215035FD06C035ED3A9584
:103B2000F1F700002111F5CF2091E80025FF0BC02F
:103B300040E050E066E070E00E94781F8091E8006D
:103B40008E778093E8000895CF93DF932091300122
:103B5000222339F02091350227FF03C060E222E0E2
:103B600002C068E021E02093E9002FEF3091E800E7
:103B7000215035FD06C035ED3A95F1F700002111D1
:103B8000F5CF2091E80025FF1DC0EC0180913001A8
:103B9000811105C040E050E068E070E003C070E0D3
:103BA00040E050E0CE010E94781F8091E8008E77BF
:103BB0008093E80080E2FE01AFE0B2E001900D9258
:103BC0008A95E1F7DF91CF910895089580913A02A7
:103BD000811109C00E9409210E9466218091E200A2
:103BE00084608093E200089510923A020895089547
:103BF00008950C94251A42E061EC81E00E94822035
:103C000042E261EC82E00C94822080913D0283309C
:103C100009F460C030F4813071F0823009F499C049
:103C200008958A3009F485C08B3009F46BC089305F
:103C300009F0A7C020C080913C02813A09F0A1C0E0
:103C40008091E800877F8093E80080914002909106
:103C50004102892B21F460E28FE092E003C060E032
:103C600080E090E070E00E94C31F8091E8008B77B5
:103C70008093E800089580913C02813209F081C070
:103C80008091400290914102029708F07AC08091A1
:103C9000E800877F8093E8008091E80082FD05C0FE
:103CA00080913B028111F8CF6CC02091F30080918C
:103CB000F20090E0922B029729F48091F1008B7F23
:103CC000813021F48091F10080932F028091E800EF
:103CD0008B7753C080913C02813A09F052C08091A9
:103CE000400290914102892B09F04BC08091E8007D
:103CF000877F8093E8008091E80080FFFCCF80916F
:103D0000300136C080913C028132D9F58091400269
:103D100090914102892BA9F58091E800877F8093DB
:103D2000E8000E94B72080913E02809330010C94FD
:103D3000E61180913C02813221F58091E800877F75
:103D40008093E8000E94B72080913F028093300268
:103D5000089580913C02813AA1F48091E800877F28
:103D60008093E8008091E80080FFFCCF80913002D2
:103D70008093F1008091E8008E778093E8000C94A6
:103D8000B720089584B7877F84BF0FB6F894A895AD
:103D900080916000886180936000109260000FBE87
:103DA00090E080E80FB6F8948093610090936100F2
:103DB0000FBE0E941C0E0E9409210E946621809164
:103DC000E20084608093E20078940E94FB230E94CA
:103DD000260E86E291E00E94A90D80913B0285307B
:103DE00069F40E94F319809139028823B1F30E948B
:103DF000DB19882391F30E94621FEFCF0E942E0EE1
:103E0000ECCF0C94031F292F332723303105C9F041
:103E100060F42130310581F02230310509F04AC0CB
:103E20008BE390E024EE36E049C02132310511F1F8
:103E30002232310579F13EC082E190E02FE137E096
:103E40003DC099278130910561F040F082309105A5
:103E500059F0039779F5EAEBF6E008C0E0EEF6E0FA
:103E600005C0E4EDF6E002C0E0ECF6E0849190E0FD
:103E70009F0124C06115710541F061307105D1F4D5
:103E800089E090E02FE037E019C089E090E026EF6C
:103E900036E014C06115710541F06130710551F4CF
:103EA0008AE890E021E337E009C080E490E02BEB62
:103EB00037E004C080E090E020E030E0FA01318398
:103EC0002083089580E189BD82E189BD09B400FEA7
:103ED000FDCF8091D8008F7D8093D8008091E00045
:103EE00082608093E0008091E00081FDFCCF089526
:103EF000CF92DF92EF92FF920F931F93CF93DF93B6
:103F0000EC018B017A010E94D620811133C0E114AB
:103F1000F10439F0F70180819181081B190BC80F5A
:103F2000D91FC12CD12C0115110519F18091E80080
:103F300085FD16C08091E8008E778093E800E1143B
:103F4000F10449F0F70180819181C80ED91ED18218
:103F5000C08285E00FC00E94D620882321F30AC0CA
:103F600089918093F10001501109FFEFCF1ADF0A08
:103F7000DACF80E0DF91CF911F910F91FF90EF900A
:103F8000DF90CF900895209142023091430226178E
:103F9000370748F06115710539F42091E8002E7754
:103FA0002093E80001C0B901FC0120E06115710512
:103FB00079F180913B028823F1F18530F1F1809114
:103FC000E80083FD3CC08091E80082FD2EC0809116
:103FD000E80080FFEBCF2091F3008091F20090E0A9
:103FE000922B6115710551F08830910538F42191BB
:103FF0002093F100615071090196F3CF21E00897F9
:1040000009F020E08091E8008E778093E800CECF21
:104010002111CFCF0AC080913B02882361F0853007
:1040200061F08091E80083FD0AC08091E80082FF82
:10403000F2CF80E0089582E0089583E0089581E062
:10404000089520914202309143022617370748F025
:104050006115710539F42091E8002E772093E8006E
:1040600001C0B901FC0120E06115710591F1809159
:104070003B02882309F440C0853009F43FC0809199
:10408000E80083FD3DC08091E80082FD2FC0809153
:10409000E80080FFE9CF2091F3008091F20090E0EA
:1040A000922B6115710559F08830910540F42491E7
:1040B0002093F1003196615071090196F2CF21E011
:1040C000089709F020E08091E8008E778093E8005F
:1040D000CBCF2111CCCF0AC080913B02882361F065
:1040E000853061F08091E80083FD0AC08091E8008E
:1040F00082FFF2CF80E0089582E0089583E0089582
:1041000081E00895982F973068F59093E90098170B
:1041100039F07091EC002091ED005091F00003C057
:10412000242F762F50E021FD02C09F5FECCF30910D
:10413000EB003E7F3093EB003091ED003D7F3093FC
:10414000ED003091EB0031603093EB007093EC00A8
:104150002093ED005093F0002091EE0027FDE5CF75
:1041600080E008958F708093E90081E00895809148
:104170003C0287FF11C08091E80082FD05C080915C
:104180003B028111F8CF11C08091E8008B770BC002
:1041900080913B02882349F08091E80080FFF8CFAE
:1041A0008091E8008E778093E80008952091E400E4
:1041B0003091E50095E64091EC00842F817040FF3E
:1041C00023C08091E80080FD1DC080913B028823C0
:1041D00099F0853099F08091EB0085FD11C04091F8
:1041E000E4005091E5002417350729F3915011F0B0
:1041F0009A01E1CF84E0089582E0089583E0089574
:1042000081E0089580E008954091E80042FFDDCF0D
:1042100008950E9477210E947F21E0EEF0E08081E6
:1042200081608083E8EDF0E080818F77808319BC26
:10423000A7EDB0E08C918E7F8C9380818F7E808300
:1042400010923A0208950F931F93CF93DF930E9429
:1042500077210E947F21C8EDD0E088818F77888305
:1042600088818068888388818F7D888319BC1092BB
:104270003B0210923702109239021092380200EE7F
:1042800010E0F80180818B7F808388818160888342
:1042900042E060E080E00E948220E1EEF0E0808178
:1042A0008E7F8083E2EEF0E0808181608083808178
:1042B00088608083F80180818E7F8083888180611F
:1042C0008883DF91CF911F910F910895E8EDF0E081
:1042D00080818F7E8083E7EDF0E080818160808344
:1042E00084E082BF81E080933A020C942321E8EDC0
:1042F000F0E080818E7F80831092E200089510921A
:10430000DA001092E10008951F920F920FB60F92FB
:1043100011242F933F934F935F936F937F938F93CA
:104320009F93AF93BF93EF93FF938091E10082FF40
:104330000BC08091E20082FF07C08091E1008B7F7B
:104340008093E1000E94FA238091DA0080FF1FC071
:104350008091D80080FF1BC08091DA008E7F80930F
:10436000DA008091D90080FF0DC080E189BD82E133
:1043700089BD09B400FEFDCF81E080933B020E941D
:10438000E61D05C019BC10923B020E94F41D8091ED
:10439000E10080FF19C08091E20080FF15C080918C
:1043A000E2008E7F8093E2008091E2008061809342
:1043B000E2008091D80080628093D80019BC85E02B
:1043C00080933B020E94F81D8091E10084FF30C081
:1043D0008091E20084FF2CC080E189BD82E189BD2B
:1043E00009B400FEFDCF8091D8008F7D8093D80066
:1043F0008091E1008F7E8093E1008091E2008F7ECA
:104400008093E2008091E20081608093E2008091DD
:104410003702882311F084E007C08091E30087FD14
:1044200002C081E001C083E080933B020E94F91D3D
:104430008091E10083FF29C08091E20083FF25C0C5
:104440008091E100877F8093E10082E080933B02CE
:10445000109237028091E1008E7F8093E10080917D
:10446000E2008E7F8093E2008091E2008061809381
:10447000E20042E060E080E00E9482208091F00053
:1044800088608093F0000E94F71DFF91EF91BF912B
:10449000AF919F918F917F916F915F914F913F91DC
:1044A0002F910F900FBE0F901F9018951F920F9293
:1044B0000FB60F9211242F933F934F935F936F93F7
:1044C0007F938F939F93AF93BF93CF93DF93EF939C
:1044D000FF93C091E900CF708091EC00D82FD1708C
:1044E00080FDD0E81092E9008091F000877F8093F2
:1044F000F00078940E949A221092E9008091F000D6
:1045000088608093F000CD2BCF70C093E900FF91BD
:10451000EF91DF91CF91BF91AF919F918F917F915B
:104520006F915F914F913F912F910F900FBE0F9020
:104530001F9018951F93CF93DF93CDB7DEB7AA973F
:104540000FB6F894DEBF0FBECDBFECE3F2E0809172
:10455000F100819322E0E434F207C9F70E94051EBE
:104560008091E80083FF2EC180913C0290913D0232
:10457000492F50E04A30510508F024C1FA01E558AE
:10458000FF4F0C942A24803821F0823809F01AC198
:1045900008C08091380290913902992389F0826095
:1045A0000FC0809140028F70873008F00BC180935C
:1045B000E9008091EB0085FB882780F91092E900E3
:1045C0009091E800977F9093E8008093F10010921B
:1045D000F100D1C0282F2D7F09F0F4C0882319F0F5
:1045E000823061F0EFC080913E02813009F0EAC074
:1045F000933009F080E0809339022EC080913E0212
:1046000081112AC0809140028F702FEF280F263031
:1046100008F0D8C08093E9002091EB0020FF1CC077
:10462000933021F48091EB00806214C09091EB00F4
:1046300090619093EB0021E030E0A90102C0440FAB
:10464000551F8A95E2F74093EA001092EA008091A4
:10465000EB0088608093EB001092E9008091E80005
:10466000877F8093E8000E94B720ACC08111AAC068
:1046700010913E021F778091E3008078812B809318
:10468000E3008091E800877F8093E8000E94B720D4
:104690008091E80080FFFCCF8091E30080688093E8
:1046A000E300111102C082E001C083E080933B026D
:1046B00089C08058823008F085C080913E02909178
:1046C0003F028C3D53E0950779F583E08A838AE2C7
:1046D00089834FB7F894DE01139620E03EE051E263
:1046E000E32FF0E050935700E49120FF03C0E295E0
:1046F000EF703F5FEF708E2F90E0EA3010F0C796BA
:1047000001C0C0968D939D932F5F243149F74FBF11
:104710008091E800877F8093E8006AE270E0CE0134
:1047200001960E94C31F16C0609140027091410221
:10473000AE014F5F5F4F0E94011FBC01892B09F43E
:1047400041C09091E800977F9093E80089819A8119
:104750000E9421208091E8008B778093E80032C08E
:10476000803881F58091E800877F8093E800809110
:1047700037028093F1008091E8008E7772CF81112B
:1047800021C080913E0290913F0299270297D4F474
:104790008091E800877F8093E80080913E028093BB
:1047A00037020E94B72080913702811106C08091A4
:1047B000E30087FD02C081E001C084E080933B02FA
:1047C0000E94FB1D8091E80083FF0AC08091E800F1
:1047D000877F8093E8008091EB0080628093EB00FC
:1047E000AA960FB6F894DEBF0FBECDBFDF91CF9172
:1047F0001F9108950895CF9380913B028823A1F0E3
:10480000C091E900CF709091EC00892F817090FDEC
:1048100080E8C82B1092E9008091E80083FD0E9497
:104820009A22CF70C093E900CF91089597FB072E8D
:1048300016F4009407D077FD09D00E94302407FCBD
:1048400005D03EF4909581959F4F089570956195A0
:104850007F4F0895EE0FFF1F0590F491E02D09940E
:10486000AA1BBB1B51E107C0AA1FBB1FA617B70796
:1048700010F0A61BB70B881F991F5A95A9F78095B2
:104880009095BC01CD010895FB01DC0104C08D9120
:104890000190801921F441505040C8F7881B990BB2
:1048A0000895F999FECF92BD81BDF89A992780B5F8
:1048B0000895A8E1B0E042E050E00C948524262F52
:1048C000F999FECF92BD81BDF89A019700B4021606
:1048D00039F01FBA20BD0FB6F894FA9AF99A0FBEB4
:1048E00008950396272F0E9460240E945F24252F9D
:1048F0000E946024242F0C9460240196272F0E948C
:1049000060240C945F24DC01CB01FC01F999FECFFB
:1049100006C0F2BDE1BDF89A319600B40D92415047
:0A4920005040B8F70895F894FFCF57
:10492A00050159010000000157015901045A01010A
:10493A0057015801000000045E01FFFFDD0128084D
:10494A00641E140A321E811DA41D851DE51D841DC9
:10495A0001F4F5F6F7313332946697C60000000089
:00000001FF
